:100000000C94B6000C9460030C943A030C94140303
:100010000C94EE020C94C8020C94D3000C94D30000
:100020000C94D3000C947C020C94D3000C94D30059
:100030000C94D3000C94A2020C94D3000C94D30023
:100040000C94FB050C94D3000C9405020C94DA017B
:100050000C94B4010C9456020C94D3000C94D3006D
:100060000C9430020C94D3006572726F722073741A
:10007000617475732000656E64206F662070726F06
:100080006772616D00646561646C6F636B007072B0
:100090006F6772616D206C6F6164696E6720666165
:1000A000696C6564000A46696E616C206D61636805
:1000B000696E652073746174653A000A00256300F7
:1000C00074766D2D61726475696E6F3A20255300E8
:1000D0000A00253032782000697074723E000A00F0
:1000E000253034782000777074723E000A7770747F
:1000F000723D25303478202872656C3D2530347887
:10010000292020697074723D25303478202872656A
:100110006C3D2530347829202065666C6167733D1D
:10012000253034782073666C6167733D25303478F0
:100130000A617265673D2530347820627265673DDB
:100140002530347820637265673D2530347820206F
:100150006F7265673D253034780A000A66696C6500
:100160003D2553206C696E653D25640011241FBE3A
:10017000CFEFD8E0DEBFCDBF11E0A0E0B1E0E2EF0D
:10018000FDE402C005900D92A435B107D9F717E040
:10019000A4E5B1E001C01D92A138B107E1F70E94CA
:1001A0000C080C94F7260C940000E6E5F1E080E0E2
:1001B00090E81182108293838283349621E0E6389E
:1001C000F207B9F70895CF93DF93C6E5D1E06881D0
:1001D000798160FF13C06E7FE0913107F0913207A3
:1001E00083E197E0099519821882809154019091DA
:1001F000550101979093550180935401249681E015
:10020000C638D80721F7F89480912F0790913007CE
:10021000897F9093300780932F077894DF91CF9157
:10022000089520E030E08091540190915501181616
:10023000190614F421E030E0C9010895EF92FF920D
:100240000F931F93CF93DF93EC01FB01E280F380C8
:100250000190F081E02DEC30F10538F0EAA5FBA526
:1002600060E270E009959C013AC08F01000F111FF8
:10027000000F111F0A5A1E4FF894F80182819381D2
:10028000F0E880309F0759F0F7019183808380E088
:1002900090E8F8019383828320E030E01FC08E85D0
:1002A0009F850E940C1FEE85FF859F01285F3F4FB1
:1002B0003F872E8797838683D383C283F182E08230
:1002C000F80131832083809154019091550101966A
:1002D000909355018093540122E730E07894C9014E
:1002E000DF91CF911F910F91FF90EF900895EF92C2
:1002F000FF920F931F93CF93DF93EC010E9443066D
:100300007B018C019B0188819981009749F480E8E9
:100310002030380711F421E030E83B832A831DC0E8
:1003200080FD1BC008970E940C1FFC01009739F04C
:10033000F182E082E881F981389711821082888108
:10034000998181609983888380912F0790913007EC
:1003500086609093300780932F07DF91CF911F9194
:100360000F91FF90EF9008951F920F920FB60F928A
:1003700011242F933F934F935F936F937F938F93AA
:100380009F93AF93BF93EF93FF938EE791E00E940B
:100390007701FF91EF91BF91AF919F918F917F91E5
:1003A0006F915F914F913F912F910F900FBE0F90E2
:1003B0001F9018951F920F920FB60F9211242F9332
:1003C0003F934F935F936F937F938F939F93AF93DD
:1003D000BF93EF93FF93E1ECF0E080818F7D80830A
:1003E0008AE791E00E947701FF91EF91BF91AF9171
:1003F0009F918F917F916F915F914F913F912F913D
:100400000F900FBE0F901F9018951F920F920FB66E
:100410000F9211242F933F934F935F936F937F938A
:100420008F939F93AF93BF93EF93FF93E1ECF0E033
:1004300080818F77808386E791E00E947701FF912A
:10044000EF91BF91AF919F918F917F916F915F914C
:100450004F913F912F910F900FBE0F901F901895C5
:100460001F920F920FB60F9211242F933F934F9329
:100470005F936F937F938F939F93AF93BF93EF930C
:10048000FF9382E891E00E947701FF91EF91BF9185
:10049000AF919F918F917F916F915F914F913F911C
:1004A0002F910F900FBE0F901F9018951F920F92D3
:1004B0000FB60F9211242F933F934F935F936F9337
:1004C0007F938F939F93AF93BF93EF93FF9382E7B5
:1004D00091E00E947701FF91EF91BF91AF919F91C1
:1004E0008F917F916F915F914F913F912F910F90DD
:1004F0000FBE0F901F9018951F920F920FB60F927C
:1005000011242F933F934F935F936F937F938F9318
:100510009F93AF93BF93EF93FF938EE691E00E947A
:100520007701FF91EF91BF91AF919F918F917F9153
:100530006F915F914F913F912F910F900FBE0F9050
:100540001F9018951F920F920FB60F9211242F93A0
:100550003F934F935F936F937F938F939F93AF934B
:10056000BF93EF93FF938AE691E00E947701FF919A
:10057000EF91BF91AF919F918F917F916F915F911B
:100580004F913F912F910F900FBE0F901F90189594
:100590001F920F920FB60F9211242F933F934F93F8
:1005A0005F936F937F938F939F93AF93BF93EF93DB
:1005B000FF9386E691E00E947701FF91EF91BF9152
:1005C000AF919F918F917F916F915F914F913F91EB
:1005D0002F910F900FBE0F901F9018951F920F92A2
:1005E0000FB60F9211242F933F934F935F936F9306
:1005F0007F938F939F93AF93BF93EF93FF9382E685
:1006000091E00E947701FF91EF91BF91AF919F918F
:100610008F917F916F915F914F913F912F910F90AB
:100620000FBE0F901F9018951F920F920FB60F924A
:1006300011242F933F934F935F936F937F938F93E7
:100640009F93AF93BF93EF93FF938EE591E00E944A
:100650007701FF91EF91BF91AF919F918F917F9122
:100660006F915F914F913F912F910F900FBE0F901F
:100670001F9018951F920F920FB60F9211242F936F
:100680003F934F935F936F937F938F939F93AF931A
:10069000BF93EF93FF938AE591E00E947701FF916A
:1006A000EF91BF91AF919F918F917F916F915F91EA
:1006B0004F913F912F910F900FBE0F901F90189563
:1006C0001F920F920FB60F9211242F933F934F93C7
:1006D0005F936F937F938F939F93AF93BF93EF93AA
:1006E000FF9386E591E00E947701FF91EF91BF9122
:1006F000AF919F918F917F916F915F914F913F91BA
:100700002F910F900FBE0F901F901895982F8091EA
:10071000C00085FFFCCF9093C60080E090E0089574
:10072000EF92FF920F931F937B018C011092C000F8
:1007300022E030E040E050E00E949126205C3D4BFA
:10074000404F5F4FCA01B901A80197010E9491264D
:10075000215030403093C5002093C40086E0809340
:10076000C20088E08093C10086E893E060E070E01A
:100770000E94EC2190937A07809379071F910F9143
:10078000FF90EF900895AF92BF92CF92DF92EF92D9
:10079000FF920F931F93CF93DF938C017B016A012C
:1007A000E90159015DC0069708F460C0C501B801B0
:1007B00044E050E00E94E3211C820C5F1F4FF801CF
:1007C00085919491382F2227892F9927282B392B0F
:1007D0003E832D830E5F1F4F1A870987F7018081A3
:1007E00091810697918380832B81293411F02535DF
:1007F00039F48D819E8198878F831E821D8244C02B
:100800002D813E818217930788F1C9018170907014
:1008100020FF04C02E5F3F4F281B390B89859A8526
:1008200098878F83820F931F9A878987F70180812A
:100830009181821B930B9183808326C09981F6015D
:100840008181981759F49A818281981739F49B8194
:100850008381981719F420E030E00AC009851A85D1
:10086000F70180819181009709F09DCF2FEF3FEF35
:10087000C901DF91CF911F910F91FF90EF90DF9011
:10088000CF90BF90AF9008959881F601808198171E
:1008900029F7D4CFEF92FF920F931F93DF93CF935B
:1008A00000D0CDB7DEB78C017B0184E091E0B801C8
:1008B00044E050E00E94D621892BE1F40C5F1F4FE9
:1008C000F80185919491382F2227892F9927282B79
:1008D000392B3A832983C8010296BE016F5F7F4F8F
:1008E00049E051E097010E94C30397FD03C020E057
:1008F00030E002C02FEF3FEFC9010F900F90CF9172
:10090000DF911F910F91FF90EF9008956F927F926A
:100910008F929F92AF92BF92CF92DF92EF92FF920F
:100920000F931F93DF93CF93CDB7DEB7AE970FB67C
:10093000F894DEBF0FBECDBF6B014A013901BE0185
:100940006D5F7F4F0E944A04892B09F09CC08A8505
:100950009B85288539853A832983F4011182108289
:10096000F30111821082AEE0EA2EF12CEC0EFD1E96
:100970008E010F5F1F4FB8014EE051E097010E94BA
:10098000C3039C0197FD81C08D899E892B893C8979
:100990003A832983B80143E151E09E01275E3F4F2E
:1009A0000E94C30397FD6FC08AA19BA1B80148E1D3
:1009B00051E097010E94C30397FD65C04D895E8990
:1009C0008B899C8900E010E0EE24FF2428C0FA0106
:1009D00025913491BC0166507040922F8827232FB7
:1009E0003327822B932BC816D906E0F04E5F5F4F5A
:1009F000FA0185919491182F0027892F9927082BA8
:100A0000192B4E5F5F4FFA0185919491F82EEE24D9
:100A1000892F9927E82AF92A4E5F5F4FCB0186304C
:100A20009105A8F628A139A18E8D9F8D9A8389837F
:100A300080E090E0E4E2AE2EB12CAC0EBD1E6E0163
:100A40000894C11CD11C14C0C901B6014DE151E08C
:100A500095010E94C3039C0197FD17C089A59AA523
:100A6000892B89F08BA59CA52DA53EA50150104092
:100A700017FFEACFF40191838083F301F182E082D2
:100A800020E030E002C02FEF3FEFC901AE960FB675
:100A9000F894DEBF0FBECDBFCF91DF911F910F91B4
:100AA000FF90EF90DF90CF90BF90AF909F908F908E
:100AB0007F906F9008954F925F926F927F928F9286
:100AC0009F92AF92BF92CF92DF92EF92FF920F93DD
:100AD0001F93DF93CF93CDB7DEB7E2970FB6F894AD
:100AE000DEBF0FBECDBF3C01CB015A012901BE01C3
:100AF000695F7F4F0E944A04892B19F02FEF3FEF67
:100B000062C08E859F852C853D853A8329836E0141
:100B10000894C11CD11CB60142E251E09E01235E43
:100B20003F4F0E94C3039C0197FD4DC00CA11DA126
:100B30008EA19FA1B60147E251E09E01285D3F4F83
:100B40000E94C3039C0197FD3EC0EFA4F8A889A9A9
:100B50009AA9B6014CE251E09E012E5E3F4F0E94E1
:100B6000C3039C0197FD2FC0898C9A8CC301B501EA
:100B700041E351E020E030E0E3E0CE2ED12CCC0E7A
:100B8000DD1EB5E0AB2EB12CAC0EBD1E0E945C0983
:100B90004816590630F482E391E060E070E00E946C
:100BA0009706C4010E94071FBC014B815C812D8107
:100BB0003E81C30101E311E0EE24FF24CC24DD24B7
:100BC0000E949B099C01C901E2960FB6F894DEBF12
:100BD0000FBECDBFCF91DF911F910F91FF90EF908E
:100BE000DF90CF90BF90AF909F908F907F906F904D
:100BF0005F904F9008951F920F920FB60F9211249D
:100C00002F933F938F939F93AF93BF9380918A01CC
:100C100090918B01A0918C01B0918D0130918E014A
:100C20000196A11DB11D232F2D5F2D3720F02D57CB
:100C30000196A11DB11D20938E0180938A0190938E
:100C40008B01A0938C01B0938D01809186019091CE
:100C50008701A0918801B09189010196A11DB11D64
:100C60008093860190938701A0938801B0938901B6
:100C7000BF91AF919F918F913F912F910F900FBE98
:100C80000F901F9018958FB7F89420918A0130919A
:100C90008B0140918C0150918D018FBFB901CA0128
:100CA00008956FB7F89486B590E0A0E0B0E0A89BF7
:100CB00008C00097A105B10521F480E091E0A0E013
:100CC000B0E02091860130918701409188015091D8
:100CD00089016FBF542F432F322F2227280F391F2E
:100CE0004A1F5B1F82E0220F331F441F551F8A9546
:100CF000D1F7B901CA01089585B5836085BDEEE6D7
:100D0000F0E08081816080830895FC01F894848DF7
:100D1000958D4095509548235923462B572B558F39
:100D2000448F789408950E944306CB010895CF9292
:100D3000DF92EF92FF920F931F93DF93CF9300D038
:100D400000D0CDB7DEB78B0100D000D020EC30E072
:100D5000ADB7BEB712963C932E93119714969C9301
:100D60008E9313970E9438220F900F900F900F9040
:100D70000115110599F000D000D08DEB90E0EDB792
:100D8000FEB792838183D8018D919C919483838354
:100D90000E9438220F900F900F900F9000D08BEB95
:100DA00090E0EDB7FEB7928381830E9438220F90C6
:100DB0000F90012B09F42FC100D085EA90E0ADB768
:100DC000BEB712969C938E9311970E9438220F9073
:100DD0000F90609113077091140780911107909103
:100DE0001207681B790B80E09FE4AE014F5F5F4FF5
:100DF0009E012D5F3F4F0E948604892B01F500D094
:100E000000D000D0EDB7FEB731968BE591E0ADB7DD
:100E1000BEB712969C938E93119789819A81938382
:100E200082838B819C81958384830E943822EDB7D5
:100E3000FEB736960FB6F894FEBF0FBEEDBF2091F9
:100E400021073091220740911307509114076091B8
:100E50002F07709130078DB79EB746970FB6F8945D
:100E60009EBF0FBE8DBFEDB7FEB731968CEE90E002
:100E7000ADB7BEB712969C938E931197338322839E
:100E800080910F0790911007281B390B35952795F6
:100E900035832483578346838091110790911207ED
:100EA000481B590B5187408780912B0790912C0745
:100EB00093878287758764878091170790911807B9
:100EC000978786878091190790911A07918B808B5D
:100ED00080911B0790911C07938B828B8091150743
:100EE00090911607958B848B0E94382200912107E0
:100EF000109122070E501040EDB7FEB776960FB650
:100F0000F894FEBF0FBEEDBF36EEC32E30E0D32EF9
:100F100020EEE22E20E0F22E21C00217130759F432
:100F200000D0ADB7BEB71296DC92CE9211970E9458
:100F300038220F900F90C8010E940C1F00D000D0E3
:100F4000EDB7FEB7F282E182948383830E94382258
:100F50000E5F1F4F0F900F900F900F902091210761
:100F600030912207C9010E9608171907B0F200D078
:100F70008EED90E0ADB7BEB712969C938E9311970D
:100F80000E94382200911307109114070C50104052
:100F90000F900F9098EDC92E90E0D92E82EDE82E9B
:100FA00080E0F82E24C00217130749F400D0EDB7F3
:100FB000FEB7D282C1820E9438220F900F90C801E2
:100FC0000E94261F00D000D0EDB7FEB73196ADB716
:100FD000BEB71296FC92EE921197828313820E9402
:100FE00038220F5F1F4F0F900F900F900F9020919E
:100FF000130730911407C9010C960817190798F2C6
:1010000000D080ED90E0EDB7FEB7928381830E941F
:1010100038220F900F90FFCFEF92FF920F931F9304
:10102000DF93CF9300D0CDB7DEB70E947C060E943D
:10103000D500789460E071EE80E090E00E9490032B
:1010400087E991E08E7F9093100780930F07FC0152
:1010500020E030E888589A4F21933193E817F90738
:10106000D9F78FE891E00E94F4088FE891E063E1FE
:1010700077E00E94961E40910F075091100783E180
:1010800097E060E07FE42CEB32E00E945B05892B67
:1010900031F08EE890E060E070E00E949706809169
:1010A000130790911407909312078093110783E917
:1010B00096E0909348078093470785E896E09093E1
:1010C00038078093370780E091E090936A07809318
:1010D0006907809102019091030190936C078093BE
:1010E0006B077E010894E11CF11C83E197E00E94EC
:1010F000811E9A83898380379105B9F381379105E1
:101100003CF48335910531F18536910549F519C0D7
:101110008437910551F38837910581F08337910524
:10112000F9F40091290710912A070E944306C8018B
:10113000861B970B18161906C4F3D7CF0E94E3003D
:10114000D4CF0E941101892B81F685E890E060E000
:1011500070E009C086E790E060E070E00E949706CA
:1011600088E690E0B7010E949706BFCFFC01842B70
:10117000952B80FD22C0CA01A3E096958795AA957C
:10118000E1F7892BD1F0DF019B013070922F882786
:10119000822B932B282F892F5695479507C02C9388
:1011A00011968C931197129641505040411551055C
:1011B000B1F709C06D93019702C0DF01CA01009722
:1011C000C9F7E40FF51FCF010895FB0101C011928B
:1011D000415050408FEF4F3F5807C9F780E090E0F3
:1011E000089580E090E00895FC011182108213823E
:1011F000128280E090E00895DC01A25ABF4FED9189
:10120000FC911197AE55B04080819181A817B90724
:1012100061F0FC01E05AFF4F9C01808191818A17A7
:101220009B07B9F7F901E05AFF4FA05ABF4F8D91C4
:101230009C911197A056B04091838083A25ABF4FD2
:101240001D921D92FD01118210820895FC0189E614
:1012500090E0938F828F118E108E158E148E1382D4
:1012600012821582148217821682118610861786C2
:101270001686118A108A138A128A158A148A08958A
:101280000F931F934F5F5F4F80E090E001151105B2
:1012900011F081E090E0480F591F4430510514F4DB
:1012A00044E050E02A5F3F4F200F311F240F351FCD
:1012B000C9011F910F910895AF92BF92CF92DF9213
:1012C000EF92FF920F931F93A801F601D5012F5FB4
:1012D0003F4F80E090E0E114F10411F081E090E0F4
:1012E0008901080F191F0430110514F404E010E0FF
:1012F000040F151F0B5F1F4F000F111F060F171F45
:1013000011830083E114F10411F400E010E00D9367
:101310001C9320813181261B370B359527952E0D87
:101320003F1DC9011F910F91FF90EF90DF90CF906B
:10133000BF90AF9008958F929F92AF92BF92CF923D
:10134000DF92EF92FF920F931F93CF93DF93EC0105
:101350005B014A01B90189E0E816F1041CF02FEFA6
:101360003FEF8FC0C05CDF4FF982E882C054D040AD
:10137000A601A2E4CA2ED12CCC0EDD1EDE01D89629
:1013800020E030E014C0F801E20FF31F80818D935C
:10139000863419F42EEF3FEF74C0FA0181919191D8
:1013A000AF01F601819391936F012F5F3F4F2E158F
:1013B0003F054CF3B982A882F4013297FF87EE878C
:1013C0008FE28083EE85FF858EEF8183E0E0F0E0A1
:1013D0006115710511F0E1E0F0E097012E0F3F1F5C
:1013E0002F5F3F4F2430310564F424503040220FEA
:1013F000331F8E859F85820F931F9F878E8724E0E2
:1014000030E06115710539F0EE85FF853297FF8771
:10141000EE8771836083C05CDF4F88819981C054FF
:10142000D040BC0161507040C796AE01480F591FB3
:10143000DC015797AA0FBB1FAC0FBD1F13C0FA01E9
:101440008081863451F0EE85FF853297FF87EE87E5
:101450008D919C9111979183808361507040415090
:101460005040129777FFEBCFEE85FF853297FF87CD
:10147000EE87220F331F2E0F3F1F3183208320E082
:1014800030E0C901DF91CF911F910F91FF90EF9054
:10149000DF90CF90BF90AF909F908F900895CF93A3
:1014A000DF93EC0182E790E09B8F8A8FEEA9FFA982
:1014B000309729F0CE0109959C01009771F48E8533
:1014C0009F85892B19F020E030E009C0EEA1FFA133
:1014D000CE0109959C01009711F03B8F2A8FC9011D
:1014E000DF91CF9108950F931F938C01FC018081B0
:1014F00091810E94261FF801208131812F5F3F4F8B
:1015000031832083482F50E04F7050702281338107
:10151000242B352B338322831F910F9108954F92F3
:101520005F926F927F928F929F92AF92BF92CF9273
:10153000DF92EF92FF920F931F93CF93DF93EC0113
:101540003B015A0149012801CB010E940C1FD20125
:101550008D939C93009709F43DC09C012E7F80FDE4
:1015600009C0F30111821082CE01B501A401F70177
:10157000099528C02115310539F18901085010401D
:10158000C8010E940C1FF0E882309F0779F0D20159
:101590001D921C92B0E881309B0774F0E0E8833024
:1015A0009E0724F08350904839F414C083E090E8FB
:1015B000D8018D939C930EC0EAA5FBA5CE0160E4F3
:1015C00070E009959C011AC0CE01B501A401F60195
:1015D0000995F8CFEE85FF853897A192B192C19316
:1015E000D19391828082349688819981929382935B
:1015F0003296D301ED93FC932FEF3FEFC901DF91BA
:10160000CF911F910F91FF90EF90DF90CF90BF90FF
:10161000AF909F908F907F906F905F904F900895C4
:101620008F929F92AF92BF92CF92DF92EF92FF92F2
:101630000F931F93DF93CF9300D0CDB7DEB74C014C
:10164000F801D70156018E010F5F1F4F7F016D0119
:101650000E948F0A9C010097D9F489819A81892B75
:10166000D1F0D4011E96ED91FC911F978D919C9124
:1016700011979293829332965E962D913C915F974B
:10168000C401BF01F9010995F4011786168606C049
:10169000181619068CF12E5F3F4F19F189819A8136
:1016A0008E7F9A8389830097F9F006970E940C1F1A
:1016B000DC0149815A818815990549F09096ED9190
:1016C000FC919197B40109950097A9F40DC0F4011C
:1016D00057874687CA0102970E940C1FD4018D9339
:1016E0009C9320E030E008C0D4019696ED91FC91E7
:1016F0009797C40109959C01C9010F900F90CF9154
:10170000DF911F910F91FF90EF90DF90CF90BF90EE
:10171000AF909F908F9008958F929F92AF92BF92BB
:10172000CF92DF92EF92FF920F931F93CF93DF93AD
:10173000FC018B01EA01CC0FDD1FC60FD71FC617B6
:10174000D70718F4CE01EB018C0198E3A92EB12C38
:10175000AE0EBF1E82E4C82ED12CCE0EDF1EEE24AC
:10176000FF24B0E48B2E912C8E0E9F1E1EC0F5011F
:101770008081813211F08F3371F4F6018081918183
:101780000E940C1F8017910730F0C817D90718F076
:1017900021E030E012C00894E11CF11C0894A11C67
:1017A000B11C82E090E0C80ED91EF40180819181C5
:1017B000E816F906E4F220E030E0C901DF91CF91AC
:1017C0001F910F91FF90EF90DF90CF90BF90AF905F
:1017D0009F908F9008952F923F924F925F926F92B9
:1017E0007F928F929F92AF92BF92CF92DF92EF92B1
:1017F000FF920F931F93CF93DF9368E3662E712CB4
:10180000680E791E52E4852E912C880E991EAA240A
:10181000BB2440E4242E312C280E391E68C0F3016D
:101820008081813219F08F3309F057C0F401408074
:101830005180C2010E940C1F6C013EEFE32E3FEF6E
:10184000F32EE822F922E114F10409F441C0C701A2
:1018500006970E940C1FEC01870108501040C0FE43
:1018600017C0C8010E940C1FF0E881309F0751F09B
:101870008250904869F5E8A1F9A1CE0160E070E0DE
:10188000A701099583E090E8F8019183808320C047
:10189000C8010E940C1F182F092FC70104970E942E
:1018A0000C1FAC011816190664F4812F902F9C01AF
:1018B000F90101C01192415050409FEF4F3F59072D
:1018C000C9F7E8A1F9A1CE0160E070E0A701099590
:1018D00081E090E0F201918380830894A11CB11C07
:1018E0000894611C711CE2E0F0E08E0E9F1EF10175
:1018F00080819181A816B9060CF491CFDF91CF9128
:101900001F910F91FF90EF90DF90CF90BF90AF901D
:101910009F908F907F906F905F904F903F902F900F
:101920000895AF92BF92CF92DF92EF92FF920F9302
:101930001F93CF93DF938C017B016A01CB01842B32
:10194000952B802B912B80FF03C05801EA011EC00C
:101950005801EA01D695C7950CC0C7010E940C1F1B
:10196000F501819391935F0182E090E0E80EF91E0A
:101970002197209791F70EC0C7010E94261FF501FD
:1019800081935F010894E11CF11C21972097A1F736
:101990000C0D1D1DC801DF91CF911F910F91FF907C
:1019A000EF90DF90CF90BF90AF900895EF92FF92AD
:1019B0000F931F938B017A01C90108970E940C1F96
:1019C000BC01C801A7010E94910C80E090E01F912A
:1019D0000F91FF90EF900895EF92FF920F931F9356
:1019E0007B018A01C90108970E940C1F109501957F
:1019F0001F4FB701A8010E94910C80E090E01F9159
:101A00000F91FF90EF9008954F925F926F927F92A7
:101A10008F929F92AF92BF92CF92DF92EF92FF92FE
:101A20000F931F93DF93CF9300D0CDB7DEB72C0178
:101A300062956F70673009F4D4C06830D8F46330B1
:101A400009F479C0643060F4613009F43FC0DC010E
:101A500012964D915C911397623008F060C029C0D6
:101A6000653009F49DC0FC0142815381663008F065
:101A7000A8C079C06B3009F461C16C3060F4693082
:101A800009F4FEC0DC0114960D911C9115976A3083
:101A900008F030C1CEC06D3009F482C16D3008F459
:101AA00066C16E3009F4A7C16F3011F00C94241E8A
:101AB000C5C1FC0180819181840F951F9183808332
:101AC0001382128220E030E00C94261EDC01149672
:101AD0004D915C91159716966D917C911797129682
:101AE0002D913C911397220F331F1E968D919C913F
:101AF0001F97820F931F15969C938E93149717969A
:101B00005C934E93169719967C936E931897139641
:101B10001C921E92129720E030E00C94261E64E086
:101B2000440F551F6A95E1F7FC015383428320E07F
:101B300030E00C94261EDC0112968D919C91139737
:101B4000880F991F14962D913C911597820F931F22
:101B50000E940C1FF201958384831382128220E07D
:101B600030E00C94261EDC0114968D919C91159703
:101B700016962D913C91179715965C934E9314975A
:101B800017969C938E93169719963C932E931897BD
:101B900013961C921E92129720E030E00C94261EA1
:101BA000FC0122813381220F331F84819581820FB2
:101BB000931F958384831382128220E030E00C947B
:101BC000261E4095509524E0440F551F2A95E1F7B5
:101BD000DC0113965C934E93129720E030E00C9456
:101BE000261EFC0122813381220F331F86859785B3
:101BF000820F931F0E940C1FD20114962D913C91CD
:101C0000159716964D915C91179715969C938E9308
:101C1000149717963C932E93169719965C934E93B0
:101C2000189713961C921E92129720E030E00C94A5
:101C3000261EFC01828193817C01E00EF11E8E251F
:101C40009F250E251F258023912397FF0CC002A4FA
:101C5000F3A5E02DC20164E070E009959C010097B6
:101C600011F00C94261ED2011596FC92EE92149758
:101C700013961C921E92129720E030E00C94261EC0
:101C8000DC011E96ED91FC911F97AF01485050402A
:101C90002D913C91DA012D933C933697DC011496FB
:101CA0008D919C9115978193919316968D919C910E
:101CB00017978193919318968D919C911997918381
:101CC00080831F965C934E931E9715963C932E939C
:101CD000149712968D919C911397280F391F119686
:101CE0003C932E9313961C921E92129720E030E0A4
:101CF0000C94261E012B51F4FC01808191812281DC
:101D00003381820F931F9183808311C0DC01189669
:101D10002D913C91199716968D919C911797159638
:101D20009C938E93149717963C932E931697F201DB
:101D30001382128220E030E00C94261EDC01129601
:101D40002D913C911397220F331F1E968D919C91DC
:101D50001F97820F931F1F969C938E931E97139627
:101D60001C921E92129720E030E00C94261EFC017B
:101D700024813581828193812817390729F481E0F4
:101D800090E09583848305C0D20115961C921E9223
:101D90001497F2011382128220E030E00C94261E88
:101DA000DC0112968D919C911397880F991F1E96B6
:101DB000ED91FC911F97E80FF91F14968D919C915E
:101DC00015979183808313961C921E9212971896F2
:101DD0002D913C91199716968D919C911797159678
:101DE0009C938E93149717963C932E93169720E00E
:101DF00030E00C94261EDC011296ED91FC911397B5
:101E0000EE0FFF1F14968D919C911597E80FF91F07
:101E100016968D919C9117979183808313961C92AF
:101E20001E92129718968D919C91199715969C93D6
:101E30008E93149720E030E00C94261EFC018281E2
:101E40009381138212828733910511F40C94221826
:101E5000883391050CF0F2C08A31910509F408C568
:101E60008B3191050CF075C08A30910509F438C3A7
:101E70008B309105ACF58430910509F47EC2853034
:101E80009105ACF48130910509F422C282309105AC
:101E90002CF4892B09F407C20C94241E823091057E
:101EA00009F425C2039711F00C94241E31C2873027
:101EB000910509F4B8C2883091054CF4853091053C
:101EC00009F46CC2069711F00C94241E93C288305A
:101ED000910509F4BDC2099711F00C94241ED9C2D2
:101EE0008031910509F4BFC381319105CCF48D3067
:101EF000910509F45CC38E3091054CF48B3091054B
:101F000009F40BC30C9711F00C94241E1EC38E30E1
:101F1000910509F46BC30F9711F00C94241E83C331
:101F20008531910509F426C4863191054CF483313D
:101F3000910509F4A4C3449711F00C94241EC8C35E
:101F40008631910509F42AC4499711F00C94241E96
:101F500050C48732910509F47CC688329105ACF5EE
:101F60008132910509F426C582329105ACF48D3198
:101F7000910509F4B9C48E3191052CF44B9711F0F9
:101F80000C94241EA4C48F31910509F4D1C4809708
:101F900011F00C94241EFBC48432910509F477C51A
:101FA000853291054CF48232910509F43CC5839742
:101FB00011F00C94241E4DC58532910509F476C5A7
:101FC000869711F00C94241E13C68033910509F4F2
:101FD00068C781339105CCF48C32910509F4B0C601
:101FE0008D3291054CF48832910509F455C68B97D2
:101FF00011F00C94241E6DC68E32910509F4CDC6E5
:102000008F9711F00C94241E16C78333910509F4A1
:10201000A2C7843391054CF48133910509F46BC751
:10202000C29711F00C94241E88C78533910509F4DA
:10203000A2C7C69711F00C94241ED4C7833591050E
:1020400011F40C94331B843591050CF08DC086344B
:10205000910511F40C946A1987349105ECF58034DC
:10206000910511F40C94B81881349105ACF48933BE
:10207000910511F40C9475188933910514F40C949E
:1020800046188B33910511F40C949818CC9711F0E5
:102090000C94241E0C94AC188334910511F40C9408
:1020A00012198434910564F48134910511F40C946F
:1020B000DB188234910511F00C94241E0C94F8184E
:1020C0008434910511F40C941F198534910511F095
:1020D0000C94241E0C944A198C34910511F40C9420
:1020E000221A8D34910504F58934910511F40C946C
:1020F000EF198A34910564F48734910511F40C9436
:102100007A198834910511F00C94241E0C94B81996
:102110008A34910511F40C94001A8B34910511F056
:102120000C94241E0C94121A8F34910511F40C9403
:10213000811A8035910564F48D34910511F40C9465
:10214000481A8E34910511F00C94241E0C94701AC8
:102150008135910511F40C94B41A8235910511F072
:102160000C94241E0C94231B853A910511F40C94B5
:10217000FA1C863A91050CF048C08937910511F494
:102180000C943D1C8A37910504F58A35910511F4AC
:102190000C94951B8B35910564F48535910511F4EC
:1021A0000C94531B8635910511F00C94241E0C944D
:1021B0006D1B8036910511F40C94A91B8136910595
:1021C00011F00C94241E0C94F31B8C37910511F420
:1021D0000C949B1C8D37910564F48A37910511F49A
:1021E0000C94491C8B37910511F00C94241E0C940F
:1021F000571C8138910511F40C94CE1C823A91053C
:1022000011F00C94241E0C94E21C8C3E910511F4E8
:102210000C94AC1D8D3E910504F5803E910511F4A2
:102220000C941A1D813E910564F48D3A910511F4C8
:102230000C94061D8E3A910511F00C94241E0C94FA
:10224000121D883E910511F40C942C1D893E9105B8
:1022500011F00C94241E0C945C1DF2E085339F0752
:1022600011F40C94E51D22E0863392075CF48D3F57
:10227000910511F40C94D71D8E3F910511F00C942B
:10228000241E0DC032E08633930711F40C94FD1D1B
:102290008753924011F00C94241E0C94091E23E5E0
:1022A00030E00C94261ED20114968D919C911597C6
:1022B00016962D913C91179715963C932E93149753
:1022C00017969C938E93169720E030E00C94261E70
:1022D000F201848195810E94261FD20114968C936D
:1022E000149715961C9220E030E00C94261EF20103
:1022F000808591852481358146815781240F351F42
:10230000358324839783868320E030E00C94261E57
:10231000D20114968D919C91159702960E940C1FE4
:10232000F201048115810197A1F4D80113961C9242
:102330001E921297848195810E940C1FF201918355
:102340008083848195819787868720E030E00C9494
:10235000261EC80102960E940C1F0197D8011396F1
:102360009C938E931297D2019696ED91FC9197973C
:10237000C20109959C010C94261EF201808591856D
:102380002681378144815581241B350B3583248375
:102390009783868320E030E00C94261ED2011696A7
:1023A0002D913C91179714968D919C9115978C01C6
:1023B000020F131F80279127202731278223932381
:1023C00097FF0DC09A96ED91FC919B97C20164E036
:1023D00070E009959C01009711F00C94261EF20103
:1023E00080859185158304839783868320E030E080
:1023F0000C94261ED20114962D913C9115978D9127
:102400009C91119715969C938E93149711963C93DB
:102410002E931E96ED91FC911F979183808320E06F
:1024200030E00C94261EF20166817781408551854B
:1024300024813581C20106ED1CE0E5EEEE2EE8E0D8
:10244000FE2ECC24DD240E94100B9C010C94261E31
:10245000D20118964D915C91199714962D913C914B
:10246000159716968D919C911797FC012E9FC00190
:102470002F9F900D3E9F900D112415969C938E9347
:10248000149717965C934E93169720E030E00C94C7
:10249000261ED20116962D913C91179714968D9178
:1024A0009C91159718964D915C91199782179307F7
:1024B00074F481E090E015969C938E931497179690
:1024C0005C934E93169720E030E00C94261EF201A8
:1024D000158214825783468320E030E00C94261E38
:1024E000D20118964D915C91199716962D913C91B9
:1024F0001797220F331F14968D919C911597820F79
:10250000931F15969C938E93149717965C934E93F6
:10251000169720E030E00C94261EF2016681778148
:102520004085518524813581309521953F4FC201E9
:102530000CEE1CE0F1EFEF2EF8E0FF2ECC24DD24B2
:102540000E94100B9C010C94261ED20116964D91F0
:102550005C91179714962D913C911597CA01821B97
:10256000930B84279527242735278223932397FFCE
:102570000DC09A96ED91FC919B97C20164E070E0CA
:1025800009959C01009711F00C94261EF20180859C
:1025900091852681378144815581241B350B3583F4
:1025A00024839783868320E030E00C94261ED2019A
:1025B0001496ED91FC91159732978D919C911197FE
:1025C00016962D913C911797820F931F91838083CC
:1025D00014966D917C9115975E96ED91FC915F97A5
:1025E000C201099520E030E00C94261ED2011E960F
:1025F000ED91FC911F9716966D917C91179714960B
:102600008C918083C201AF012FEF3FEF0CEE1CE0F5
:10261000E1EFEE2EE8E0FE2ECC24DD240E94100B2C
:102620009C010C94261ED2011E96ED91FC911F97E1
:1026300016966D917C91179714968D919C91159794
:1026400091838083C201AF012EEF3FEF0CEE1CE0BF
:10265000B1EFEB2EB8E0FB2ECC24DD240E94100B52
:102660009C010C94261ED2019A96ED91FC919B97A9
:10267000C20161E070E009959C010C94261EF201F4
:1026800026813781848195812817390760F002A45B
:10269000F3A5E02DC20162E070E009959C0100976E
:1026A00011F00C94261ED20118962D913C91199789
:1026B00016968D919C91179715969C938E931497CF
:1026C00017963C932E93169720E030E00C94261E2C
:1026D000F20144815581868197812AE530E0420EDE
:1026E000531ED201ED91FC9126EA3FEF420E531E9C
:1026F000309789F09C01369527956CE570E0460E81
:10270000571ED2018D919C9164EA7FEF460E571EB1
:102710002817390760F0D2019A96ED91FC919B97AA
:10272000C20160E870E009959C010C94261EC90165
:1027300073E0880F991F7A95E1F7220F331F820FFC
:10274000931FE80FF91F80819181009711F40C9479
:10275000211E8417950711F40C94211ED2019A961C
:10276000ED91FC919B97C20160E870E009959C0196
:102770000C94261ED2011E96ED91FC911F97329764
:102780008D919C911197918380839696ED91FC9108
:102790009797C20109959C010C94261EF20146816F
:1027A0005781248135818901040F151F808591850A
:1027B00081709070080F191F20273127402751275B
:1027C0002423352337FF0CC002A4F3A5E02DC2015A
:1027D00064E070E009959C01009711F00C94261EAE
:1027E000D20115961C930E93149720E030E00C94C0
:1027F000261EF2011186108684819581892B79F538
:1028000086819781892B59F5158214821782168249
:1028100080E290E09187808720E030E00C94261ED3
:102820009C01220F331FD20117963C932E931697CB
:1028300014968D919C91159797FF05C0216017966E
:102840003C932E931697F20184819581880F991FEE
:102850009583848380859185019691878087D201B5
:1028600016968D919C91179797FFDACF0C94211EA5
:10287000F201E084F18400E010E08701FF24EE24FF
:1028800086819781A0E0B0E0E82AF92A0A2B1B2B69
:10289000A480B580CC24DD24C801B701A601950130
:1028A0000E946F263B014C01C801B701A6019501AA
:1028B0000E946F26D20115963C932E93149717967B
:1028C0007C926E92169720E030E00C94261EF20166
:1028D0008081918124813581820F931F9583848328
:1028E00020E030E00C94261ED20114968D919C912C
:1028F000159716960D911C91179797FF0EC08FEFA5
:102900009FEF17969C938E93169719961C930E9390
:10291000189720E030E00C94261EF2019583848302
:10292000178216821187008720E030E00C94261E63
:10293000D20114968D919C911597009749F08F5F65
:102940009F4FA1F4F201868197818050904871F4E5
:10295000D2019A96ED91FC919B97C20164E070E0E0
:1029600009959C01009711F00C94261EF201208518
:10297000318564817581868197810E945C2695836B
:1029800084833783268320E030E00C94261ED20116
:102990001E968D919C911F970E940C1FF2019183AE
:1029A00080838685978508969787868720E030E024
:1029B0000C94261ED20116968D919C911797029623
:1029C0000E940C1FF201068117810297F4F0C801E2
:1029D0000E940C1F0196D8018D939C93F2010681F1
:1029E0001781C80102960E940C1F0197D801139607
:1029F0009C938E931297F20124813581808191817D
:102A0000821B930B918380830AC0C80102960E94A7
:102A10000C1F0197D80113969C938E93129720E078
:102A200030E00C94261ED201D496ED91FC91D597FE
:102A3000C2010995F2012481358146815781958330
:102A40008483378326835187408720E030E00C94CD
:102A5000261ED20116964D915C91179718966D918E
:102A60007C91199720E030E014968D919C911597F8
:102A7000892B11F421E030E0F20135832483578360
:102A800046837187608720E030E00C94261ED201D7
:102A900014962C911497332727FD309515963C9367
:102AA0002E93149720E030E00C94261EF2016685E8
:102AB00077856E5F7F4F2481358137FD38C042E5D1
:102AC00050E0440E551ED201ED91FC914EEA5FEFAD
:102AD000440E551E3097E1F084E590E0480E591EF3
:102AE000D2018D919C914CEA5FEF440E551E281740
:102AF000390770F4220F331F220F331FE20FF31F29
:102B00000190F081E02D309719F0CB0109955AC062
:102B1000D2019A96ED91FC919B97C20160E270E020
:102B200009959C01009709F44DC00C94261EE6E51A
:102B3000F0E04E0E5F1ED201ED91FC914AEA5FEF8C
:102B4000440E551E309729F12095309588E590E088
:102B5000480E591ED2018D919C9148EA5FEF440EB8
:102B6000551E28173907A8F4220F331FE20FF31F51
:102B70000190F081E02D309761F0C20109959C0130
:102B80008236910511F40C94211E8237910559F477
:102B90000FC0D2019A96ED91FC919B97C20160E221
:102BA00070E009959C012115310561F00C94261EF9
:102BB000D2019696ED91FC919797C20109959C01DF
:102BC0000C94261EF201868597850E940C1FD20167
:102BD00011969C938E931E968D919C911F970896AB
:102BE0001F969C938E931E9720E030E00C94261E37
:102BF000F201C680D780C60102960E940C1F019781
:102C0000D60113969C938E931297892B11F40C94F2
:102C1000211EF201E680F78024E030E0E20EF31E90
:102C2000C6010E940C1F8C01C7010E940C1F080FD7
:102C3000191FD6010D931C93F201248135818081E7
:102C40009181821B930B9183808320E030E00C9470
:102C5000261ED20116960D911C911797C801029657
:102C60000E940C1F0197F80193838283892B09F43A
:102C7000E8C7C8010E940C1F0197D8018D939C934F
:102C8000F2012481358180819181821B930B918394
:102C9000808320E030E0DAC7D2011E96ED91FC91EE
:102CA0001F978D919C9111979293829332965E9685
:102CB0002D913C915F97C201BF01F9010995F20185
:102CC0001786168606A0F7A1E02DC20109959C0182
:102CD000BDC7D201D496ED91FC91D597C20109955B
:102CE000AC01F20124813581821B930B1816190661
:102CF0000CF4A7C70684F785E02D3C973183208329
:102D00003C96D2018D919C91119792938293329629
:102D10009E960D911C919F97C201BF01F8010995E4
:102D2000D2011E96ED91FC911F9738971182108267
:102D30009696ED91FC919797C20109959C0186C7E3
:102D4000F20184819581009759F08F5F9F4FA9F41C
:102D5000D20116968D919C9117978050904869F4F6
:102D6000D2019A96ED91FC919B97C20164E070E0CC
:102D700009959C01009709F069C7F201208531850A
:102D800064817581868197810E945C267583648346
:102D90003783268320E030E059C7D2011496ED90A6
:102DA000FC90159718960D911C91199716968D9178
:102DB0009C911797892BA9F11E968D919C911F9735
:102DC0000A970E940C1FB0E881309B07F9F4F201CA
:102DD000868597850C970E940C1F081B190B1016EF
:102DE0001106FCF0D2011E968D919C911F970E94B6
:102DF0000C1F8F5F9F4FA9F4D2011E96ED91FC919D
:102E00001F97F182E08281E090E00DC082509048EF
:102E100041F0F2016685778500A8F1A9E02DC20195
:102E2000099580E090E0D20115969C938E931497BB
:102E300020E030E00BC7F20120853185E480F58089
:102E400086819781892B29F18901C8010E940C1F75
:102E50009C01D2011E964D915C911F97CA01816021
:102E60002817390721F4F8011182108212C0232B90
:102E700081F0CA010E940C1F8F5F9F4F51F4D20155
:102E80001E96ED91FC911F97F182E08281E090E027
:102E900002C080E090E0F2019583848320E030E07E
:102EA000D5C6D20114960D911C91159716968D9149
:102EB0009C911797892B99F01E968D919C911F9745
:102EC0000E940C1F8F5F9F4F51F4D2011E96ED910F
:102ED000FC911F971183008321E030E002C020E0C5
:102EE00030E0F20180859185358324839783868342
:102EF00020E030E0ABC6D20114966D917C9115971D
:102F000080E090E016962D913C91179740E050E0BC
:102F10000E943D26F2012085318540E050E0620F9D
:102F2000731F841F951F75836483BC0188279927AD
:102F30007783668320E030E089C6D20114962D9114
:102F40003C9115972095309515963C932E931497A8
:102F500020E030E07BC6F2018085918524813581B7
:102F60004681578124273527358324839783868399
:102F700020E030E06BC6D20118968D919C91199794
:102F800016962D913C91179714966D917C911597FB
:102F900060327105D8F4A0E0B0E0DC019927882701
:102FA00040E050E0822B932BA42BB52B04C0B695A8
:102FB000A795979587956A95D2F7F20195838483B3
:102FC000CD01AA27BB279783868309C0D201159616
:102FD0001C921E92149717961C921E92169720E030
:102FE00030E034C6F2018085918526813781648185
:102FF000758160327105D0F4A0E0B0E0DC01992762
:10300000882740E050E0822B932BA42BB52B04C0E3
:10301000880F991FAA1FBB1F6A95D2F795838483D7
:10302000CD01AA27BB279783868309C0D2011596B5
:103030001C921E92149717961C921E92169720E0CF
:1030400030E004C6F20166817781448155819A019E
:10305000260F371F8085918581709070820F931F96
:103060009583848320953095CA01862B972B28233E
:10307000392346235723242B352B832F881F88275A
:10308000881F8683178220E030E0E0C5D2011696C3
:103090004D915C91179714962D913C9115978A014B
:1030A000021B130B18968D919C911997817090704B
:1030B000081B190BC801842795272427352782234D
:1030C000932397FF0CC09A96ED91FC919B97C201B8
:1030D00064E070E009959C01009709F0B7C5F20122
:1030E0001583048320E030E0B1C5D20114968D91A0
:1030F0009C91159706970E940C1FDC01F201048138
:1031000015818415950549F09096ED91FC91919764
:10311000B201A80109959C0199C5D2015E96ED9175
:10312000FC915F97C201B801099520E030E08EC59F
:10313000D2011496ED91FC91159716968C911697E5
:10314000808318968D919C91199715969C938E93D8
:10315000149720E030E07AC5F20126853785848116
:103160009581978786873583248320E030E06EC57C
:10317000D20114968D919C9115978031910518F08C
:1031800020E030E008C0F2012681378102C0369588
:1031900027958A95E2F7D20118968D919C911997FF
:1031A00015963C932E93149717969C938E9316978F
:1031B00020E030E04BC5F20184819581803191059A
:1031C00018F020E030E00AC0D20116962D913C9113
:1031D000179702C0220F331F8A95E2F7F20180850C
:1031E0009185358324839783868320E030E02EC544
:1031F000D20114968D919C91159716964D915C91E4
:10320000179720E030E815963C932E931497179665
:103210009C938E93169719965C934E93189720E083
:1032200030E014C5D2011E96ED91FC911F9738979E
:1032300081E090E89183808320E030E007C5D201EF
:103240001E96ED91FC911F978FEF9FEF91838083E6
:10325000CF0108970E940C1F8350904809F4F1C4D5
:10326000D2011E96ED91FC911F97389782E090E86D
:10327000819391935182408234968D919C911197C4
:10328000918380839696ED91FC919797C201099561
:103290009C01DCC4F201868597850E940C1F9C016D
:1032A000FFEF8F3F9F0759F0D2018D919C911197AD
:1032B000820F931F8D939C9320E030E0C7C4D2010E
:1032C0009A96ED91FC919B97C20160E170E009959F
:1032D0009C01BCC4F20180859185248135814681A1
:1032E000578124233523358324839783868320E0E5
:1032F00030E0ACC4D2011496ED90FC901597169670
:103300000D911C911797E114F10441F11E968D91D6
:103310009C911F970A970E940C1FF201A685B78502
:103320008250904851F41A9781E090E811969C934E
:103330008E93FD011293029311C0CD010C970E9450
:103340000C1F801B910B1816190644F4D2011E960F
:10335000ED91FC911F973C9711830083F2018085CA
:103360009185F582E4829783868320E030E06EC405
:10337000D20116968C91169717969C9117971496D2
:10338000ED90FC901597E114F104C9F08C01C8018F
:103390000E940C1FD2011E96ED91FC911F979F0178
:1033A0002160009721F4F8013183208308C082173F
:1033B000930729F0389783E090E891838083D201C6
:1033C00018968D919C9119971596FC92EE921497F0
:1033D00017969C938E93169720E030E037C4F20145
:1033E00084819581892B09F42CC40684F785E02D0E
:1033F000389783E090E89183808320E030E026C412
:10340000D20118966D917C91199714964D915C910B
:10341000159716968D919C9117970E94910C20E01C
:1034200030E014C4F2018085918524813581468184
:103430005781242B352B358324839783868320E083
:1034400030E004C4D20114968D919C911597169684
:103450000D911C91179797FF04C00F5F1F4F19F430
:103460000FC0012B69F0D2019A96ED91FC919B97C8
:10347000C20162E070E009959C01009709F0E6C383
:10348000F201808591859783868320E030E0DEC35A
:10349000D20116962D913C9117972115310539F0DF
:1034A00014968D919C9115978217930768F4D20119
:1034B0009A96ED91FC919B97C20162E070E00995AC
:1034C0009C01009709F0C2C3F201208531858681F5
:1034D0009781958384833783268320E030E0B6C3C9
:1034E000D2011E96ED91FC911F97389781E090E8EC
:1034F0009183808382E090E89293829320E030E091
:10350000A5C3F201468157810480F581E02DBA01FF
:103510006E1B7F0BD20118968D919C91199781702B
:103520009070681B790B15967C936E931497CF015E
:103530008423952301979F01242B352B821B930B0A
:1035400086239723409550954E235F23842B952BFC
:10355000892F881F8827881F16968C931697179691
:103560001C9220E030E072C3D201D496ED91FC9120
:10357000D597C20109958C01D2011E96ED91FC915F
:103580001F978FEF9FEF91838083CF0108970E9451
:103590000C1FF201A685B7858350904831F41C9723
:1035A0000D931C9320E030E051C3CD010A970E9497
:1035B0000C1F8250904869F1D2011E968D919C910A
:1035C0001F970C970E940C1F9C01C801821B930B34
:1035D000F201A685B7851816190664F4189783E0DA
:1035E00090E811969C938E9314970D931C9320E072
:1035F00030E02CC32F5F3F4F1C9711963C932E93C6
:103600001C96F201E6A4F7A4C201BD01A801F701CE
:103610000995D2011E96ED91FC911F97389782E093
:1036200090E8819391935182408234968D919C9140
:103630001197918380839696ED91FC919797C201A3
:1036400009959C0103C3F201808591852481358110
:1036500046815781240F351F3583248397838683C2
:1036600020E030E0F3C2D20118964D915C91199799
:1036700014962D913C91159716968D919C911797C4
:10368000FC012E9FC0012F9F900D3E9F900D112495
:1036900015969C938E93149717965C934E9316975A
:1036A00020E030E0D3C2D20158968D919C91599779
:1036B000892B09F4C6C21E96ED91FC911F97329793
:1036C0008D919C911197918380839696ED91FC91B9
:1036D0009797C20109959C01B9C2F20146815781B1
:1036E00024813581421753073CF488279927821B90
:1036F000930B481759076CF4D2019A96ED91FC91FF
:103700009B97C20162E070E009959C01009709F067
:103710009DC2F201208531858681978195838483BE
:103720003783268320E030E091C2D20114968D9138
:103730009C91159716962D913C91179717969C93EF
:103740008E93169719963C932E93189720E030E0AD
:103750007DC2F201868197812AE530E0420E531E38
:10376000D201ED91FC9126EA3FEF420E531E3097B5
:1037700079F19C01369527954CE550E0440E551E95
:10378000D2018D919C9144EA5FEF440E551E28179B
:103790003907F0F4C90153E0880F991F5A95E1F7F2
:1037A000220F331F820F931FE80FF91F0280F3814E
:1037B000E02D309769F0D20114966D917C911597A8
:1037C00018964D915C911997C20109959C013EC2D2
:1037D000D2019A96ED91FC919B97C20160E870E04E
:1037E00009959C0133C2F201868197812AE530E078
:1037F000420E531ED201ED91FC9126EA3FEF420E9C
:10380000531E309779F19C01369527954CE550E091
:10381000440E551ED2018D919C9144EA5FEF440EF7
:10382000551E28173907F0F4C90113E0880F991FB6
:103830001A95E1F7220F331F820F931FE80FF91F2C
:103840000480F581E02D309769F0D20114966D91D6
:103850007C91159718964D915C911997C201099525
:103860009C01F4C1D2019A96ED91FC919B97C20103
:1038700060E870E009959C01E9C1F201208531857D
:1038800086819781958384833783268320E030E087
:10389000DDC1D2011496ED91FC91159781E090E085
:1038A000918380831382128220E030E0CFC1F20145
:1038B00004811581C8010E940C1F9C018130910573
:1038C00031F4D8011D921C9220E030E0BFC1D2013A
:1038D0001E96ED91FC911F9734971182108252929F
:1038E000429236968D919C91929382933296232B9D
:1038F00049F4D8011196FC93EE931396FC93EE9342
:10390000129710C0C80102960E940C1FFC01349748
:10391000D2011E968D919C911F9791838083F8010F
:1039200093838283D2019696ED91FC919797C20181
:1039300009959C018BC1F20104811581C8010E9487
:103940000C1F7C01009741F481E090E0D8018D9339
:103950009C9320E030E07AC104970E940C1FF8018C
:1039600091838083C70106970E940C1FDC01841598
:10397000950549F09096ED91FC919197B201A701C0
:1039800009959C0163C1D2015E96ED91FC915F9710
:10399000C201B701099520E030E058C1F20140852D
:1039A000518526813781220F331F220F331F8481D7
:1039B0009581820F931F958384835783468320E0EC
:1039C00030E044C1D20114968D919C9115971696C2
:1039D0002D913C91179715961C921E92149717964D
:1039E0009C938E93169719963C932E93189720E0EC
:1039F00030E02CC1F2012085318586819781958345
:103A000084833783268320E030E020C1D2011896DA
:103A10008D919C9119971B969C938E931A9720E0F9
:103A200030E014C1F201828593859187808720E080
:103A300030E00CC1D20114968D919C911597892B81
:103A400009F0FFC09A96ED91FC919B97C20161E04D
:103A500070E009959C01FAC0F201F480E5800F2D19
:103A60001E2DC8010E940C1F892B09F0EAC0D2014B
:103A70001E96ED91FC911F97389782E090E8819314
:103A80009193518240823696DF011497FC921196F1
:103A9000EC92D2018D919C91929382933296E16047
:103AA000D801ED93FC93D2019696ED91FC919797F6
:103AB000C20109959C01CAC0F201868097804085A9
:103AC000518524813581C201B4018E010F5F1F4FE2
:103AD000F6EDEF2EFCE0FF2EE5EECE2EE8E0DE2E3A
:103AE000AA24BB240E948F0A9C01181619060CF404
:103AF000ADC0009759F0D2019A96ED91FC919B9739
:103B0000C20160E470E009959C01A0C089819A819E
:103B100081309105E9F4D2011E96ED91FC911F9739
:103B20008D919C9111979293829332965E962D91EE
:103B30003C915F97C201BF01F9010995F201178617
:103B4000168606A0F7A1E02DC20109959C017EC052
:103B5000D4018D939C937AC0F20104811581C80130
:103B60000E940C1F8130910509F46BC0D8011D9291
:103B70001C928C010E7FC80106970E940C1FDC016D
:103B80008415950549F09096ED91FC919197B201BD
:103B9000A80109959C015AC0D2015E96ED91FC9155
:103BA0005F97C201B801099520E030E04FC0F201F3
:103BB000848195812681378115821482978386833B
:103BC0003187208720E030E041C0D20114968D91EA
:103BD0009C91159716962D913C91179715961C92CE
:103BE0001E92149717969C938E93169719963C9352
:103BF0002E93189720E030E029C0F201208531850E
:103C000086819781958384833783268320E030E003
:103C10001DC0D20114968D919C91159716962D91E9
:103C20003C91179715961C921E92149717969C9389
:103C30008E93169719963C932E93189720E030E0B8
:103C400005C020E030E002C029E430E0C9010F9057
:103C50000F90CF91DF911F910F91FF90EF90DF9028
:103C6000CF90BF90AF909F908F907F906F905F901C
:103C70004F9008950F931F93CF93DF93EC018B0127
:103C8000888199810E94261F682F888199810196D9
:103C900099838883262F30E02F7030708A819B8132
:103CA000822B932B9B838A83CE010E94040D9C015F
:103CB0000250104011F0009719F33B8F2A8FC90171
:103CC000DF91CF911F910F9108950F931F93CF9381
:103CD000DF938C01EB010E944F0A9C01009759F47D
:103CE000CC0FDD1FC801BE010E943A1E9C01009747
:103CF00011F424E730E0C901DF91CF911F910F91BA
:103D00000895CF93DF93EC010E944F0A9C01009726
:103D100031F4CE0161E070E00E943A1E9C01C901BD
:103D2000DF91CF9108950E94040D0895CF93DF9302
:103D3000EC01DB0189E690E05B969C938E935A97A9
:103D400059961C921E9258975D961C921E925C97F3
:103D500013961C921E92129715961C921E921497FF
:103D600017961C921E92169719961C921E921897DF
:103D70001F961C921E921E9751961C921E9250974F
:103D800053961C921E92529755961C921E925497CF
:103D90001D961C921E921C97D5961C921E92D4972B
:103DA00099961C921E929897D7961C921E92D6971F
:103DB000AE5ABF4F1D921D921D921D921D921D92D3
:103DC0001D921D921D921D921D921D921196DC93C3
:103DD000CE93AE55B04088819981892B19F4B9836F
:103DE000A88306C0EA81FB81E05AFF4FB183A0831C
:103DF000BB83AA83A05ABF4F11961C921E92A05655
:103E0000B040CD010E942320DF91CF9108959C0105
:103E100020503048C9010895FC0180E8E030F807DF
:103E200028F0E050F0488591949108958081918127
:103E30000895FC0180E8E030F80728F0E050F048F1
:103E4000859194910895808191810895FC0180E885
:103E5000E030F80720F0E050F04884910895808128
:103E60000895DF93CF9300D000D0CDB7DEB7FC012B
:103E700080E8E030F80778F0E050F04885919591BF
:103E8000A591B49189839A83AB83BC8369817A813C
:103E90008B819C8108C060817181882777FD809526
:103EA000982F0E9402260F900F900F900F90CF91A5
:103EB000DF910895DF93CF9300D000D0CDB7DEB768
:103EC000FC0180E8E030F80778F0E050F048859198
:103ED0009591A591B49189839A83AB83BC836981C1
:103EE0007A818B819C8108C060817181882777FDF0
:103EF0008095982F0E9402260F900F900F900F90A0
:103F0000CF91DF910895CF93DF93EC01DB011497FC
:103F100011961C921E92149688899989892B19F4FE
:103F2000B98BA88B05C0EA89FB893497B183A0833C
:103F3000BB8BAA8BDF91CF9108950F931F93CF93E3
:103F4000DF93EC018B01EE8DFF8DBA010995011510
:103F5000110559F02C853D85F80184859585281734
:103F600039071CF420E730E002C020E030E0C9014E
:103F7000DF91CF911F910F910895CF93DF93EC01C3
:103F8000DA01149711961C921E92149688899989C9
:103F9000892B19F4798B688B05C0EA89FB893497E2
:103FA00071836083BB8BAA8BDF91CF910895FC0155
:103FB00024A135A161E070E040E050E0F9010995ED
:103FC0000895CF93DF93EC018C8D9D8D81FF03C00D
:103FD00028E730E01EC08C8D9D8D80FD03C025E458
:103FE00030E017C0ECA9FDA9CE010995BC01EAA9F2
:103FF000FBA9CE0109958C899D89892B41F4ECA1FF
:10400000FDA1CE0160E070E041E050E0099520E0C4
:1040100030E0C901DF91CF910895FC01848D958D29
:104020004095509548235923462B572B558F448F45
:104030000895FC01808D918D862B972B918F808F19
:1040400085E490E00895FC0183E89FE1978F868FD7
:104050008DE99FE191A380A38DEB9FE193A382A3C0
:104060008DE090E295A384A384E991E297A386A3CF
:1040700089E190E293A782A781EE9FE195A784A7AB
:1040800080E291E297A786A784ED90E291AB80ABA6
:1040900081E590E293AB82AB87ED9FE191A780A78A
:1040A00008956F927F928F929F92AF92BF92CF921C
:1040B000DF92EF92FF920F931F93CF93DF936C01E8
:1040C0005B01DC015496ED90FC90559756968D91CE
:1040D0009C915797E114F10409F457C0861B970B84
:1040E000181619060CF451C091E0692E90E8792E4B
:1040F00083E0882E80E8982E87010A501040C8017E
:104100000E940C1FEC01F8017182608284EF9FEF26
:10411000E80EF91ED701AD92BC92ECE0F0E0EE0E95
:10412000FF1E870108501040C8010E940C1F8350D9
:10413000904859F0D8018D929C92D6015E96ED91EF
:10414000FC915F97C601B7010995209721F4F6010C
:10415000158A148A1AC0CE010C970E940C1F9C016C
:104160007E018A199B091816190634F6D601559650
:10417000DC93CE93549757963C932E9356979896EC
:10418000ED91FC919997C6010995DF91CF911F910F
:104190000F91FF90EF90DF90CF90BF90AF909F90E6
:1041A0008F907F906F900895EF92FF920F931F93DF
:1041B000CF93DF93EC017B010C891D89061717074C
:1041C00091F4CB010A970E940C1F9D8B8C8B00975A
:1041D00039F10C970E940C1F9F8B8E8BE8A5F9A5D7
:1041E000CE0109951DC001151105D1F0C8010A972E
:1041F0000E940C1F12C0CE15DF0551F4C7010A97AB
:104200000E940C1F0A501040F8019183808308C05F
:10421000CE010A970E940C1F8E01EC01009759F7FE
:1042200086EF9FEFE80EF91E82E090E8F701918398
:104230008083DF91CF911F910F91FF90EF900895B0
:10424000CF92DF92EF92FF920F931F93CF93DF9362
:10425000DC01EB0169015496ED90FC905597E11457
:10426000F10489F455967C936E93549757963C933A
:104270002E9356978D919C9111979A938A93289794
:104280001982188215C056968D919C915797821B62
:10429000930B181619069CF42A97F982E8822A963D
:1042A0005596DC93CE93549757963C932E935697FE
:1042B0009896ED91FC919997CD0109952CC0C70175
:1042C0000A970E940C1F8C01009759F486EF9FEF0C
:1042D000E80EF91EF701D183C0832A97198218824C
:1042E0001AC00C970E940C1F8C199D0918161906EC
:1042F00064F42A97198308832A9686EF9FEFE80EC5
:10430000F91EF701D183C08306C0C8010A970E9435
:104310000C1F7801D8CFDF91CF911F910F91FF90A3
:10432000EF90DF90CF900895CF93DF93EC018C8DC9
:104330009D8D892B51F0ECA5FDA5CE0109959C0121
:10434000009719F01F861E862DC0288939892115EE
:10435000310541F03F872E878A899B8928173907C5
:1043600091F40CC01F861E868C899D89892B19F4B7
:1043700025E630E017C023E730E014C0198A188A18
:104380001B8A1A8A06C0C90104970E940C1F998BC8
:10439000888B8E859F8502970E940C1F9983888346
:1043A00020E030E0C901DF91CF910895FB01DC01ED
:1043B00004C08D910590801921F441505040C8F7F8
:1043C000881B990B0895FB01DC0102C005900D923A
:1043D00041505040D8F708950F931F93CF93DF9328
:1043E0008C01EB01009731F46115710519F420E09F
:1043F00030E038C081E090E06EE070E00E943B2445
:10440000FC019C01009771F180E88383209771F093
:10441000D387C28781E8838380917707909178075B
:10442000892B21F4F0937807E093770701151105A4
:10443000C9F0118700878381826083838091790727
:1044400090917A07892B71F4F0937A07E0937907BA
:1044500080917B0790917C07892B21F4F0937C0756
:10446000E0937B07C901DF91CF911F910F910895D0
:10447000A0E0B0E0EEE3F2E20C94D026FE01359627
:1044800061917191A0917907B0917A0713968C91FF
:104490001397886013968C938091790790917A078F
:1044A000AF010E945E22E0917907F0917A072381A3
:1044B000277F23832096E2E00C94EC26ABE0B0E06B
:1044C000E4E6F2E20C94C0263C012B015A01FC0107
:1044D00017821682838181FD03C06FEF7FEFC6C113
:1044E0009AE0892E1E010894211C311CF3012381BE
:1044F000F20123FD859123FF81912F01882309F487
:10450000B2C1853239F423FD859123FF81912F01BA
:10451000853229F490E0B3010E947625E7CF982FE9
:10452000FF24EE249924FFE1FF15D0F09B3269F0BF
:104530009C3228F4903259F0933291F40EC09D329F
:1045400049F0903369F441E024C052E0F52A84E058
:10455000F82A28C098E0F92A25C0E0E1FE2A22C006
:10456000F7FC29C0892F80538A3070F4F6FE05C00D
:10457000989C902C1124980E15C0E89CE02C1124D6
:10458000E80EF0E2FF2A0EC09E3229F4F6FC6BC161
:1045900040E4F42A07C09C3619F450E8F52A02C01A
:1045A000983649F4F20123FD959123FF91912F0153
:1045B000992309F0B8CF892F8554833018F08052A1
:1045C000833038F444E050E0A40EB51E5FE3598315
:1045D0000FC0933631F0933779F0933509F056C018
:1045E00020C0F5018081898342E050E0A40EB51E11
:1045F000610101E010E012C0F501C080D180F6FC3D
:1046000003C06FEF7FEF02C0692D70E042E050E021
:10461000A40EB51EC6010E946B258C015FE7F52232
:1046200014C0F501C080D180F6FC03C06FEF7FEFAE
:1046300002C0692D70E042E050E0A40EB51EC60134
:104640000E9459258C0150E8F52AF3FE07C01AC0D4
:1046500080E290E0B3010E947625EA948E2D90E0EE
:1046600008171907A8F30EC0F601F7FC8591F7FEAD
:1046700081916F0190E0B3010E947625E110EA94E8
:10468000015010400115110579F7EAC0943611F078
:10469000993669F5F7FE08C0F50120813181428124
:1046A000538184E090E00AC0F501808191819C01F2
:1046B000442737FD4095542F82E090E0A80EB91EA4
:1046C0009FE6F92257FF09C05095409530952195F6
:1046D0003F4F4F4F5F4FE0E8FE2ACA01B901A101E9
:1046E0002AE030E00E94A225D82ED21840C095378B
:1046F00029F41F2D1F7E2AE030E01DC01F2D197FD9
:104700009F3661F0903720F4983509F0ACC00FC0A7
:10471000903739F0983709F0A6C004C028E030E09F
:104720000AC0106114FD146020E130E004C014FDE3
:10473000166020E132E017FF08C0F5016081718149
:104740008281938144E050E008C0F501808191812D
:10475000BC0180E090E042E050E0A40EB51EA10153
:104760000E94A225D82ED2188FE7F82EF122F6FE4D
:104770000BC05EEFF522D91438F4F4FE07C0F2FC4A
:1047800005C08FEEF82202C01D2D01C0192DF4FEC8
:104790000DC0FE01ED0DF11D8081803319F499EEFD
:1047A000F92208C01F5FF2FE05C003C08F2D867876
:1047B00009F01F5F0F2DF3FC14C0F0FE0FC01E1593
:1047C00010F09D2C0BC09D2C9E0C911A1E2D06C026
:1047D00080E290E0B3010E9476251F5F1E15C0F3B2
:1047E00004C01E1510F4E11A01C0EE2404FF0FC02E
:1047F00080E390E0B3010E94762502FF1DC001FD19
:1048000003C088E790E00EC088E590E00BC0802FE1
:10481000867891F001FF02C08BE201C080E2F7FCD4
:104820008DE290E0B3010E94762506C080E390E01F
:10483000B3010E9476259A94D914C0F3DA94F10159
:10484000ED0DF11D808190E0B3010E947625DD2001
:10485000A9F706C080E290E0B3010E947625EA94B1
:10486000EE20C1F743CEF30166817781CB012B9611
:10487000E2E10C94DC260F931F93CF93DF93689FA4
:104880008001699F100D789F100D1124C8010E94AE
:104890005724EC01009729F060E070E0A8010E9425
:1048A0006425CE01DF91CF911F910F910895CF9391
:1048B000DF93BC018230910510F462E070E0A091BA
:1048C0007F07B0918007ED01E0E0F0E040E050E0CC
:1048D00021C0888199818617970769F48A819B8115
:1048E000309719F09383828304C09093800780935C
:1048F0007F07FE0134C06817790738F44115510568
:1049000019F08417950708F4AC01FE018A819B8198
:104910009C01E9012097E9F641155105A9F1CA0169
:10492000861B970B049708F4BA01E0E0F0E02AC078
:104930008D919C91119784179507F9F46417750769
:1049400081F412968D919C911397309719F093836F
:10495000828304C09093800780937F07FD01329685
:104960004CC0CA01861B970BFD01E80FF91F61932C
:10497000719302978D939C9340C0FD018281938136
:104980009C01D9011097A1F680917D0790917E0737
:10499000892B41F480914F019091500190937E07B3
:1049A00080937D074091510150915201411551056D
:1049B00041F44DB75EB780914D0190914E01481B77
:1049C000590B20917D0730917E07CA01821B930B02
:1049D0008617970780F0AB014E5F5F4F84179507EE
:1049E00050F0420F531F50937E0740937D07F9010B
:1049F0006193719302C0E0E0F0E0CF01DF91CF91CD
:104A00000895CF93DF93009709F450C0EC012297EB
:104A10001B821A82A0917F07B0918007109709F13D
:104A200040E050E0AC17BD0708F1BB83AA83FE014C
:104A300021913191E20FF31FAE17BF0779F48D91E9
:104A40009C911197280F391F2E5F3F4F3983288380
:104A500012968D919C9113979B838A8341155105E2
:104A600071F4D0938007C0937F0720C012968D9178
:104A70009C911397AD01009711F0DC01D3CFFA019F
:104A8000D383C28321913191E20FF31FCE17DF0749
:104A900069F488819981280F391F2E5F3F4FFA01F1
:104AA000318320838A819B8193838283DF91CF919D
:104AB0000895FC010590615070400110D8F7809571
:104AC00090958E0F9F1F0895DC0101C06D9341509A
:104AD0005040E0F70895FC016150704001900110D2
:104AE000D8F7809590958E0F9F1F08950F931F9371
:104AF000CF93DF938C01EB018B8181FF1BC082FF81
:104B00000DC02E813F818C819D812817390764F467
:104B1000E881F9810193F983E88306C0E885F98586
:104B2000802F0995892B31F48E819F8101969F8377
:104B30008E8302C00FEF1FEFC801DF91CF911F914D
:104B40000F910895FA01AA27283051F1203181F1FF
:104B5000E8946F936E7F6E5F7F4F8F4F9F4FAF4F85
:104B6000B1E03ED0B4E03CD0670F781F891F9A1F98
:104B7000A11D680F791F8A1F911DA11D6A0F711D4C
:104B8000811D911DA11D20D009F468943F912AE058
:104B9000269F11243019305D3193DEF6CF01089540
:104BA000462F4770405D4193B3E00FD0C9F7F6CF71
:104BB000462F4F70405D4A3318F0495D31FD405239
:104BC000419302D0A9F7EACFB4E0A69597958795CF
:104BD00077956795BA95C9F70097610571050895AE
:104BE0009B01AC010A2E069457954795379527955A
:104BF000BA95C9F7620F731F841F951FA01D0895F2
:104C0000E89409C097FB3EF4909580957095619566
:104C10007F4F8F4F9F4F9923A9F0F92F96E9BB271C
:104C20009395F695879577956795B795F111F8CF98
:104C3000FAF4BB0F11F460FF1BC06F5F7F4F8F4F03
:104C40009F4F16C0882311F096E911C0772321F0F9
:104C50009EE8872F762F05C0662371F096E8862F91
:104C600070E060E02AF09A95660F771F881FDAF7E8
:104C7000880F9695879597F90895629FD001739F45
:104C8000F001829FE00DF11D649FE00DF11D929FE8
:104C9000F00D839FF00D749FF00D659FF00D992727
:104CA000729FB00DE11DF91F639FB00DE11DF91F4B
:104CB000BD01CF011124089597FB092E07260AD0C4
:104CC00077FD04D049D006D000201AF47095619584
:104CD0007F4F0895F6F7909581959F4F0895A1E233
:104CE0001A2EAA1BBB1BFD010DC0AA1FBB1FEE1F66
:104CF000FF1FA217B307E407F50720F0A21BB30BB1
:104D0000E40BF50B661F771F881F991F1A9469F72C
:104D100060957095809590959B01AC01BD01CF0188
:104D2000089597FB092E05260ED057FD04D0D7DF36
:104D30000AD0001C38F450954095309521953F4F8E
:104D40004F4F5F4F0895F6F7909580957095619558
:104D50007F4F8F4F9F4F0895AA1BBB1B51E107C088
:104D6000AA1FBB1FA617B70710F0A61BB70B881FFB
:104D7000991F5A95A9F780959095BC01CD0108958A
:104D80002F923F924F925F926F927F928F929F925B
:104D9000AF92BF92CF92DF92EF92FF920F931F9349
:104DA000CF93DF93CDB7DEB7CA1BDB0B0FB6F894FA
:104DB000DEBF0FBECDBF09942A88398848885F843A
:104DC0006E847D848C849B84AA84B984C884DF80AB
:104DD000EE80FD800C811B81AA81B981CE0FD11D8F
:104DE0000FB6F894DEBF0FBECDBFED010895F89465
:024DF000FFCFF3
:104DF2001E01010074656E63007462634C0064629C
:104E0200674C00666E204C006C6E644200666E2039
:104E12005300777320550076732055006263204259
:104E220000006E6F7420656E6F7567682052414D89
:104E320020666F722070726F6772616D0020008150
:044E42000700000065
:00000001FF
