:100000000C9415010C9482010C94AC010C94D60153
:100010000C9400020C942A020C9454020C947E025C
:100020000C94A8020C94D2020C94FC020C942603AB
:100030000C9436010C9436010C9436010C947A031E
:100040000C9436010C9436010C9436010C94360154
:100050000C9450030C9436010C9436010C94CC098A
:100060000C9436010C94F8030C9427040C94560459
:100070000C9436010C94A4030C9436010C943601B4
:100080000C9436010C9436010C9436010C94360114
:100090000C9480040C94AF040C94DE040C94CE03F6
:1000A0000C9436010C9436010C9436010C943601F4
:1000B0000C9436010C9436010C9436010C943601E4
:1000C0000C9436010C9436010C9436010C940805FE
:1000D0000C9437050C9466050C9490050C94BF05A0
:1000E0000C94EE0574766D2D61726475696E6F3ACD
:1000F000202553002563000A000A46696E616C20C2
:100100006D616368696E652073746174653A000A95
:1001100066696C653D2553206C696E653D256400FC
:100120000A777074723D25303478202872656C3DF2
:1001300025303478292020697074723D2530347858
:10014000202872656C3D2530347829202065666C46
:100150006167733D253034782073666C6167733D49
:10016000253034780A617265673D25303478206225
:100170007265673D2530347820637265673D2530B0
:10018000347820206F7265673D253034780A007717
:100190007074723E002530347820000A0069707453
:1001A000723E002530327820000A00417264756981
:1001B0006E6F2D54564D207374617274696E672E84
:1001C0002E2E0A0070726F6772616D206C6F616411
:1001D000696E67206661696C6564004265666F726E
:1001E000652074766D5F72756E3A00416674657253
:1001F0002074766D5F72756E203D20256420282561
:1002000063293A00646561646C6F636B00656E64BA
:10021000206F662070726F6772616D006572726F19
:100220007220737461747573200011241FBECFEFA8
:10023000D1E2DEBFCDBF00E00CBF12E0A0E0B2E033
:10024000E6E8F1E500E00BBF02C007900D92A03A8E
:10025000B107D9F719E0A0EAB2E001C01D92A931B7
:10026000B107E1F70E9477210C94C1280C9400009B
:10027000CF92DF92EF92FF92CF93DF93EC010E9437
:10028000160A6B017C019B0188819981009749F4D2
:10029000C11480E8D80611F421E030E83B832A83BA
:1002A0001CC080FD1AC008970E94E71EFC018881CF
:1002B0009981309731F0D182C082FC013897118248
:1002C00010828160998388838091C7089091C808C3
:1002D00086609093C8088093C708DF91CF91FF9004
:1002E000EF90DF90CF900895E0EAF2E080E090E8B0
:1002F0001182108293838283349623E0EC31F207DB
:10030000B9F708951F920F920FB60F9211240BB6F2
:100310000F922F933F934F935F936F937F938F939E
:100320009F93AF93BF93EF93FF9380EA92E00E9475
:100330003801FF91EF91BF91AF919F918F917F9184
:100340006F915F914F913F912F910F900BBE0F9046
:100350000FBE0F901F9018951F920F920FB60F921D
:1003600011240BB60F922F933F934F935F936F938C
:100370007F938F939F93AF93BF93EF93FF9384EA01
:1003800092E00E943801FF91EF91BF91AF919F9150
:100390008F917F916F915F914F913F912F910F902E
:1003A0000BBE0F900FBE0F901F9018951F920F92CB
:1003B0000FB60F9211240BB60F922F933F934F93CA
:1003C0005F936F937F938F939F93AF93BF93EF93BD
:1003D000FF9388EA92E00E943801FF91EF91BF916C
:1003E000AF919F918F917F916F915F914F913F91CD
:1003F0002F910F900BBE0F900FBE0F901F9018956E
:100400001F920F920FB60F9211240BB60F922F93DB
:100410003F934F935F936F937F938F939F93AF938C
:10042000BF93EF93FF938CEA92E00E943801FF9113
:10043000EF91BF91AF919F918F917F916F915F915C
:100440004F913F912F910F900BBE0F900FBE0F90C9
:100450001F9018951F920F920FB60F9211240BB692
:100460000F922F933F934F935F936F937F938F934D
:100470009F93AF93BF93EF93FF9380EB92E00E9423
:100480003801FF91EF91BF91AF919F918F917F9133
:100490006F915F914F913F912F910F900BBE0F90F5
:1004A0000FBE0F901F9018951F920F920FB60F92CC
:1004B00011240BB60F922F933F934F935F936F933B
:1004C0007F938F939F93AF93BF93EF93FF9384EBAF
:1004D00092E00E943801FF91EF91BF91AF919F91FF
:1004E0008F917F916F915F914F913F912F910F90DD
:1004F0000BBE0F900FBE0F901F9018951F920F927A
:100500000FB60F9211240BB60F922F933F934F9378
:100510005F936F937F938F939F93AF93BF93EF936B
:10052000FF9388EB92E00E943801FF91EF91BF9119
:10053000AF919F918F917F916F915F914F913F917B
:100540002F910F900BBE0F900FBE0F901F9018951C
:100550001F920F920FB60F9211240BB60F922F938A
:100560003F934F935F936F937F938F939F93AF933B
:10057000BF93EF93FF938CEB92E00E943801FF91C1
:10058000EF91BF91AF919F918F917F916F915F910B
:100590004F913F912F910F900BBE0F900FBE0F9078
:1005A0001F9018951F920F920FB60F9211240BB641
:1005B0000F922F933F934F935F936F937F938F93FC
:1005C0009F93AF93BF93EF93FF9380EC92E00E94D1
:1005D0003801FF91EF91BF91AF919F918F917F91E2
:1005E0006F915F914F913F912F910F900BBE0F90A4
:1005F0000FBE0F901F9018951F920F920FB60F927B
:1006000011240BB60F922F933F934F935F936F93E9
:100610007F938F939F93AF93BF93EF93FF9384EC5C
:1006200092E00E943801FF91EF91BF91AF919F91AD
:100630008F917F916F915F914F913F912F910F908B
:100640000BBE0F900FBE0F901F9018951F920F9228
:100650000FB60F9211240BB60F922F933F934F9327
:100660005F936F937F938F939F93AF93BF93EF931A
:10067000FF9388EC92E00E943801FF91EF91BF91C7
:10068000AF919F918F917F916F915F914F913F912A
:100690002F910F900BBE0F900FBE0F901F901895CB
:1006A0001F920F920FB60F9211240BB60F922F9339
:1006B0003F934F935F936F937F938F939F93AF93EA
:1006C000BF93EF93FF9380ED92E00E943801FF917A
:1006D000EF91BF91AF919F918F917F916F915F91BA
:1006E0004F913F912F910F900BBE0F900FBE0F9027
:1006F0001F9018951F920F920FB60F9211240BB6F0
:100700000F922F933F934F935F936F937F938F93AA
:100710009F93AF93BF93EF93FF9384ED92E00E947A
:100720003801FF91EF91BF91AF919F918F917F9190
:100730006F915F914F913F912F910F900BBE0F9052
:100740000FBE0F901F9018951F920F920FB60F9229
:1007500011240BB60F922F933F934F935F936F9398
:100760007F938F939F93AF93BF93EF93FF9384EE09
:1007700092E00E943801FF91EF91BF91AF919F915C
:100780008F917F916F915F914F913F912F910F903A
:100790000BBE0F900FBE0F901F9018951F920F92D7
:1007A0000FB60F9211240BB60F922F933F934F93D6
:1007B0005F936F937F938F939F93AF93BF93EF93C9
:1007C000FF9388E193E00E943801FF91EF91BF9180
:1007D000AF919F918F917F916F915F914F913F91D9
:1007E0002F910F900BBE0F900FBE0F901F9018957A
:1007F0001F920F920FB60F9211240BB60F922F93E8
:100800003F934F935F936F937F938F939F93AF9398
:10081000BF93EF93FF93E1ECF0E080818F778083CB
:1008200088EE92E00E943801FF91EF91BF91AF9165
:100830009F918F917F916F915F914F913F912F91F8
:100840000F900BBE0F900FBE0F901F9018951F9228
:100850000F920FB60F9211240BB60F922F933F9366
:100860004F935F936F937F938F939F93AF93BF93B8
:10087000EF93FF93E1ECF0E080818F7D808388EF40
:1008800092E00E943801FF91EF91BF91AF919F914B
:100890008F917F916F915F914F913F912F910F9029
:1008A0000BBE0F900FBE0F901F9018951F920F92C6
:1008B0000FB60F9211240BB60F922F933F934F93C5
:1008C0005F936F937F938F939F93AF93BF93EF93B8
:1008D000FF9388E093E00E943801FF91EF91BF9170
:1008E000AF919F918F917F916F915F914F913F91C8
:1008F0002F910F900BBE0F900FBE0F901F90189569
:100900001F920F920FB60F9211240BB60F922F93D6
:100910003F934F935F936F937F938F939F93AF9387
:10092000BF93EF93FF93E9ECF0E080818F778083B2
:100930008CEE92E00E943801FF91EF91BF91AF9150
:100940009F918F917F916F915F914F913F912F91E7
:100950000F900BBE0F900FBE0F901F9018951F9217
:100960000F920FB60F9211240BB60F922F933F9355
:100970004F935F936F937F938F939F93AF93BF93A7
:10098000EF93FF93E9ECF0E080818F7D80838CEF23
:1009900092E00E943801FF91EF91BF91AF919F913A
:1009A0008F917F916F915F914F913F912F910F9018
:1009B0000BBE0F900FBE0F901F9018951F920F92B5
:1009C0000FB60F9211240BB60F922F933F934F93B4
:1009D0005F936F937F938F939F93AF93BF93EF93A7
:1009E000FF938CE093E00E943801FF91EF91BF915B
:1009F000AF919F918F917F916F915F914F913F91B7
:100A00002F910F900BBE0F900FBE0F901F90189557
:100A10001F920F920FB60F9211240BB60F922F93C5
:100A20003F934F935F936F937F938F939F93AF9376
:100A3000BF93EF93FF93E1EDF0E080818F778083A8
:100A400080EF92E00E943801FF91EF91BF91AF914A
:100A50009F918F917F916F915F914F913F912F91D6
:100A60000F900BBE0F900FBE0F901F9018951F9206
:100A70000F920FB60F9211240BB60F922F933F9344
:100A80004F935F936F937F938F939F93AF93BF9396
:100A9000EF93FF93E1EDF0E080818F7D808380E034
:100AA00093E00E943801FF91EF91BF91AF919F9128
:100AB0008F917F916F915F914F913F912F910F9007
:100AC0000BBE0F900FBE0F901F9018951F920F92A4
:100AD0000FB60F9211240BB60F922F933F934F93A3
:100AE0005F936F937F938F939F93AF93BF93EF9396
:100AF000FF9380E193E00E943801FF91EF91BF9155
:100B0000AF919F918F917F916F915F914F913F91A5
:100B10002F910F900BBE0F900FBE0F901F90189546
:100B20001F920F920FB60F9211240BB60F922F93B4
:100B30003F934F935F936F937F938F939F93AF9365
:100B4000BF93EF93FF93E1E3F1E080818F778083A0
:100B500084EF92E00E943801FF91EF91BF91AF9135
:100B60009F918F917F916F915F914F913F912F91C5
:100B70000F900BBE0F900FBE0F901F9018951F92F5
:100B80000F920FB60F9211240BB60F922F933F9333
:100B90004F935F936F937F938F939F93AF93BF9385
:100BA000EF93FF93E1E3F1E080818F7D808384E028
:100BB00093E00E943801FF91EF91BF91AF919F9117
:100BC0008F917F916F915F914F913F912F910F90F6
:100BD0000BBE0F900FBE0F901F9018951F920F9293
:100BE0000FB60F9211240BB60F922F933F934F9392
:100BF0005F936F937F938F939F93AF93BF93EF9385
:100C0000FF9384E193E00E943801FF91EF91BF913F
:100C1000AF919F918F917F916F915F914F913F9194
:100C20002F910F900BBE0F900FBE0F901F90189535
:100C30000F931F93CF93DF93C0E0D0E08E01000F9E
:100C4000111F000F111F00561D4FF80160817181A7
:100C500060FF14C06E7FE091C908F091CA088BEA6A
:100C600098E01995F8011182108280911C039091EF
:100C70001D03019790931D0380931C032196CF3190
:100C8000D105E1F6F8948091C7089091C808897F52
:100C90009093C8088093C7087894DF91CF911F91F3
:100CA0000F91089521E030E080911C0390911D0385
:100CB0001816190614F020E030E0C9010895EF92EB
:100CC000FF920F931F93CF93DF93EC01FB01008101
:100CD0001181E280F3800F31110558F0EAA5FBA5E0
:100CE00060E270E0DF91CF911F910F91FF90EF9044
:100CF0001994000F111F000F111F00561D4FF8947B
:100D0000F801828193818115F0E89F0759F0F7017E
:100D10009183808380E090E8F8019383828320E0D0
:100D200030E01FC08E859F850E94E71EEE85FF85FF
:100D30009F01285F3F4F3F872E8797838683D3830A
:100D4000C283F182E082F8013183208380911C0309
:100D500090911D03019690931D0380931C0322E73D
:100D600030E07894C901DF91CF911F910F91FF90EE
:100D7000EF9008959091C00095FFFCCF8093C6003E
:100D800080E090E008958091C00087FFFCCF8091C3
:100D9000C60008958091C80087FFFCCF8091CE00E7
:100DA00008958091D00087FFFCCF8091D6000895F0
:100DB0008091300187FFFCCF809136010895CF925A
:100DC000DF92EF92FF926B017C011092C00022E053
:100DD00030E040E050E00E94EA23205C3D4B404F71
:100DE0005F4FCA01B901A70196010E94EA23215071
:100DF00031093093C5002093C40086E08093C2007F
:100E000088E08093C10060E070E08AEB96E00E9489
:100E100030249093120980931109FF90EF90DF9096
:100E2000CF9008957F928F929F92AF92BF92CF9270
:100E3000DF92EF92FF920F931F93CF93DF93CDB783
:100E4000DEB728970FB6F894DEBF0FBECDBFFB010B
:100E50008081918112817480C680D780A284B384FE
:100E600028E0EAE0F2E0DE01119601900D922A9569
:100E7000E1F7F894880F991F21E030E02C0F3D1F17
:100E8000820F931FFC01E080F180F7011995F701B3
:100E900019958113FCCF86014601801A910AF7014A
:100EA0001995F60181936F018711F6CFF5019182B3
:100EB0008082789480E090E028960FB6F894DEBFA8
:100EC0000FBECDBFDF91CF911F910F91FF90EF909B
:100ED000DF90CF90BF90AF909F908F907F900895BC
:100EE000FC0145915491342F20E0852F90E0282B70
:100EF000392BC9010895CF92DF92EF92FF920F93A1
:100F00001F93CF93DF937C018B016A01E9014CC0F1
:100F1000069708F453C044E050E0B701CE010E94A8
:100F200027241C82C70104960E9470079E838D832C
:100F300086E0E80EF11CFA86E986F801808191814D
:100F40000697918380834B812D813E81493411F036
:100F5000453529F438872F831E821D8232C08217BF
:100F6000930760F120FF02C02F5F3F4FF886EF82AA
:100F7000E20EF31EFA86E986F80180819181821BD8
:100F8000930B918380831DC09981F6018181981311
:100F900012C09A81828198130EC09B81838198131D
:100FA0000AC020E030E013C0F801808191810097F1
:100FB00009F0AECF03C0E984FA84F6CF2FEF3FEFFC
:100FC00006C09881F60180819813F5CFDDCFC90165
:100FD000DF91CF911F910F91FF90EF90DF90CF9015
:100FE0000895EF92FF920F931F93CF93DF931F9279
:100FF0001F92CDB7DEB78C017B0144E050E0BC010D
:1010000082E192E00E941A24892B19F02FEF3FEF22
:1010100014C0C80104960E9470079A8389839701BF
:1010200047E152E0BE016F5F7F4FC80106960E9404
:101030007B0797FDEBCF20E030E0C9010F900F90C8
:10104000DF91CF911F910F91FF90EF9008952F9214
:101050003F924F925F926F927F928F929F92AF9248
:10106000BF92CF92DF92EF92FF920F931F93CF9395
:10107000DF93CDB7DEB7AE970FB6F894DEBF0FBEE5
:10108000CDBF4B016A012901BE016E5D7F4F0E94F9
:10109000F107892B09F08DC089A59AA52FA138A544
:1010A0003EA72DA7F60111821082F2011182108253
:1010B0009E01295E3F4F4CE152E0BE01635D7F4FD0
:1010C0000E947B079C0197FD76C08E8D9F8D2C8D95
:1010D0003D8D3EA72DA79E01245F3F4F41E252E088
:1010E000BE01635D7F4F0E947B0797FD62C09E013A
:1010F000295E3F4F46E252E0BE01635D7F4F8D891E
:101100009E890E947B0797FD54C0EE8CFF8C6C8CEF
:101110007D8C1FC0C7010E94700797012E5F3F4F53
:10112000F6E06F1A71088816990638F4EB88FC8887
:1011300089899A899EA78DA731C0C9010E9470072D
:101140008C01C70104960E9470075C0146E0E40E22
:10115000F11C86E068167104E8F6E8CF9E012F5F67
:101160003F4F4BE252E0BE01635D7F4FC7010E94DB
:101170007B079C0197FD0DC08E819F81892B39F0E3
:1011800028843984EA84FB8420E030E002C02FEF19
:101190003FEF2115310579F40150110917FFDECF1A
:1011A000F60131822082F201B182A08220E030E09B
:1011B00002C02FEF3FEFC901AE960FB6F894DEBF25
:1011C0000FBECDBFDF91CF911F910F91FF90EF9098
:1011D000DF90CF90BF90AF909F908F907F906F9057
:1011E0005F904F903F902F9008952F923F924F9293
:1011F0005F926F927F928F929F92AF92BF92CF92A7
:10120000DF92EF92FF920F931F93CF93DF93CDB7AF
:10121000DEB7E6970FB6F894DEBF0FBECDBF3C0138
:10122000CB012A014901BE016E5D7F4F0E94F1078B
:10123000892B09F095C029A43AA48FA198A59AAB4F
:1012400089AB9E01245F3F4F40E352E0BE016F5CDB
:101250007F4FC1010E947B078C0197FD08C08B89DD
:101260008BAB9C899CAB2D883E8800E010E001157B
:10127000110509F077C09E012F5F3F4F45E352E013
:10128000BE016F5C7F4FC1010E947B0797FD07C0C5
:1012900088858DAB99859EAB2A843B8401C08C01E7
:1012A0000115110509F05EC09E01295E3F4F4AE31A
:1012B00052E0BE016F5C7F4FC1010E947B078C0131
:1012C00097FD50C02E8C3F8C8DE2A82EB12CAC0E19
:1012D000BD1E9FE2C92ED12CCC0EDD1EEDA8FEA8AE
:1012E0000BA91CA920E030E043E852E0B201C301A1
:1012F0000E94801C8C011F938F939F928F928EA9C6
:101300008F939DA99F938CA98F939BA99F938FE304
:1013100092E09F938F930E947B240FB6F894DEBFD8
:101320000FBECDBF8016910630F460E070E084E817
:1013300092E00E94780B4DA45EA48FA498A8C101EE
:101340000E94E31EC12CD12CE12CF12C03E812E009
:101350009201A401BC01C3010E94BA1C8C0102C00D
:101360000FEF1FEFC801E6960FB6F894DEBF0FBE71
:10137000CDBFDF91CF911F910F91FF90EF90DF9044
:10138000CF90BF90AF909F908F907F906F905F9025
:101390004F903F902F9008951F920F920FB60F928B
:1013A00011242F933F938F939F93AF93BF9380917B
:1013B0001E0390911F03A0912003B091210330914F
:1013C0002603232F2D5F2D3720F40196A11DB11D7B
:1013D00005C0232F2A570296A11DB11D2093260375
:1013E00080931E0390931F03A0932003B0932103C7
:1013F0008091220390912303A0912403B0912503AF
:101400000196A11DB11D8093220390932303A09305
:101410002403B0932503BF91AF919F918F913F918A
:101420002F910F900FBE0F901F9018950F931F9341
:101430008FB7F89400911E0310911F032091200391
:10144000309121038FBFB801C9011F910F910895F9
:101450000F931F934FB7F89486B590E0A0E0B0E0EB
:10146000A89B08C00097A105B10521F480E091E098
:10147000A0E0B0E000912203109123032091240307
:10148000309125034FBF322F212F102F0027080F37
:10149000191F2A1F3B1F52E0000F111F221F331F6D
:1014A0005A95D1F7B801C9011F910F91089585B5DB
:1014B000836085BDEEE6F0E08081816080830895E1
:1014C000F894FC01248D358D40955095422353238B
:1014D000462B572B558F448F789408950E94160AF7
:1014E000CB010895CF92DF92EF92FF920F931F935B
:1014F000CF93DF9300D01F92CDB7DEB76091AB08DA
:101500007091AC088091270390912803681B790B98
:101510009E012F5F3F4FAE014D5F5F4F80E095E52D
:101520000E942708892BA1F48A818F9389818F9348
:101530008C818F938B818F938FE091E09F938F931A
:101540000E9493240F900F900F900F900F900F9088
:101550004091C7085091C8088091AB089091AC08A1
:101560002091B9083091BA086091AE086F936091EC
:10157000AD086F936091B4086F936091B3086F9357
:101580006091B2086F936091B1086F936091B00859
:101590006F936091AF086F935F934F934091C4082E
:1015A0004F934091C3084F934091270350912803D4
:1015B000BC01641B750BAB015F936F939F938F937B
:1015C0008091290390912A03A901481B590BCA0154
:1015D000959587959F938F933F932F9380E291E00A
:1015E0009F938F930E9493240091B9081091BA0899
:1015F0000E5011090FB6F894DEBF0FBECDBF5FE8E5
:10160000E52E51E0F52E65E9C62E61E0D62E18C014
:101610000817190731F4FF92EF920E9493240F905C
:101620000F90C8010E94E71E9F938F93DF92CF9285
:101630000E9493240E5F1F4F0F900F900F900F90FA
:101640008091B9089091BA089C01225F3F4F021720
:101650001307F0F28BE991E09F938F930E949324FC
:101660000091AB081091AC080C5011090F900F902D
:101670008DE9E82E81E0F82E93EAC92E91E0D92E6B
:1016800018C00817190731F4FF92EF920E949324B3
:101690000F900F90C8010E94F61E1F928F93DF9249
:1016A000CF920E9493240F5F1F4F0F900F900F90C7
:1016B0000F908091AB089091AC089C01245F3F4F44
:1016C00002171307F0F289EA91E09F938F930E942B
:1016D00093240F900F900F900F900F900F90DF9129
:1016E000CF911F910F91FF90EF90DF90CF900895D1
:1016F000EB019F938F9384EE90E09F938F930E94D2
:1017000093240F900F900F900F90209771F0898184
:101710008F9388818F9384EF90E09F938F930E94A3
:1017200093240F900F900F900F9087EF90E09F936E
:101730008F930E9493240F900F90CD2B51F089EF3F
:1017400090E09F938F930E9493240E94720A0F90BF
:101750000F90FFCF460F571F03C0FB011192BF012F
:1017600064177507D1F780E090E0089580E090E07D
:101770000895CF93DF93EC0182E790E09B8F8A8FEF
:10178000EEA9FFA9309731F0CE0119959C01009781
:1017900009F00BC08E859F85892B51F4EEA1FFA126
:1017A000CE0119959C01009729F03B8F2A8F02C02A
:1017B00020E030E0C901DF91CF910895AF92BF9250
:1017C000CF92DF92EF92FF920F931F93CF93DF930D
:1017D0008C01EB017A01CB01842B952B802B912B73
:1017E00080FF05C05B01A40EB51E68011CC0F69405
:1017F000E7945801C12CD12C0BC0CE010E94E71EEA
:10180000F501819391935F012296FFEFCF1ADF0AD2
:10181000CE14DF0491F70CC0CE010E94F61EF60133
:1018200081936F012196CA15DB05B1F70E0D1F1DBF
:10183000C801DF91CF911F910F91FF90EF90DF9042
:10184000CF90BF90AF9008950F931F93CF93DF93E6
:101850001F921F92CDB7DEB78B01C901089749834C
:101860005A830E94E71E49815A81BC01C8010E9427
:10187000DE0B80E090E00F900F90DF91CF911F91F1
:101880000F9108950F931F93CF93DF931F921F9291
:10189000CDB7DEB78A01C901089769837A830E94B0
:1018A000E71E44275527401B510B69817A810E940E
:1018B000DE0B80E090E00F900F90DF91CF911F91B1
:1018C0000F9108958F929F92AF92BF92CF92DF9225
:1018D000EF92FF920F931F93CF93DF931F921F926C
:1018E000CDB7DEB75C0162956F70673009F4B0C0A8
:1018F000A0F4DC0112968D919C911397633009F44A
:101900005DC028F46130A9F108F04AC021C06530FB
:1019100009F47BC008F08EC067C06B3009F434C195
:1019200050F4FC01693009F4D5C0848195816A3096
:1019300008F00FC1ADC06D3009F455C108F43DC1C8
:101940006E3009F47BC16F3011F00C948B1B97C182
:10195000D5012D913C911197280F391F11963C9379
:101960002E9313961C921E92129720E030E00C9456
:10197000901BF5016481758146815781880F991FFD
:1019800026853785280F391F35832483778366831F
:10199000518740871382128220E030E00C94901B24
:1019A000A4E0880F991FAA95E1F7D50113969C939F
:1019B0008E93129720E030E00C94901B880F991FB3
:1019C000F50124813581820F931F0E94E71ED50106
:1019D00015969C938E93149713961C921E921297B1
:1019E00020E030E00C94901BF50144815581268164
:1019F0003781958384835783468331872087138279
:101A0000128220E030E00C94901B880F991FD501C2
:101A100014962D913C911597280F391F15963C93DC
:101A20002E93149713961C921E92129720E030E08A
:101A30000C94901B8095909574E0880F991F7A956F
:101A4000E1F7F5019383828320E030E00C94901B52
:101A5000DC0112968D919C911397880F991F1E9609
:101A60002D913C911F97820F931F0E94E71EF50155
:101A700044815581268137819583848357834683AA
:101A8000318720871382128220E030E00C94901B73
:101A9000228133818C01020F131F202731278027D9
:101AA00091272823392337FD09C0F50115830483C5
:101AB0001382128220E030E00C94901B02A4F3A564
:101AC000E02D64E070E0C50119959C01009769F371
:101AD0000C94901B2685378580819181F901389778
:101AE00080839183D50114964D915C911597D9010E
:101AF00016974D935C93D50116964D915C9117976F
:101B0000D90114974D935C93D50118964D915C9132
:101B10001997D90112974D935C93D5011F96FC93A9
:101B2000EE931E9714968C93149715969C93159785
:101B300012962D913C911397280F391F11963C93C3
:101B40002E9313961C921E92129720E030E00C9474
:101B5000901B892B51F4F501808191812281338181
:101B6000820F931F9183808308C080859185268191
:101B700037813583248397838683F501138212820C
:101B800020E030E00C94901BDC0112962D913C91EA
:101B90001397220F331F1E968D919C911F97820FD2
:101BA000931F1F969C938E931E9713961C921E92C2
:101BB000129720E030E00C94901BFC0124813581C9
:101BC000828193812817390729F481E090E0958379
:101BD000848302C015821482F5011382128220E0F0
:101BE00030E00C94901BDC0114962D913C911597DC
:101BF00012968D919C911397880F991F1E96ED91C7
:101C0000FC911F97E80FF91F3183208313961C92D4
:101C10001E92129718968D919C91199716962D9158
:101C20003C91179715963C932E93149717969C9377
:101C30008E93169720E030E00C94901BFC01868177
:101C400097810280F381E02DEE0FFF1FD5011496DE
:101C50002D913C911597E20FF31F9183808313968A
:101C60001C921E92129718968D919C911997159619
:101C70009C938E93149720E030E00C94901BFC0111
:101C800082819381138212828733910509F4CAC736
:101C90000CF0D4C08A31910509F458C40CF067C027
:101CA0008A30910509F4C2C27CF58430910509F4AB
:101CB00030C29CF48130910509F4D8C12CF4892BF1
:101CC00009F4C7C10C948E1B8230910509F4D9C167
:101CD000039711F00C948E1BE4C18730910509F431
:101CE00061C24CF48530910509F424C2069711F0C5
:101CF0000C948E1B45C28830910509F465C2099782
:101D000011F00C948E1B76C28031910509F42EC31C
:101D1000BCF48D30910509F4DDC24CF48B30910593
:101D200009F496C20C9711F00C948E1BA7C28E304A
:101D3000910509F4EDC20F9711F00C948E1BFEC2B1
:101D40008531910509F48AC34CF48331910509F476
:101D500017C3449711F00C948E1B3BC38631910539
:101D600009F48FC3499711F00C948E1BB5C38732C9
:101D7000910509F495C57CF58132910509F46FC48C
:101D80009CF48D31910509F411C42CF44B9711F09A
:101D90000C948E1BFEC38F31910509F420C48097EB
:101DA00011F00C948E1B45C48432910509F4B7C41C
:101DB0004CF48232910509F48FC4839711F00C948E
:101DC0008E1B9EC48532910509F4B2C4869711F02A
:101DD0000C948E1B37C58033910509F47FC6BCF483
:101DE0008C32910509F4CCC54CF48832910509F484
:101DF00077C58B9711F00C948E1B8CC58E32910594
:101E000009F4F1C58F9711F00C948E1B32C6833301
:101E1000910509F4A3C64CF48133910509F481C6F8
:101E2000C29711F00C948E1B90C68533910509F46E
:101E3000A5C6C69711F00C948E1BCAC683359105B2
:101E400011F40C94E1180CF074C08634910511F46F
:101E50000C9437176CF58034910509F470C77CF445
:101E60008933910509F429C70CF400C78B33910518
:101E700009F446C7CC9711F00C948E1B54C78334D9
:101E8000910509F49DC754F48134910509F470C794
:101E90008234910511F00C948E1B83C78434910514
:101EA00009F499C78534910511F00C948E1BC1C7B4
:101EB0008C34910511F40C94D417ECF48934910509
:101EC00011F40C94A9175CF48734910509F4DFC769
:101ED0008834910511F00C948E1B0C947F178A3472
:101EE000910511F40C94B9178B34910511F00C94F1
:101EF0008E1B0C94C5178F34910511F40C94351872
:101F000064F48D34910511F40C94F8178E34910516
:101F100011F00C948E1B0C9423188135910511F44B
:101F20000C9462188235910511F00C948E1B0C9460
:101F3000D118853A910511F40C946C1A0CF042C03A
:101F40008937910511F40C94BC19F4F48A35910584
:101F500011F40C943E1964F48535910511F40C9438
:101F6000F5188635910511F00C948E1B0C940F1901
:101F70008036910511F40C944A198136910511F0BF
:101F80000C948E1B0C9483198C37910511F40C94CE
:101F9000181A64F48A37910511F40C94C8198B3718
:101FA000910511F00C948E1B0C94D4198138910575
:101FB00011F40C944B1A823A910511F00C948E1B7B
:101FC0000C945F1A8C3E910511F40C94141BF4F4DC
:101FD000803E910511F40C94871A64F48D3A9105B2
:101FE00011F40C94781A8E3A910511F00C948E1B12
:101FF0000C947F1A883E910511F40C94971A893E2F
:10200000910511F00C948E1B0C94C91A8533F2E0E3
:102010009F0711F40C944F1B5CF48D3F910511F454
:102020000C94411B8E3F910511F00C948E1B0DC03A
:10203000863342E0940711F40C94671B8733924077
:1020400011F00C948E1B0C94731B23E530E00C9460
:10205000901BF50184819581268137813583248306
:102060009783868320E030E00C94901B84819581D7
:102070000E94F61EF5018483158220E030E00C9466
:10208000901B208531858481958146815781840FFD
:10209000951F958384833783268320E030E00C945A
:1020A000901BF5018481958102960E94E71ED5015F
:1020B00014960D911C9115970197C9F4F80113829C
:1020C000128214968D919C9115970E94E71ED5015E
:1020D00011969C938E9314968D919C9115971F96B3
:1020E0009C938E931E9720E030E00C94901BC801C7
:1020F00002960E94E71E0197F80193838283D5011F
:102100009696ED91FC919797C50119959C010C94B9
:10211000901BF50120853185868197814481558109
:10212000841B950B958384833783268320E030E0DE
:102130000C94901B26813781848195818901080F39
:10214000191F80279127202731278223932397FD6A
:102150000BC0F50180859185158304839783868361
:1021600020E030E00C94901B02A4F3A5E02D64E085
:1021700070E0C50119959C01009759F30C94901BD0
:10218000F501248135818081918195838483318318
:1021900020830684F785E02D9183808320E030E062
:1021A0000C94901B2481358140855185668177810F
:1021B0009AEAE92E9BE0F92E04E21CE0C5010E9498
:1021C000F3229C010C94901BF5018085918564811C
:1021D000758146815781649F9001659F300D749F82
:1021E000300D1124358324839783868320E030E0EB
:1021F0000C94901B4681578124813581808591857F
:102200002417350754F421E030E035832483978385
:10221000868320E030E00C94901BF5011582148237
:102220009783868320E030E00C94901B4085518595
:1022300026813781220F331F84819581820F931F5E
:10224000958384835783468320E030E00C94901B71
:10225000F5012481358131952195310940855185DC
:102260006681778106EBE02E0BE0F02E02E41CE0A5
:10227000C5010E94F3229C010C94901B268137819A
:1022800044815581C901841B950B822793272427FC
:1022900035278223932397FD11C0F50120853185D1
:1022A0008681978144815581841B950B9583848316
:1022B0003783268320E030E00C94901B02A4F3A522
:1022C000E02D64E070E0C50119959C01009729F3A9
:1022D0000C94901BD5010480F581E02D32978D91EF
:1022E0009C91119716962D913C911797820F931FF1
:1022F0009183808314966D917C9115975E96ED91F4
:10230000FC915F97C501199520E030E00C94901B7B
:10231000F50146855785668177818481DA018C9342
:1023200016EBE12E1BE0F12E02E41CE02FEF3FEF55
:10233000C5010E94F3229C010C94901BF501468577
:1023400057856681778184819581DA018D939C938D
:10235000B6EBEB2EBBE0FB2E02E41CE02EEF3FEFD2
:10236000C5010E94F3229C010C94901B02A4F3A5CA
:10237000E02D61E070E0C50119959C010C94901B63
:10238000F501268137818481958128173907A8F4C2
:10239000D50118968D919C91199716962D913C9187
:1023A000179715963C932E93149717969C938E939C
:1023B000169720E030E00C94901B02A4F3A5E02DCA
:1023C00062E070E0C50119959C01009709F30C9437
:1023D000901BF5014481558186819781969587955B
:1023E000E65AFF4F208131812115310541F0F50179
:1023F000E45AFF4F608171818617970760F0D5011D
:102400009A96ED91FC919B9760E870E0C501199553
:102410009C010C94901B6AE0689FF001699FF00D8D
:102420001124E20FF31F80819181009779F08417C6
:10243000950781F0D5019A96ED91FC919B9760E804
:1024400070E0C50119959C010C94901B20E030E0D0
:102450000C94901B20E030E00C94901BD501068476
:10246000F785E02D32978D919C9111979183808310
:102470009696ED91FC919797C50119959C010C9446
:10248000901BF50146815781848195818A01080F4F
:10249000191F2085318521703327020F131F8027D4
:1024A0009127402751278423952397FD09C0D50103
:1024B00015961C930E93149720E030E00C94901B1B
:1024C00002A4F3A5E02D64E070E0C50119959C011C
:1024D000009769F30C94901BF50111861086848196
:1024E0009581892B41F586819781892B21F580E2A1
:1024F00090E09187808720E030E00C94901B880F5B
:10250000991FD50117969C938E93169714962D912B
:102510003C91159737FF05C0816017969C938E9369
:102520001697220F331FF50135832483808591850B
:10253000019691878087D50116968D919C9117976A
:1025400097FFDDCF20E030E00C94901BF501608513
:102550007185CB01A0E0B0E077276627068117815F
:1025600020E030E0602B712B822B932B248135816E
:1025700040E050E00E94C823D50117967C936E93EB
:10258000169715963C932E93149720E030E00C9408
:10259000901BF5018081918124813581820F931FE9
:1025A0009583848320E030E00C94901B2481358156
:1025B0008681978137FF0AC02FEF3FEF378326834D
:1025C0009187808720E030E00C94901BF501178202
:1025D00016829187808720E030E00C94901B8481E4
:1025E00095810097C1F0019689F0F501208531852C
:1025F00086819781648175810E94B4239583848349
:102600003783268320E030E00C94901B86819781ED
:102610008115904851F7D5019A96ED91FC919B97C1
:1026200064E070E0C50119959C010097F1F20C94EB
:10263000901BF501868597850E94E71ED5011196AE
:102640009C938E931E968D919C911F9708961F9632
:102650009C938E931E9720E030E00C94901BF50124
:102660008681978102960E94E71ED50116960D91EC
:102670001C911797029724F1C8010E94E71E01964A
:10268000F80191838083D50116960D911C911797BF
:10269000C80102960E94E71E0197F8019383828386
:1026A000D5018D919C91119714962D913C91159780
:1026B000821B930B8D939C9320E030E00C94901B35
:1026C000C80102960E94E71E0197F8019383828356
:1026D00020E030E00C94901B04A8F5A9E02DC50182
:1026E0001995F5014481558126813781958384832D
:1026F000578346833187208720E030E00C94901B7D
:1027000081E090E024813581232B11F080E090E07E
:10271000F5019583848320E030E00C94901B848144
:10272000992787FD90959583848320E030E0F8C752
:10273000F501668577856E5F7F4F8481958197FD72
:102740002CC0EE5AFF4F2081318121153105B9F09F
:10275000F501EC5AFF4F408151818417950778F4B9
:10276000FC01EE0FFF1FEE0FFF1FE20FF31F0190A2
:10277000F081E02D309719F0CB0119954EC0D501AD
:102780009A96ED91FC919B9760E270E0C5011995D6
:102790009C01009709F441C0C3C7F501EA5AFF4FF5
:1027A000208131812115310509F180959095F50140
:1027B000E85AFF4F4081518184179507B8F4FC0116
:1027C000EE0FFF1FE20FF31F0190F081E02D309715
:1027D00069F0C50119959C018236910521F0823777
:1027E000910591F00DC020E030E09AC7D5019A968E
:1027F000ED91FC919B9760E270E0C50119959C01F9
:102800002115310551F08CC7D5019696ED91FC91BB
:102810009797C50119959C0183C7F5018685978512
:102820000E94E71ED50111969C938E931E968D9162
:102830009C911F9708961F969C938E931E9720E05D
:1028400030E06EC7F50106811781C80102960E942B
:10285000E71E0197D80113969C938E931297892BAC
:1028600009F470CEF501E680F780F4E0EF0EF11C7C
:10287000C8010E94E71E4C01C7010E94E71E880D97
:10288000991DD8018D939C93F501808191812481BC
:102890003581821B930B9183808320E030E040C719
:1028A00006811781C80102960E94E71E0197F80170
:1028B00093838283892B09F445CEC8010E94E71EC9
:1028C0000197D8018D939C93F5018081918124819A
:1028D0003581821B930B9183808320E030E020C7F9
:1028E000D50166857785FB0132978D919C91119773
:1028F000918380835E96ED91FC915F97C501199558
:10290000F5011786168606A0F7A1E02DC5011995D9
:102910009C0106C704A8F5A9E02DC5011995F5018C
:1029200024813581AC01421B530B141615062CF182
:1029300066857785FB013C9731832083FB013297C5
:10294000D5014D915C911197518340839E96ED91F5
:10295000FC919F97AC01C5011995D5011E96ED918B
:10296000FC911F973897118210829696ED91FC91F9
:102970009797C50119959C01D3C620E030E0D0C6D9
:10298000F50184819581009709F10196B9F0D5018F
:1029900018962D913C91199716968D919C911797A9
:1029A00014966D917C9115970E94B423F50175835F
:1029B00064833783268320E030E0B2C6D5011696C3
:1029C0008D919C9117978115904809F7D5019A969A
:1029D000ED91FC919B9764E070E0C50119959C0115
:1029E0000097A9F29DC6F50104811581E084F18468
:1029F00086819781892B09F432C0868597850A974D
:102A00000E94E71E8130B0E89B07F1F4F50186854E
:102A100097850C970E94E71EE81AF90A1E141F04F6
:102A2000F4F0D5011E968D919C911F970E94E71E90
:102A30000196A9F4D5011E96ED91FC911F97118383
:102A4000008381E090E00DC08230904841F0F501B4
:102A50006685778500A8F1A9E02DC501199580E06C
:102A600090E0D50115969C938E93149720E030E06A
:102A700057C6F50130852185E480F58086819781F0
:102A8000892B09F413C0032F122FC8010E94E71EDF
:102A90009C01D5011E968D919C911F97AC014160C0
:102AA0002417350731F4F8011182108280E090E09C
:102AB0000FC0232BD9F30E94E71E0196B9F7D50169
:102AC0001E96ED91FC911F97F182E08281E090E0EB
:102AD000F5019583848320E030E022C604811581CE
:102AE00086819781892B19F480E090E010C0F50170
:102AF000868597850E94E71E0196B1F7D5011E963F
:102B0000ED91FC911F971183008381E090E0F50126
:102B100020853185958384833783268320E030E0C8
:102B2000FFC5F501A681B781248135810E94A823C4
:102B300020853185620F731F811D911D758364830C
:102B40009783868320E030E0EBC584819581809572
:102B500090959583848320E030E0E2C5F5012085DF
:102B60003185848195814681578184279527958376
:102B700084833783268320E030E0D2C58085918529
:102B8000468157812481358120323105D0F4A0E07F
:102B9000B0E0DC019927882760E070E0842B952B5A
:102BA000A62BB72B04C0B695A795979587952A9520
:102BB000D2F7F50195838483B783A68320E030E0C4
:102BC000AFC5158214821782168220E030E0A8C5B6
:102BD000F501408551858681978124813581203298
:102BE0003105C8F460E070E0BA0155274427A0E041
:102BF000B0E0482B592B6A2B7B2B04C0440F551F88
:102C0000661F771F2A95D2F755834483778366839F
:102C100020E030E085C5158214821782168220E0FC
:102C200030E07EC5F5014681578164817581CA0116
:102C3000860F971F2085318521703327280F391F74
:102C400035832483809590959B01242B352B8223FB
:102C5000932346235723842B952B892F881F88275E
:102C6000881F8683178220E030E05AC5268137818D
:102C7000448155818901041B150B808591858170E4
:102C80009927081B190BC80182279327242735276A
:102C90008223932397FD06C0F5011583048320E06A
:102CA00030E03EC502A4F3A5E02D64E070E0C5016C
:102CB00019959C01009781F333C5F50184819581B5
:102CC00006970E94E71EDC018A159B0559F0F50165
:102CD000448155819096ED91FC919197B50119959C
:102CE0009C011EC5D50114966D917C9115975E9639
:102CF000ED91FC915F97C501199520E030E010C57A
:102D0000D5010480F581E02D16968C91169780836D
:102D100018968D919C91199715969C938E93149764
:102D200020E030E0FDC4F50186859785248135815A
:102D3000378726879583848320E030E0F1C424819F
:102D400035812031310540F48681978102C0969506
:102D500087952A95E2F702C080E090E0F501208592
:102D60003185958384833783268320E030E0D8C47F
:102D7000248135812031310540F48681978102C05C
:102D8000880F991F2A95E2F702C080E090E0F501D4
:102D900020853185958384833783268320E030E046
:102DA000BFC4248135818681978140E050E85583F6
:102DB0004483378326839187808720E030E0B0C446
:102DC0000684F785E02D389781E090E89183808331
:102DD00020E030E0A5C4F501868597852FEF3FEF11
:102DE000DC012D933C9308970E94E71E83309048A6
:102DF000E9F0F50186859785FC01389722E030E8F7
:102E000031832083FC013697B182A082FC01329786
:102E1000D5012D913C911197318320839696ED91A8
:102E2000FC919797C50119959C017AC420E030E088
:102E300077C4F501868597850E94E71ED5018F3FEF
:102E4000FFEF9F0751F02D913C911197280F391FEB
:102E50002D933C9320E030E063C49A96ED91FC9171
:102E60009B9760E170E0C50119959C0159C4F5017B
:102E700020853185848195814681578184239523DE
:102E8000958384833783268320E030E049C4E4803F
:102E9000F58006811781E114F10439F1F501868589
:102EA00097850A970E94E71ED5011E962D913C91A9
:102EB0001F978230904841F4F9013A9781E090E8F9
:102EC00091838083F9010EC0C9010C970E94E71E0F
:102ED000801B910B1816190644F4D5011E96ED912E
:102EE000FC911F973C9711830083F50180859185A4
:102EF000F582E4829783868320E030E011C49681D6
:102F00008781E480F580E114F104C9F0092F182FBE
:102F1000C8010E94E71EF50126853785A901416099
:102F2000009721F4D8014D935C9309C0841795074D
:102F300031F0F901389783E090E891838083F501BF
:102F400080859185F582E4829783868320E030E056
:102F5000E7C384819581892B09F4F4CA0684F78537
:102F6000E02D389783E090E89183808320E030E083
:102F7000D7C3F5014481558160857185868197812C
:102F80000E94DE0B20E030E0CBC3208531858481B8
:102F9000958146815781842B952B95838483378334
:102FA000268320E030E0BCC3F50124813581868191
:102FB000978137FF0EC0019671F4D50118968D9157
:102FC0009C91199717969C938E93169720E030E06A
:102FD000A7C3892B91F3D5019A96ED91FC919B970C
:102FE00062E070E0C50119959C01009731F398C328
:102FF000F501868197810097C9F0248135812817D2
:103000003907A0F0D50118968D919C9119971696C5
:103010002D913C91179715963C932E9314971796E4
:103020009C938E93169720E030E07AC3D5019A9650
:10303000ED91FC919B9762E070E0C50119959C01B0
:10304000009701F36DC3F50186859785FC013897DC
:1030500021E030E831832083FC013A9722E030E818
:103060003183208320E030E05BC3D5014681578166
:1030700024813581BA01621B730B80859185817033
:103080009927681B790B75836483C9018423952371
:10309000F901E42BF52B8E1B9F0B019786239723B9
:1030A0004095509542235323842B952B892F881FBD
:1030B0008827881F16968C93169717961C9220E0E7
:1030C00030E02EC304A8F5A9E02DC50119958C01A7
:1030D000F501868597852FEF3FEFDC012D933C931B
:1030E00008970E94E71EF5012685378583309048B2
:1030F00039F4F9013C971183008320E030E010C3DC
:10310000C9010A970E94E71E8230904869F1D501F3
:103110001E968D919C911F970C970E94E71E980117
:10312000281B390BF50166857785121613066CF49A
:10313000FB01389783E090E891838083FB013C9703
:103140001183008320E030E0EBC29C012F5F3F4FF2
:10315000FB013C9731832083D5019E96ED91FC9134
:103160009F97A801C5011995F50186859785FC01F2
:10317000389722E030E831832083FC013697B18212
:10318000A082FC013297D5012D913C91119731839A
:1031900020839696ED91FC919797C50119959C0116
:1031A000BFC2F50120853185848195814681578193
:1031B000840F951F958384833783268320E030E036
:1031C000AFC2808591856481758146815781649FF6
:1031D0009001659F300D749F300D11243583248339
:1031E0009783868320E030E09BC2F501808D918D2E
:1031F000892B91F00684F785E02D3297D5018D91CA
:103200009C911197918380839696ED91FC9197976D
:10321000C50119959C0184C220E030E081C2F5010E
:10322000868197812481358182179307D4F4319563
:103230002195310982179307A4F0D50118968D9135
:103240009C91199716962D913C91179715963C9342
:103250002E93149717969C938E93169720E030E048
:103260005FC2D5019A96ED91FC919B9762E070E068
:10327000C50119959C01009701F352C2F5018681A1
:10328000978124813581378326839187808720E049
:1032900030E046C2D5018681978196958795F501E4
:1032A000E65AFF4F208131812115310509F1F501E1
:1032B000E45AFF4F4081518184179507C8F44AE0D2
:1032C000489FF001499FF00D1124E20FF31F028087
:1032D000F381E02D309761F018964D915C9119972C
:1032E00014966D917C911597C50119959C0118C292
:1032F000D5019A96ED91FC919B9760E870E0C5012D
:1033000019959C010DC2F501868197819695879547
:10331000E65AFF4F208131812115310511F1F50168
:10332000E45AFF4F4081518184179507D0F44AE059
:10333000489FF001499FF00D1124E20FF31F048014
:10334000F581E02D309769F0D50118964D915C918B
:10335000199714966D917C911597C50119959C014B
:10336000DFC1D5019A96ED91FC919B9760E870E0E2
:10337000C50119959C01D4C1F501808591852681EF
:103380003781358324839783868320E030E0C8C16A
:103390000480F581E02D81E090E0918380831382A9
:1033A000128220E030E0BCC1F50104811581C80122
:1033B0000E94E71E8130910531F4D8011D921C92C4
:1033C00020E030E0ADC1F50126853785F90134975D
:1033D00011821082F9013697B182A082F9013297E9
:1033E000D5014D915C9151834083892B31F4F801D3
:1033F000208331832283338312C0C80102960E9446
:10340000E71ED5011E962D913C911F970497FC0154
:1034100031832083D80113963C932E931297D501C4
:103420009696ED91FC919797C50119959C0178C1ED
:10343000F501E480F580C7010E94E71E8C0100972A
:1034400041F481E090E0D7018D939C9320E030E03F
:1034500067C104970E94E71EF70191838083C8012A
:1034600006970E94E71EDC018A159B0549F090969D
:10347000ED91FC919197A801B50119959C0150C15E
:10348000D5015E96ED91FC915F97B801C501199544
:1034900020E030E045C1F501408551852681378126
:1034A000220F331F220F331F84819581820F931FB8
:1034B000958384835783468320E030E031C12481A3
:1034C000358186819781158214823783268391877F
:1034D000808720E030E024C1F50180859185268138
:1034E0003781358324839783868320E030E018C1B9
:1034F000808591859387828720E030E011C1F501B6
:10350000828593859187808720E030E009C184819E
:103510009581892B49F402A4F3A5E02D61E070E0C8
:10352000C50119959C01FCC020E030E0F9C0F5010F
:10353000E480F5808701C8010E94E71E892B31F5E0
:10354000D5011E962D913C911F97F901389782E085
:1035500090E891838083F9013697B182A082F901C6
:103560003497E082F182F90132978D919C91119705
:10357000918380832160F801318320839696ED91B9
:10358000FC919797C50119959C01CAC020E030E0D5
:10359000C7C08680978024813581408551859AEA0D
:1035A000C92E9BE0D92E64E2E62E6CE0F62E8E0149
:1035B0000F5F1F4FB401C5010E9442229C011816E3
:1035C00019060CF4ADC0009759F0D5019A96ED910B
:1035D000FC919B9760E470E0C50119959C01A0C027
:1035E00089819A8181309105D9F4F50166857785C5
:1035F000FB013297D5018D919C9111979183808326
:103600005E96ED91FC915F97C5011995F5011786BE
:10361000168606A0F7A1E02DC50119959C0180C072
:10362000D4018D939C937CC0F501E480F580C701A3
:103630000E94E71E8130910509F1D7011D921C926D
:103640008C010E7FC80106970E94E71EDC018A15D7
:103650009B0549F09096ED91FC919197A801B501D9
:1036600019959C015DC0D5015E96ED91FC915F9727
:10367000B801C501199520E030E052C020E030E0EB
:103680004FC0F5012481358186819781158214828E
:10369000378326839187808720E030E041C0D501C1
:1036A00014962D913C91159716968D919C91179794
:1036B00015961C921E92149717963C932E9316976C
:1036C00019969C938E93189720E030E029C0F5015D
:1036D00080859185268137813583248397838683EE
:1036E00020E030E01DC0D50114962D913C91159736
:1036F00016968D919C91179715961C921E92149771
:1037000017963C932E93169719969C938E93189721
:1037100020E030E005C029E430E002C029E430E0D8
:10372000C9010F900F90DF91CF911F910F91FF90E2
:10373000EF90DF90CF90BF90AF909F908F900895C3
:10374000FC01842B952B80FF03C04E0F5F1F18C018
:10375000CA0133E0969587953A95E1F7892BA9F34D
:103760007727962F8827862B972B56954795DF012D
:1037700002C08D939D9341505109D8F704C06193C5
:10378000E417F507E1F7CF010895FC0111821082DB
:103790001382128280E090E00895FC01E25AFF4F0C
:1037A0000190F081E02D208131818217930709F487
:1037B00008C0F901E05AFF4F2081318128173907ED
:1037C000C1F7DC01A05ABF4F2D913C91318320837A
:1037D000FC01E25AFF4F11821082FC01E05AFF4FB8
:1037E000118210820895FC0189E690E0938F828F08
:1037F000118E108E158E148E1382128215821482F1
:10380000178216821186108617861686118A108AEC
:10381000138A128A158A148A08950F931F93CF93DF
:10382000DF938C01EB01CB010E94F31B1D861C86EC
:103830001DAA1CAA19A618A61FAA1EAAFE01EE5AA6
:10384000FF4F11821082FE01EC5AFF4F118210824D
:10385000FE01EA5AFF4F11821082FE01E85AFF4F23
:1038600011821082FE01E65AFF4F11821082FE0182
:10387000E45AFF4F11821082FE01E25AFF4F11837A
:103880000083D8018D919C911197892B19F4CD93C8
:10389000DC9309C0D8011296ED91FC911397E05A80
:1038A000FF4FD183C083F801D383C283FE01E05A66
:1038B000FF4F11821082CE01DF91CF911F910F91A6
:1038C0000C9449210F931F934F5F5F4F81E090E06D
:1038D0000115110511F480E090E0480F591F4430A4
:1038E000510514F444E050E04F5F5F4F420F531F07
:1038F000400F511F4B5F5F4FCA011F910F910895F9
:10390000AF92BF92CF92DF92EF92FF920F931F93ED
:10391000F60181E0E114F10409F480E02F5F3F4FEC
:10392000280F311D2430310514F424E030E0020F5B
:10393000131F0B5F1F4F000F111F060F171F11835F
:103940000083811102C000E010E0D5010D931C93AB
:1039500020813181261B370B359527952E0D3F1D74
:10396000C9011F910F91FF90EF90DF90CF90BF9012
:10397000AF9008958F929F92AF92BF92CF92DF92B5
:10398000EF92FF920F931F93CF93DF93FC0189E097
:10399000E816F1040CF093C0DF01A05CBF4FED927C
:1039A000FC9246016F01E80180E090E019C0B990F7
:1039B0008F01080F191FD801D896BC92B2E0CB0E28
:1039C000D11CA6E4BA1609F47DC0D401AD90BD9017
:1039D0004D018601005C1F4FD801AD92BC9201964B
:1039E0008E159F0524F371836083DA011297B787E0
:1039F000A6878FE28C93A685B7858EEF11968C9360
:103A0000BFEFEB1AFB0A81E090E02115310511F4BC
:103A100080E090E0A701480F591F4430510574F42D
:103A200084E090E0841B950B880F991F468557858D
:103A3000481B590B5787468744E050E02115310554
:103A400039F0A685B7851297B787A6872D933C9343
:103A5000DF01A05CBF4F6D917C91CB010197660F98
:103A6000771F6E0F7F1F20E030E019C0DF01A80F25
:103A7000B91FD896AC91A63479F0A685B785129770
:103A8000B787A687EB01C20FD31FC05CDF4F099039
:103A9000D881C02DCD93DC9301972250310997FF37
:103AA000E5CFA685B7851297B787A687440F551F20
:103AB0004A0F5B1F4D935C9320E030E005C02FEF71
:103AC0003FEF02C02EEF3FEFC901DF91CF911F9171
:103AD0000F91FF90EF90DF90CF90BF90AF909F90AD
:103AE0008F9008952F923F924F925F926F927F92A4
:103AF0008F929F92AF92BF92CF92DF92EF92FF92FE
:103B00000F931F93CF93DF9300D01F92CDB7DEB7F3
:103B10005C016C01E12CF12C1C0120E4220E311C13
:103B200044244394512C6CC0F501EE0DFF1D80AD73
:103B3000813219F08F3309F05DC0F601EE5BFF4F63
:103B400080809180C4010E94E71E3C018E7F9C838F
:103B50008B83009709F44BC006970E94E71E8C01E7
:103B60008B819C81089760FE1CC00E94E71E8130FB
:103B7000A0E89A0771F082309048C9F5D801909674
:103B8000ED91FC9191974B815C8160E070E0C80100
:103B90001995EB81FC81389783E090E891838083CD
:103BA00026C00E94E71E382F292F8B819C81049705
:103BB0002A8339830E94E71E2A8139811816190643
:103BC00064F0D8019096ED91FC9191974B815C81C6
:103BD00060E070E0C80119950AC0E32FF22F8E0F44
:103BE0009F1F01C01192E817F907E1F7EACFF4012E
:103BF00051824082FFEFEF1AFF0A22E0C20ED11C71
:103C0000D1018D919C91E816F9060CF48DCF0F909F
:103C10000F900F900F90DF91CF911F910F91FF9018
:103C2000EF90DF90CF90BF90AF909F908F907F905C
:103C30006F905F904F903F902F9008958F929F923A
:103C4000AF92BF92CF92DF92EF92FF920F931F93AA
:103C5000CF93DF936C018B01EA01CC0FDD1FC60F00
:103C6000D71FC617D70720F4812F8E01C62FD82F54
:103C70004601E12CF12C560180E4A80EB11C1BC0BA
:103C8000F601EE0DFF1D80AD813211F08F3369F426
:103C9000F401EE5BFF4F808191810E94E71E801747
:103CA000910718F0C817D90778F4EFEFEE1AFE0A5B
:103CB000F2E08F0E911CF50180819181E816F906E2
:103CC000FCF220E030E002C021E030E0C901DF91E9
:103CD000CF911F910F91FF90EF90DF90CF90BF9009
:103CE000AF909F908F900895CF93DF93EC018881E0
:103CF00099810E94F61E288139812F5F3F4F3983B9
:103D00002883982F9F702A813B81292B3B832A830C
:103D1000DF91CF9108950C94620C0F931F93CF9372
:103D2000DF93EC018B01888199810E94F61E288126
:103D300039812F5F3F4F39832883982F9F702A81C5
:103D40003B81292B3B832A83682FCE010E94620C82
:103D50009C010250110911F0009729F33B8F2A8F23
:103D6000C901DF91CF911F910F910895CF93DF93F8
:103D7000EC010E94B90B009739F461E070E0CE01CC
:103D8000DF91CF910C948D1EDF91CF9108950F9309
:103D90001F93CF93DF93EC018B010E94B90B9C0121
:103DA000009759F4B801660F771FCE010E948D1E4F
:103DB0009C01009711F424E730E0C901DF91CF9115
:103DC0001F910F9108959C013058C9010895FC017D
:103DD000E11580E8F80728F0F05825913491C901E1
:103DE00008958081918108950C94E71EFC0181154E
:103DF000904818F0F05884910895808108958115B5
:103E000020E8920750F09058FC014591559165913A
:103E10007491342F252FCB010BC0FC01608171817F
:103E2000882777FD8095982F0E946D23362F272FA6
:103E3000F9016F2F722F0895811520E8920748F03D
:103E40009058FC0145915591659174919A01CB016F
:103E50000AC0FC0160817181882777FD8095982FC9
:103E60000E946D239B01622F732F0895FC01DB01DB
:103E700014971D921C9280899189892B19F4718B5A
:103E8000608B05C0A289B38914976D937C93738B63
:103E9000628B08950F931F93CF93DF93EC018B01F7
:103EA000EE8DFF8DBA0119950115110559F02C857C
:103EB0003D85F80184859585281739071CF420E78E
:103EC00030E002C020E030E0C901DF91CF911F91C6
:103ED0000F910895FC01DA0114971D921C928089BC
:103EE0009189892B19F4718B608B05C0A289B389E4
:103EF00014976D937C93538B428B0895DC019496B9
:103F0000ED91FC91959740E050E061E070E01994EC
:103F1000FC01248D358D4095509542235323462B2B
:103F2000572B558F448F0895FC01208D318D262B02
:103F3000372B318F208F85E490E008956F927F9228
:103F40008F929F92AF92BF92CF92DF92EF92FF92A9
:103F50000F931F93CF93DF93EC016B01EC88FD88E7
:103F60008E899F89E114F10409F456C0861B970BD2
:103F7000181619060CF450C0AA24A39480E8B82E91
:103F800093E0892E90E8992E37012AE0621A710891
:103F9000C3010E94E71E8C01F301B182A082F701E8
:103FA0003C97D182C0823701F8E06F1A7108C301D3
:103FB0000E94E71E8330904841F0F3019182808295
:103FC000EE8DFF8DB701CE0119950115110519F47C
:103FD0001D8A1C8A21C0C8010C970E94E71E780127
:103FE0009C012C193D091216130674F61D8B0C8BBF
:103FF0009F8B8E8BE8A5F9A5CE01DF91CF911F9104
:104000000F91FF90EF90DF90CF90BF90AF909F9077
:104010008F907F906F901994DF91CF911F910F91A6
:10402000FF90EF90DF90CF90BF90AF909F908F90D8
:104030007F906F900895EF92FF920F931F93CF930D
:10404000DF93EC018B01EC88FD88E616F70691F40E
:10405000CB010A970E94E71E9D8B8C8B009731F154
:104060000C970E94E71E9F8B8E8BE8A5F9A5CE01C9
:1040700019951CC0E114F104C9F0C7010A970E9408
:10408000E71E11C0C017D10749F4C8010A970E9462
:10409000E71EF7013A979183808308C0CE010A9703
:1040A0000E94E71E7E01EC01009761F7F8013A9744
:1040B00082E090E891838083DF91CF911F910F91EF
:1040C000FF90EF900895CF92DF92EF92FF920F93BF
:1040D0001F93CF93DF93DC018B0169015496ED9020
:1040E000FC905597E114F104A1F455967C936E93DE
:1040F000549757963C932E935697FB0132978D9188
:104100009C91119791838083FB013A9711821082D1
:1041100015C056968D919C915797821B930B18163C
:104120001906D4F4FB013A97F182E08255967C930C
:104130006E93549757963C932E9356979896ED917D
:10414000FC919997CD01DF91CF911F910F91FF9035
:10415000EF90DF90CF901994C7010A970E94E71E55
:10416000EC01009749F4F7013A9711830083F801B5
:104170003A971182108217C00C970E94E71E8C1983
:104180009D09181619064CF4F8013A97D183C0839B
:10419000F7013A971183008306C0CE010A970E9467
:1041A000E71E7E01DDCFDF91CF911F910F91FF9030
:1041B000EF90DF90CF900895CF93DF93EC018C8D3B
:1041C0009D8D81FD1AC08C8D9D8D80FF19C0ECA93D
:1041D000FDA9CE011995EAA9FBA9BC01CE0119954B
:1041E0008C899D89892B79F4ECA1FDA141E050E0F7
:1041F00060E070E0CE01199506C028E730E005C008
:1042000025E430E002C020E030E0C901DF91CF9129
:104210000895CF93DF93EC018C8D9D8D892B51F008
:10422000ECA5FDA5CE0119959C01009719F01F86FC
:104230001E862BC088899989009741F09F878E87B9
:104240002A893B898217930791F40CC01F861E862A
:104250008C899D89892B19F023E730E016C025E66B
:1042600030E013C0198A188A1B8A1A8A05C004977D
:104270000E94E71E998B888B8E859F8502970E94EE
:10428000E71E9983888320E030E0C901DF91CF9158
:104290000895FC0186E39FE1978F868F8AE49FE172
:1042A00091A380A38AE69FE193A382A388E89FE17C
:1042B00095A384A389E091E297A386A384E99FE173
:1042C00093A782A78CED90E295A784A783E690E25E
:1042D00097A786A78BE190E291AB80AB8EE99FE137
:1042E00093AB82AB8EE79FE191A780A70895CF9310
:1042F000DF931F921F92CDB7DEB70E94570A0E942C
:104300007401789460E071EE80E090E00E94DF0636
:104310008BEA91E09F938F930E949324EDE2F3E068
:10432000EE7FF0932A03E0932903CF0188589A4F38
:104330000F900F9020E030E821933193E817F907B0
:10434000D9F785EA98E00E94C51B6BEA78E085EA18
:1043500098E00E940D1C4091290350912A032CEBF8
:1043600032E060E075E58BEA98E00E94F508892B61
:1043700029F060E070E084EC91E077C08091AB08B8
:104380009091AC0890932803809327038EE69AE0DF
:104390009093E0088093DF0880E69AE09093D0083D
:1043A0008093CF0880E092E0909302098093010906
:1043B0008091080290910902909304098093030967
:1043C0000E94720A7BEDE72E71E0F72EEBEECE2E07
:1043D000E1E0DE2EFF92EF920E9493240E94720A87
:1043E00061E070E08BEA98E00E94C71E8C019A831E
:1043F00089831F938F931F938F93DF92CF920E9495
:1044000093240E94720A0FB6F894DEBF0FBECDBF90
:1044100000371105F9F23CF40335110541F1053679
:10442000110551F519C004371105A1F2083711051E
:1044300081F00337110501F50091C1081091C20800
:104440000E94160AC801861B970B18161906C4F39A
:10445000C1CF0E941806BECF0E945206892B09F0D8
:10446000B9CF60E070E084E092E00E94780B60E0F9
:1044700070E08DE092E0F9CFBE016F5F7F4F8CE17D
:1044800092E0F3CF4F925F926F927F928F929F92C2
:10449000AF92BF92CF92DF92EF92FF920F931F9352
:1044A000CF93DF93EC015B014A013901CB010E94FC
:1044B000E71E2C01E89440F8F8019183808300976F
:1044C00009F467C080FD19C0F501118210829201C4
:1044D000A301B401CE01F701DF91CF911F910F919C
:1044E000FF90EF90DF90CF90BF90AF909F908F9014
:1044F0007F906F905F904F90199441145104A1F1F7
:10450000C20108970E94E71E8230F0E89F0779F009
:10451000F801118210828130F0E89F077CF083302F
:1045200020E8920724F08330904841F432C0F20131
:10453000389783E090E8918380832BC0EAA5FBA5A0
:1045400060E470E0CE01DF91CF911F910F91FF9059
:10455000EF90DF90CF90BF90AF909F908F907F9023
:104560006F905F904F901994A301B401CE01F601B2
:10457000DF91CF911F910F91FF90EF90DF90CF903F
:10458000BF90AF909F908F907F906F905F904F9073
:1045900019948E859F85FC01389791828082FC0159
:1045A0003697D183C083FC01349771826082FC010D
:1045B00032972881398131832083F501918380836B
:1045C0008FEF9FEFDF91CF911F910F91FF90EF90B1
:1045D000DF90CF90BF90AF909F908F907F906F9023
:1045E0005F904F900895AF92BF92CF92DF92EF927B
:1045F000FF920F931F93CF93DF931F921F92CDB71C
:10460000DEB75C01670178018E010F5F1F4F0E94CA
:1046100042229C010097D1F489819A81892BE9F08B
:10462000D5011E966D917C911F97FB0132978D915C
:104630009C911197918380835E96ED91FC915F9799
:10464000C5011995F5011786168607C018161906B3
:10465000A4F18E3FFFEF9F0771F189819A818E7FD0
:104660009A8389830097F1F006970E94E71EDC0188
:1046700049815A818A159B0551F09096ED91FC91E4
:104680009197B50119959C010097B9F40BC0F501FC
:1046900057874687CA0102970E94E71ED5018D936E
:1046A0009C9309C0D5019696ED91FC919797C50111
:1046B00019959C0102C020E030E0C9010F900F90D5
:1046C000DF91CF911F910F91FF90EF90DF90CF90EE
:1046D000BF90AF900895E89409C097FB3EF4909581
:1046E0008095709561957F4F8F4F9F4F9923A9F0CB
:1046F000F92F96E9BB279395F6958795779567955A
:10470000B795F111F8CFFAF4BB0F11F460FF1BC09D
:104710006F5F7F4F8F4F9F4F16C0882311F096E930
:1047200011C0772321F09EE8872F762F05C06623DE
:1047300071F096E8862F70E060E02AF09A95660F97
:10474000771F881FDAF7880F9695879597F9089550
:10475000A29FB001B39FC001A39F01D0B29F700D73
:10476000811D1124911D089597FB072E16F40094C6
:1047700007D077FD09D00E94062407FC05D03EF43F
:10478000909581959F4F0895709561957F4F0895FD
:10479000A1E21A2EAA1BBB1BFD010DC0AA1FBB1F45
:1047A000EE1FFF1FA217B307E407F50720F0A21BB7
:1047B000B30BE40BF50B661F771F881F991F1A9424
:1047C00069F760957095809590959B01AC01BD014E
:1047D000CF010895052E97FB16F4009407D057FDDE
:1047E0000DD00E94C82307FC09D07EF490958095D7
:1047F000709561957F4F8F4F9F4F089550954095CD
:10480000309521953F4F4F4F5F4F0895AA1BBB1B1B
:1048100051E107C0AA1FBB1FA617B70710F0A61BC0
:10482000B70B881F991F5A95A9F780959095BC01E1
:10483000CD010895FB01DC0104C08D910590801924
:1048400021F441505040C8F7881B990B0895FB0193
:10485000DC0102C005900D9241505040D8F70895F8
:104860000F931F93CF93DF93EC018B01009731F4EB
:104870006115710519F4E0E0F0E037C06EE070E01A
:1048800081E090E00E94C326FC010097A1F380E83C
:1048900083830115110571F01387028781E88383F3
:1048A00080910F0990911009892B21F4F093100940
:1048B000E0930F092097C9F0D187C0878381826078
:1048C00083838091110990911209892B71F4F093DF
:1048D0001209E09311098091130990911409892B11
:1048E00021F4F0931409E0931309CF01DF91CF91E4
:1048F0001F910F910895CF93DF931F921F92CDB711
:10490000DEB7FE01389661917191FA83E983AF01B8
:1049100080911109909112090E94BD240F900F906F
:10492000DF91CF9108950F931F93CF93DF931F9241
:104930001F92CDB7DEB7FE013A9661917191FA836D
:10494000E98301E119E0D8018D919C91DC01139676
:104950002C911397286013962C93AF010E94BD24CD
:10496000D801ED91FC912381277F23830F900F9035
:10497000DF91CF911F910F9108952F923F924F9207
:104980005F926F927F928F929F92AF92BF92CF92DF
:10499000DF92EF92FF920F931F93CF93DF93CDB7E8
:1049A000DEB72C970FB6F894DEBF0FBECDBF7C01EB
:1049B0006B018A01FC0117821682838181FFC7C1C6
:1049C00088248394912C8C0E9D1EF7019381F6010F
:1049D00093FD859193FF81916F01882309F4B3C101
:1049E000853239F493FD859193FF81916F01853272
:1049F00029F4B70190E00E943728E7CF712C312CC1
:104A000020E02032A8F48B3261F028F4803251F09B
:104A1000833271F40BC08D3239F0803349F4216058
:104A200028C02260246025C0286023C0206121C0E6
:104A300027FD27C0382F30533A3078F426FF06C0C0
:104A4000FAE07F9E300D1124732E13C08AE0389E49
:104A5000300D1124332E20620CC08E3221F426FD3D
:104A600072C1206406C08C3611F4206802C08836FA
:104A700041F4F60193FD859193FF81916F018111BE
:104A8000C0CF982F9554933018F09052933028F45B
:104A90000C5F1F4FFFE3F9830DC0833631F083377E
:104AA00071F0833509F05EC023C0F80180818983ED
:104AB0000E5F1F4F66246394712C540115C02801AA
:104AC000F2E04F0E511CF801A080B18026FF03C018
:104AD000672D70E002C06FEF7FEFC5012C870E9449
:104AE0002C283C0182012C856FE7262E222218C03B
:104AF0002801F2E04F0E511CF801A080B18026FF82
:104B000003C0672D70E002C06FEF7FEFC5012C87F7
:104B10000E941A283C012C8550E8252E222A820169
:104B200023FC1CC006C0B70180E290E00E94372839
:104B30003A94832D90E068167906A8F30FC0F5012A
:104B400027FC859127FE81915F01B70190E00E94CB
:104B5000372831103A94F1E06F1A7108611471042A
:104B600071F7EEC0843611F0893641F5F80127FF60
:104B700007C060817181828193810C5F1F4F08C0E3
:104B800060817181882777FD8095982F0E5F1F4F78
:104B90004FE6642E622297FF09C09095809570952C
:104BA00061957F4F8F4F9F4FF0E86F2A2AE030E0EA
:104BB000A4010E946328A82EA81844C0853731F4A8
:104BC0003FEEB32EB2222AE030E024C099EFB92E96
:104BD000B2228F36B9F020F4883509F0B4C00DC088
:104BE000803721F0883709F0AEC002C020E1B22A38
:104BF000B4FE0BC084E0B82A08C024FF09C0E6E078
:104C0000BE2A06C028E030E005C020E130E002C046
:104C100020E132E0F801B7FE07C060817181828136
:104C200093810C5F1F4F06C06081718180E090E02E
:104C30000E5F1F4FA4010E946328A82EA8188FE7BB
:104C4000682E6B2066FE0BC0362D3E7FA71450F4F5
:104C500064FE0AC062FC08C0362D3E7E05C0BA2C38
:104C6000362D03C0BA2C01C0B72C34FF0DC0FE0195
:104C7000EA0DF11D8081803311F4397E09C032FFC5
:104C800006C0B394B39404C0832F867809F0B3941C
:104C900033FD14C030FF0FC07A2CB31460F4730CD2
:104CA0007B18B32C08C0B70180E290E03C870E94DB
:104CB0003728B3943C85B314B0F304C0B31410F494
:104CC0003B1801C0312C34FF12C0B70180E390E0E3
:104CD0003C870E9437283C8532FF1EC031FF03C04D
:104CE00088E590E002C088E790E0B7010CC0832F10
:104CF000867891F031FD02C080E201C08BE237FD81
:104D00008DE2B70190E00E94372806C0B70180E32A
:104D100090E00E9437287A94A714C0F3AA94F40173
:104D2000EA0DF11DB701808190E00E943728A110A3
:104D3000F5CF06C0B70180E290E00E9437283A9490
:104D40003110F8CF42CEF7012681378102C02FEF14
:104D50003FEFC9012C960FB6F894DEBF0FBECDBF52
:104D6000DF91CF911F910F91FF90EF90DF90CF9047
:104D7000BF90AF909F908F907F906F905F904F907B
:104D80003F902F9008950F931F93CF93DF93689FC9
:104D90008001699F100D789F100D1124C8010E9499
:104DA000E126C82FD92F209731F0A80160E070E0EC
:104DB0008C2F0E942528CE01DF91CF911F910F915A
:104DC00008950F931F93CF93DF938230910510F4D2
:104DD00082E090E0E0911709F091180920E030E0BE
:104DE000C0E0D0E023C04081518148175907A8F0A6
:104DF0004817590761F482819381209719F09B83AA
:104E00008A832EC0909318098093170929C0211511
:104E1000310529F04217530710F0A90102C0BE0165
:104E2000DF0102811381EF019A01F8013097D9F671
:104E30002115310509F1281B390B2430310590F477
:104E400012968D919C9113976115710521F0FB01CC
:104E50009383828304C09093180980931709FD01FE
:104E6000329644C0FD01E20FF31F819391932250CB
:104E700031092D933C933AC02091150930911609C0
:104E8000232B41F42091040230910502309316093E
:104E9000209315092091020230910302211531055A
:104EA00041F42DB73EB74091060250910702241BF2
:104EB000350BE0911509F0911609E217F307A0F4FC
:104EC0002E1B3F0B2817390778F0AC014E5F5F4F60
:104ED0002417350748F04E0F5F1F50931609409373
:104EE00015098193919302C0E0E0F0E0CF01DF91DA
:104EF000CF911F910F910895EF92FF920F931F93FF
:104F0000CF93DF93009709F48EC0DC0112971396BC
:104F10001C921E921297E0901709F0901809E11464
:104F2000F10489F42D913C911197280F391F80913C
:104F30001509909116098217930789F5B093160900
:104F4000A093150970C0E70120E030E001C0EA013C
:104F5000CA17DB0738F44A815B819E014115510570
:104F6000B1F722C0AC0142505109FA01D383C28388
:104F700000811181BC01600F711F6C177D0761F406
:104F800068817981600F711F6E5F7F4F71836083CD
:104F90006A817B81738362832115310529F4B09383
:104FA0001809A09317093FC0F901B383A283E9014F
:104FB00049915991C40FD51FAC17BD0771F4DC019D
:104FC0009E918E91840F951F0296918380831296F5
:104FD0008D919C91139793838283A0E0B0E002C0EF
:104FE000D7017C01F701828193810097C9F7C7013E
:104FF000029620813181820F931F209115093091F3
:1050000016092817390779F4109729F4109218090E
:105010001092170904C013961C921E921297F092D8
:105020001609E0921509DF91CF911F910F91FF9022
:10503000EF900895FC010590615070400110D8F781
:10504000809590958E0F9F1F0895DC0101C06D9390
:1050500041505040E0F70895FC01615070400190CC
:105060000110D8F7809590958E0F9F1F08950F938C
:105070001F93CF93DF938C01EB018B8181FD03C0E4
:105080000FEF1FEF1AC082FF0DC02E813F818C8170
:105090009D812817390764F4E881F9810193F98328
:1050A000E88306C0E885F985802F1995892B41F79B
:1050B0008E819F8101969F838E83C801DF91CF915E
:1050C0001F910F910895FA01AA27283051F120313C
:1050D00081F1E8946F936E7F6E5F7F4F8F4F9F4F8C
:1050E000AF4FB1E03ED0B4E03CD0670F781F891FCE
:1050F0009A1FA11D680F791F8A1F911DA11D6A0F9C
:10510000711D811D911DA11D20D009F468943F914E
:105110002AE0269F11243019305D3193DEF6CF014D
:105120000895462F4770405D4193B3E00FD0C9F713
:10513000F6CF462F4F70405D4A3318F0495D31FD80
:105140004052419302D0A9F7EACFB4E0A6959795D3
:10515000879577956795BA95C9F7009761057105A9
:1051600008959B01AC010A2E0694579547953795F3
:105170002795BA95C9F7620F731F841F951FA01D4D
:065180000895F894FFCF32
:105186005F060000190920000100C306CA06D10601
:10519600D80674656E63007462634C006462674C83
:1051A60000666E204C006C6E644200666E205300F2
:1051B6007773205500767320550062632042006C99
:1051C6006F616465642070726F6772616D207769C4
:1051D60074682077735F73697A653D25642C207641
:1051E600735F73697A653D25642C206D656D6F72FA
:1051F600795F73697A653D25642C20757365643D16
:1052060025640A006E6F7420656E6F75676820529C
:10521600414D20666F722070726F6772616D00007B
:00000001FF
