:100000000C9415010C9482010C94AC010C94D60153
:100010000C9400020C942A020C9454020C947E025C
:100020000C94A8020C94D2020C94FC020C942603AB
:100030000C9436010C9436010C9436010C947A031E
:100040000C9436010C9436010C9436010C94360154
:100050000C9450030C9436010C9436010C94CC098A
:100060000C9436010C94F8030C9427040C94560459
:100070000C9436010C94A4030C9436010C943601B4
:100080000C9436010C9436010C9436010C94360114
:100090000C9480040C94AF040C94DE040C94CE03F6
:1000A0000C9436010C9436010C9436010C943601F4
:1000B0000C9436010C9436010C9436010C943601E4
:1000C0000C9436010C9436010C9436010C940805FE
:1000D0000C9437050C9466050C9490050C94BF05A0
:1000E0000C94EE0574766D2D61726475696E6F3ACD
:1000F000202553002563000A000A46696E616C20C2
:100100006D616368696E652073746174653A000A95
:1001100066696C653D2553206C696E653D256400FC
:100120000A777074723D25303478202872656C3DF2
:1001300025303478292020697074723D2530347858
:10014000202872656C3D2530347829202065666C46
:100150006167733D253034782073666C6167733D49
:10016000253034780A617265673D25303478206225
:100170007265673D2530347820637265673D2530B0
:10018000347820206F7265673D253034780A007717
:100190007074723E002530347820000A0069707453
:1001A000723E002530327820000A00417264756981
:1001B0006E6F2D54564D207374617274696E672E84
:1001C0002E2E0A0070726F6772616D206C6F616411
:1001D000696E67206661696C6564004265666F726E
:1001E000652074766D5F72756E3A00416674657253
:1001F0002074766D5F72756E203D20256420282561
:1002000063293A00646561646C6F636B00656E64BA
:10021000206F662070726F6772616D006572726F19
:100220007220737461747573200011241FBECFEFA8
:10023000D1E2DEBFCDBF00E00CBF1CE0A0E0B2E029
:10024000EEE2F2E500E00BBF02C007900D92A83489
:10025000B107D9F712E1A8E4BCE001C01D92A13CAE
:10026000B107E1F70E94CB210C9415290C940000F2
:10027000CF92DF92EF92FF92CF93DF93EC010E9437
:10028000160A6B017C019B0188819981009749F4D2
:10029000C11480E8D80611F421E030E83B832A83BA
:1002A0001CC080FD1AC008970E943B1FFC0188817A
:1002B0009981309731F0D182C082FC013897118248
:1002C000108281609983888380916F12909170125F
:1002D00086609093701280936F12DF91CF91FF90A0
:1002E000EF90DF90CF900895E8E4FCE080E090E8A4
:1002F000118210829383828334962CE0E43CF207CF
:10030000B9F708951F920F920FB60F9211240BB6F2
:100310000F922F933F934F935F936F937F938F939E
:100320009F93AF93BF93EF93FF9388E49CE00E9469
:100330003801FF91EF91BF91AF919F918F917F9184
:100340006F915F914F913F912F910F900BBE0F9046
:100350000FBE0F901F9018951F920F920FB60F921D
:1003600011240BB60F922F933F934F935F936F938C
:100370007F938F939F93AF93BF93EF93FF938CE4FF
:100380009CE00E943801FF91EF91BF91AF919F9146
:100390008F917F916F915F914F913F912F910F902E
:1003A0000BBE0F900FBE0F901F9018951F920F92CB
:1003B0000FB60F9211240BB60F922F933F934F93CA
:1003C0005F936F937F938F939F93AF93BF93EF93BD
:1003D000FF9380E59CE00E943801FF91EF91BF916F
:1003E000AF919F918F917F916F915F914F913F91CD
:1003F0002F910F900BBE0F900FBE0F901F9018956E
:100400001F920F920FB60F9211240BB60F922F93DB
:100410003F934F935F936F937F938F939F93AF938C
:10042000BF93EF93FF9384E59CE00E943801FF9116
:10043000EF91BF91AF919F918F917F916F915F915C
:100440004F913F912F910F900BBE0F900FBE0F90C9
:100450001F9018951F920F920FB60F9211240BB692
:100460000F922F933F934F935F936F937F938F934D
:100470009F93AF93BF93EF93FF9388E59CE00E9417
:100480003801FF91EF91BF91AF919F918F917F9133
:100490006F915F914F913F912F910F900BBE0F90F5
:1004A0000FBE0F901F9018951F920F920FB60F92CC
:1004B00011240BB60F922F933F934F935F936F933B
:1004C0007F938F939F93AF93BF93EF93FF938CE5AD
:1004D0009CE00E943801FF91EF91BF91AF919F91F5
:1004E0008F917F916F915F914F913F912F910F90DD
:1004F0000BBE0F900FBE0F901F9018951F920F927A
:100500000FB60F9211240BB60F922F933F934F9378
:100510005F936F937F938F939F93AF93BF93EF936B
:10052000FF9380E69CE00E943801FF91EF91BF911C
:10053000AF919F918F917F916F915F914F913F917B
:100540002F910F900BBE0F900FBE0F901F9018951C
:100550001F920F920FB60F9211240BB60F922F938A
:100560003F934F935F936F937F938F939F93AF933B
:10057000BF93EF93FF9384E69CE00E943801FF91C4
:10058000EF91BF91AF919F918F917F916F915F910B
:100590004F913F912F910F900BBE0F900FBE0F9078
:1005A0001F9018951F920F920FB60F9211240BB641
:1005B0000F922F933F934F935F936F937F938F93FC
:1005C0009F93AF93BF93EF93FF9388E69CE00E94C5
:1005D0003801FF91EF91BF91AF919F918F917F91E2
:1005E0006F915F914F913F912F910F900BBE0F90A4
:1005F0000FBE0F901F9018951F920F920FB60F927B
:1006000011240BB60F922F933F934F935F936F93E9
:100610007F938F939F93AF93BF93EF93FF938CE65A
:100620009CE00E943801FF91EF91BF91AF919F91A3
:100630008F917F916F915F914F913F912F910F908B
:100640000BBE0F900FBE0F901F9018951F920F9228
:100650000FB60F9211240BB60F922F933F934F9327
:100660005F936F937F938F939F93AF93BF93EF931A
:10067000FF9380E79CE00E943801FF91EF91BF91CA
:10068000AF919F918F917F916F915F914F913F912A
:100690002F910F900BBE0F900FBE0F901F901895CB
:1006A0001F920F920FB60F9211240BB60F922F9339
:1006B0003F934F935F936F937F938F939F93AF93EA
:1006C000BF93EF93FF9388E79CE00E943801FF916E
:1006D000EF91BF91AF919F918F917F916F915F91BA
:1006E0004F913F912F910F900BBE0F900FBE0F9027
:1006F0001F9018951F920F920FB60F9211240BB6F0
:100700000F922F933F934F935F936F937F938F93AA
:100710009F93AF93BF93EF93FF938CE79CE00E946E
:100720003801FF91EF91BF91AF919F918F917F9190
:100730006F915F914F913F912F910F900BBE0F9052
:100740000FBE0F901F9018951F920F920FB60F9229
:1007500011240BB60F922F933F934F935F936F9398
:100760007F938F939F93AF93BF93EF93FF938CE807
:100770009CE00E943801FF91EF91BF91AF919F9152
:100780008F917F916F915F914F913F912F910F903A
:100790000BBE0F900FBE0F901F9018951F920F92D7
:1007A0000FB60F9211240BB60F922F933F934F93D6
:1007B0005F936F937F938F939F93AF93BF93EF93C9
:1007C000FF9380EC9CE00E943801FF91EF91BF9174
:1007D000AF919F918F917F916F915F914F913F91D9
:1007E0002F910F900BBE0F900FBE0F901F9018957A
:1007F0001F920F920FB60F9211240BB60F922F93E8
:100800003F934F935F936F937F938F939F93AF9398
:10081000BF93EF93FF93E1ECF0E080818F778083CB
:1008200080E99CE00E943801FF91EF91BF91AF9168
:100830009F918F917F916F915F914F913F912F91F8
:100840000F900BBE0F900FBE0F901F9018951F9228
:100850000F920FB60F9211240BB60F922F933F9366
:100860004F935F936F937F938F939F93AF93BF93B8
:10087000EF93FF93E1ECF0E080818F7D808380EA4D
:100880009CE00E943801FF91EF91BF91AF919F9141
:100890008F917F916F915F914F913F912F910F9029
:1008A0000BBE0F900FBE0F901F9018951F920F92C6
:1008B0000FB60F9211240BB60F922F933F934F93C5
:1008C0005F936F937F938F939F93AF93BF93EF93B8
:1008D000FF9380EB9CE00E943801FF91EF91BF9164
:1008E000AF919F918F917F916F915F914F913F91C8
:1008F0002F910F900BBE0F900FBE0F901F90189569
:100900001F920F920FB60F9211240BB60F922F93D6
:100910003F934F935F936F937F938F939F93AF9387
:10092000BF93EF93FF93E9ECF0E080818F778083B2
:1009300084E99CE00E943801FF91EF91BF91AF9153
:100940009F918F917F916F915F914F913F912F91E7
:100950000F900BBE0F900FBE0F901F9018951F9217
:100960000F920FB60F9211240BB60F922F933F9355
:100970004F935F936F937F938F939F93AF93BF93A7
:10098000EF93FF93E9ECF0E080818F7D808384EA30
:100990009CE00E943801FF91EF91BF91AF919F9130
:1009A0008F917F916F915F914F913F912F910F9018
:1009B0000BBE0F900FBE0F901F9018951F920F92B5
:1009C0000FB60F9211240BB60F922F933F934F93B4
:1009D0005F936F937F938F939F93AF93BF93EF93A7
:1009E000FF9384EB9CE00E943801FF91EF91BF914F
:1009F000AF919F918F917F916F915F914F913F91B7
:100A00002F910F900BBE0F900FBE0F901F90189557
:100A10001F920F920FB60F9211240BB60F922F93C5
:100A20003F934F935F936F937F938F939F93AF9376
:100A3000BF93EF93FF93E1EDF0E080818F778083A8
:100A400088E99CE00E943801FF91EF91BF91AF913E
:100A50009F918F917F916F915F914F913F912F91D6
:100A60000F900BBE0F900FBE0F901F9018951F9206
:100A70000F920FB60F9211240BB60F922F933F9344
:100A80004F935F936F937F938F939F93AF93BF9396
:100A9000EF93FF93E1EDF0E080818F7D808388EA22
:100AA0009CE00E943801FF91EF91BF91AF919F911F
:100AB0008F917F916F915F914F913F912F910F9007
:100AC0000BBE0F900FBE0F901F9018951F920F92A4
:100AD0000FB60F9211240BB60F922F933F934F93A3
:100AE0005F936F937F938F939F93AF93BF93EF9396
:100AF000FF9388EB9CE00E943801FF91EF91BF913A
:100B0000AF919F918F917F916F915F914F913F91A5
:100B10002F910F900BBE0F900FBE0F901F90189546
:100B20001F920F920FB60F9211240BB60F922F93B4
:100B30003F934F935F936F937F938F939F93AF9365
:100B4000BF93EF93FF93E1E3F1E080818F778083A0
:100B50008CE99CE00E943801FF91EF91BF91AF9129
:100B60009F918F917F916F915F914F913F912F91C5
:100B70000F900BBE0F900FBE0F901F9018951F92F5
:100B80000F920FB60F9211240BB60F922F933F9333
:100B90004F935F936F937F938F939F93AF93BF9385
:100BA000EF93FF93E1E3F1E080818F7D80838CEA16
:100BB0009CE00E943801FF91EF91BF91AF919F910E
:100BC0008F917F916F915F914F913F912F910F90F6
:100BD0000BBE0F900FBE0F901F9018951F920F9293
:100BE0000FB60F9211240BB60F922F933F934F9392
:100BF0005F936F937F938F939F93AF93BF93EF9385
:100C0000FF938CEB9CE00E943801FF91EF91BF9124
:100C1000AF919F918F917F916F915F914F913F9194
:100C20002F910F900BBE0F900FBE0F901F90189535
:100C30000F931F93CF93DF93C0E0D0E08E01000F9E
:100C4000111F000F111F085B134FF80160817181A4
:100C500060FF14C06E7FE0917112F091721283E513
:100C600092E11995F801118210828091C40C909143
:100C7000C50C01979093C50C8093C40C2196CF317D
:100C8000D105E1F6F89480916F1290917012897FEE
:100C90009093701280936F127894DF91CF911F918F
:100CA0000F91089521E030E08091C40C9091C50C23
:100CB0001816190614F020E030E0C9010895EF92EB
:100CC000FF920F931F93CF93DF93EC01FB01008101
:100CD0001181E280F3800F31110558F0EAA5FBA5E0
:100CE00060E270E0DF91CF911F910F91FF90EF9044
:100CF0001994000F111F000F111F085B134FF89478
:100D0000F801828193818115F0E89F0759F0F7017E
:100D10009183808380E090E8F8019383828320E0D0
:100D200030E01FC08E859F850E943B1FEE85FF85AA
:100D30009F01285F3F4F3F872E8797838683D3830A
:100D4000C283F182E082F801318320838091C40C58
:100D50009091C50C01969093C50C8093C40C22E72A
:100D600030E07894C901DF91CF911F910F91FF90EE
:100D7000EF9008959091C00095FFFCCF8093C6003E
:100D800080E090E008958091C00087FFFCCF8091C3
:100D9000C60008958091C80087FFFCCF8091CE00E7
:100DA00008958091D00087FFFCCF8091D6000895F0
:100DB0008091300187FFFCCF809136010895CF925A
:100DC000DF92EF92FF926B017C011092C00022E053
:100DD00030E040E050E00E943E24205C3D4B404F1C
:100DE0005F4FCA01B901A70196010E943E2421501C
:100DF00031093093C5002093C40086E08093C2007F
:100E000088E08093C10060E070E08AEB96E00E9489
:100E100084249093BA128093B912FF90EF90DF90E0
:100E2000CF9008957F928F929F92AF92BF92CF9270
:100E3000DF92EF92FF920F931F93CF93DF93CDB783
:100E4000DEB728970FB6F894DEBF0FBECDBFFB010B
:100E50008081918112817480C680D780A284B384FE
:100E600028E0EAE0F2E0DE01119601900D922A9569
:100E7000E1F7F894880F991F21E030E02C0F3D1F17
:100E8000820F931FFC01E080F180F7011995F701B3
:100E900019958113FCCF86014601801A910AF7014A
:100EA0001995F60181936F018711F6CFF5019182B3
:100EB0008082789480E090E028960FB6F894DEBFA8
:100EC0000FBECDBFDF91CF911F910F91FF90EF909B
:100ED000DF90CF90BF90AF909F908F907F900895BC
:100EE000FC0145915491342F20E0852F90E0282B70
:100EF000392BC9010895CF92DF92EF92FF920F93A1
:100F00001F93CF93DF937C018B016A01E9014CC0F1
:100F1000069708F453C044E050E0B701CE010E94A8
:100F20007B241C82C70104960E9470079E838D83D8
:100F300086E0E80EF11CFA86E986F801808191814D
:100F40000697918380834B812D813E81493411F036
:100F5000453529F438872F831E821D8232C08217BF
:100F6000930760F120FF02C02F5F3F4FF886EF82AA
:100F7000E20EF31EFA86E986F80180819181821BD8
:100F8000930B918380831DC09981F6018181981311
:100F900012C09A81828198130EC09B81838198131D
:100FA0000AC020E030E013C0F801808191810097F1
:100FB00009F0AECF03C0E984FA84F6CF2FEF3FEFFC
:100FC00006C09881F60180819813F5CFDDCFC90165
:100FD000DF91CF911F910F91FF90EF90DF90CF9015
:100FE0000895EF92FF920F931F93CF93DF931F9279
:100FF0001F92CDB7DEB78C017B0144E050E0BC010D
:1010000082ED96E00E946E24892B19F02FEF3FEFBE
:1010100014C0C80104960E9470079A8389839701BF
:1010200047ED56E0BE016F5F7F4FC80106960E94F4
:101030007B0797FDEBCF20E030E0C9010F900F90C8
:10104000DF91CF911F910F91FF90EF9008952F9214
:101050003F924F925F926F927F928F929F92AF9248
:10106000BF92CF92DF92EF92FF920F931F93CF9395
:10107000DF93CDB7DEB7AE970FB6F894DEBF0FBEE5
:10108000CDBF4B016A012901BE016E5D7F4F0E94F9
:10109000F107892B09F08DC089A59AA52FA138A544
:1010A0003EA72DA7F60111821082F2011182108253
:1010B0009E01295E3F4F4CED56E0BE01635D7F4FC0
:1010C0000E947B079C0197FD76C08E8D9F8D2C8D95
:1010D0003D8D3EA72DA79E01245F3F4F41EE56E078
:1010E000BE01635D7F4F0E947B0797FD62C09E013A
:1010F000295E3F4F46EE56E0BE01635D7F4F8D890E
:101100009E890E947B0797FD54C0EE8CFF8C6C8CEF
:101110007D8C1FC0C7010E94700797012E5F3F4F53
:10112000F6E06F1A71088816990638F4EB88FC8887
:1011300089899A899EA78DA731C0C9010E9470072D
:101140008C01C70104960E9470075C0146E0E40E22
:10115000F11C86E068167104E8F6E8CF9E012F5F67
:101160003F4F4BEE56E0BE01635D7F4FC7010E94CB
:101170007B079C0197FD0DC08E819F81892B39F0E3
:1011800028843984EA84FB8420E030E002C02FEF19
:101190003FEF2115310579F40150110917FFDECF1A
:1011A000F60131822082F201B182A08220E030E09B
:1011B00002C02FEF3FEFC901AE960FB6F894DEBF25
:1011C0000FBECDBFDF91CF911F910F91FF90EF9098
:1011D000DF90CF90BF90AF909F908F907F906F9057
:1011E0005F904F903F902F9008952F923F924F9293
:1011F0005F926F927F928F929F92AF92BF92CF92A7
:10120000DF92EF92FF920F931F93CF93DF93CDB7AF
:10121000DEB7E6970FB6F894DEBF0FBECDBF3C0138
:10122000CB012A014901BE016E5D7F4F0E94F1078B
:10123000892B09F095C029A43AA48FA198A59AAB4F
:1012400089AB9E01245F3F4F40EF56E0BE016F5CCB
:101250007F4FC1010E947B078C0197FD08C08B89DD
:101260008BAB9C899CAB2D883E8800E010E001157B
:10127000110509F077C09E012F5F3F4F45EF56E003
:10128000BE016F5C7F4FC1010E947B0797FD07C0C5
:1012900088858DAB99859EAB2A843B8401C08C01E7
:1012A0000115110509F05EC09E01295E3F4F4AEF0E
:1012B00056E0BE016F5C7F4FC1010E947B078C012D
:1012C00097FD50C02E8C3F8C8DE2A82EB12CAC0E19
:1012D000BD1E9FE2C92ED12CCC0EDD1EEDA8FEA8AE
:1012E0000BA91CA920E030E043E457E0B201C301A0
:1012F0000E94F71C8C011F938F939F928F928EA94F
:101300008F939DA99F938CA98F939BA99F938FEFF8
:1013100096E09F938F930E94CF240FB6F894DEBF80
:101320000FBECDBF8016910630F460E070E084E41B
:1013300097E00E94780B4DA45EA48FA498A8C101E9
:101340000E94371FC12CD12CE12CF12C03E417E0B3
:101350009201A401BC01C3010E94311D8C0102C095
:101360000FEF1FEFC801E6960FB6F894DEBF0FBE71
:10137000CDBFDF91CF911F910F91FF90EF90DF9044
:10138000CF90BF90AF909F908F907F906F905F9025
:101390004F903F902F9008951F920F920FB60F928B
:1013A00011242F933F938F939F93AF93BF9380917B
:1013B000C60C9091C70CA091C80CB091C90C30918B
:1013C000CE0C232F2D5F2D3720F40196A11DB11DCA
:1013D00005C0232F2A570296A11DB11D2093CE0CC4
:1013E0008093C60C9093C70CA093C80CB093C90C03
:1013F0008091CA0C9091CB0CA091CC0CB091CD0CEB
:101400000196A11DB11D8093CA0C9093CB0CA093A3
:10141000CC0CB093CD0CBF91AF919F918F913F9128
:101420002F910F900FBE0F901F9018950F931F9341
:101430008FB7F8940091C60C1091C70C2091C80C7E
:101440003091C90C8FBFB801C9011F910F91089548
:101450000F931F934FB7F89486B590E0A0E0B0E0EB
:10146000A89B08C00097A105B10521F480E091E098
:10147000A0E0B0E00091CA0C1091CB0C2091CC0CF4
:101480003091CD0C4FBF322F212F102F0027080F86
:10149000191F2A1F3B1F52E0000F111F221F331F6D
:1014A0005A95D1F7B801C9011F910F91089585B5DB
:1014B000836085BDEEE6F0E08081816080830895E1
:1014C000F894FC01248D358D40955095422353238B
:1014D000462B572B558F448F789408950E94160AF7
:1014E000CB010895CF92DF92EF92FF920F931F935B
:1014F000CF93DF9300D01F92CDB7DEB76091531228
:10150000709154128091CF0C9091D00C681B790B84
:101510009E012F5F3F4FAE014D5F5F4F80E095E52D
:101520000E942708892BA1F48A818F9389818F9348
:101530008C818F938B818F938FE091E09F938F931A
:101540000E94E7240F900F900F900F900F900F9034
:1015500040916F12509170128091531290915412D9
:101560002091611230916212609156126F936091D6
:1015700055126F9360915C126F9360915B126F9341
:1015800060915A126F93609159126F936091581243
:101590006F93609157126F935F934F9340916C12CA
:1015A0004F9340916B124F934091CF0C5091D00CC0
:1015B000BC01641B750BAB015F936F939F938F937B
:1015C0008091D10C9091D20CA901481B590BCA01F2
:1015D000959587959F938F933F932F9380E291E00A
:1015E0009F938F930E94E7240091611210916212E1
:1015F0000E5011090FB6F894DEBF0FBECDBF5FE8E5
:10160000E52E51E0F52E65E9C62E61E0D62E18C014
:101610000817190731F4FF92EF920E94E7240F9008
:101620000F90C8010E943B1F9F938F93DF92CF9230
:101630000E94E7240E5F1F4F0F900F900F900F90A6
:1016400080916112909162129C01225F3F4F0217BC
:101650001307F0F28BE991E09F938F930E94E724A8
:1016600000915312109154120C5011090F900F90C9
:101670008DE9E82E81E0F82E93EAC92E91E0D92E6B
:1016800018C00817190731F4FF92EF920E94E7245F
:101690000F900F90C8010E944A1F1F928F93DF92F4
:1016A000CF920E94E7240F5F1F4F0F900F900F9073
:1016B0000F9080915312909154129C01245F3F4FE0
:1016C00002171307F0F289EA91E09F938F930E942B
:1016D000E7240F900F900F900F900F900F90DF91D5
:1016E000CF911F910F91FF90EF90DF90CF900895D1
:1016F000EB019F938F9384EE90E09F938F930E94D2
:10170000E7240F900F900F900F90209771F0898130
:101710008F9388818F9384EF90E09F938F930E94A3
:10172000E7240F900F900F900F9087EF90E09F931A
:101730008F930E94E7240F900F90CD2B51F089EFEB
:1017400090E09F938F930E94E7240E94720A0F906B
:101750000F90FFCF460F571F03C0FB011192BF012F
:1017600064177507D1F780E090E0089580E090E07D
:101770000895FF920F931F93CF93DF93EC0188811D
:1017800099810E944A1FF82E1F928F9389818F930F
:1017900088818F938FE597E09F938F930E94CF244A
:1017A0008F2D807F0F900F900F900F900F900F90C4
:1017B000803F49F0EF2DE295EF70F0E0EE0FFF1F54
:1017C000EE5EFD4F09C08F2D8F70EA81FB81E82B03
:1017D000EE0FFF1FEC5CFD4F81818F9380818F9313
:1017E00088E697E09F938F930E94CF240F900F90ED
:1017F0000F900F900F2D0F7010E089858F938885C3
:101800008F938F818F938E818F938D818F938C8116
:101810008F932A813B81202B312B3F932F932CE6F2
:1018200037E03F932F930E94CF24288139812F5F87
:101830003F4F398328832A813B81202B312B3B83E7
:101840002A838DB79EB70A960FB6F8949EBF0FBE37
:101850008DBF8F2DDF91CF911F910F91FF90089534
:10186000CF93DF93EC0182E790E09B8F8A8FEEA904
:10187000FFA9309731F0CE0119959C01009709F02E
:101880000BC08E859F85892B51F4EEA1FFA1CE015F
:1018900019959C01009729F03B8F2A8F02C020E008
:1018A00030E0C901DF91CF910895AF92BF92CF92FE
:1018B000DF92EF92FF920F931F93CF93DF938C01F0
:1018C000EB017A01CB01842B952B802B912B80FF90
:1018D00005C05B01A40EB51E68011CC0F694E79418
:1018E0005801C12CD12C0BC0CE010E943B1FF50129
:1018F000819391935F012296FFEFCF1ADF0ACE14F6
:10190000DF0491F70CC0CE010E944A1FF6018193BB
:101910006F012196CA15DB05B1F70E0D1F1DC80119
:10192000DF91CF911F910F91FF90EF90DF90CF90BB
:10193000BF90AF9008950F931F93CF93DF931F92A3
:101940001F92CDB7DEB78B01C901089749835A832F
:101950000E943B1F49815A81BC01C8010E94550C5D
:1019600080E090E00F900F90DF91CF911F910F9149
:1019700008950F931F93CF93DF931F921F92CDB7BC
:10198000DEB78A01C901089769837A830E943B1FE9
:1019900044275527401B510B69817A810E94550CC1
:1019A00080E090E00F900F90DF91CF911F910F9109
:1019B00008958F929F92AF92BF92CF92DF92EF9253
:1019C000FF920F931F93CF93DF931F921F92CDB778
:1019D000DEB75C0162956F70673009F4B0C0A0F4A7
:1019E000DC0112968D919C911397633009F45DC0D0
:1019F00028F46130A9F108F04AC021C0653009F42B
:101A00007BC008F08EC067C06B3009F434C150F45D
:101A1000FC01693009F4D5C0848195816A3008F0F1
:101A20000FC1ADC06D3009F455C108F43DC16E3031
:101A300009F47BC16F3011F00C94021C97C1D501E1
:101A40002D913C911197280F391F11963C932E939D
:101A500013961C921E92129720E030E00C94071C03
:101A6000F5016481758146815781880F991F26850C
:101A70003785280F391F3583248377836683518701
:101A800040871382128220E030E00C94071CA4E00F
:101A9000880F991FAA95E1F7D50113969C938E9311
:101AA000129720E030E00C94071C880F991FF50175
:101AB00024813581820F931F0E943B1FD50115960B
:101AC0009C938E93149713961C921E92129720E06B
:101AD00030E00C94071CF501448155812681378143
:101AE00095838483578346833187208713821282AC
:101AF00020E030E00C94071C880F991FD501149644
:101B00002D913C911597280F391F15963C932E93D4
:101B1000149713961C921E92129720E030E00C94BA
:101B2000071C8095909574E0880F991F7A95E1F7CE
:101B3000F5019383828320E030E00C94071CDC01E4
:101B400012968D919C911397880F991F1E962D9137
:101B50003C911F97820F931F0E943B1FF501448108
:101B600055812681378195838483578346833187C6
:101B700020871382128220E030E00C94071C22811F
:101B800033818C01020F131F2027312780279127D3
:101B90002823392337FD09C0F501158304831382F7
:101BA000128220E030E00C94071C02A4F3A5E02D83
:101BB00064E070E0C50119959C01009769F30C94ED
:101BC000071C2685378580819181F90138978083AC
:101BD0009183D50114964D915C911597D901169773
:101BE0004D935C93D50116964D915C911797D90151
:101BF00014974D935C93D50118964D915C9119976C
:101C0000D90112974D935C93D5011F96FC93EE93E7
:101C10001E9714968C93149715969C93159712966D
:101C20002D913C911397280F391F11963C932E93B9
:101C300013961C921E92129720E030E00C94071C21
:101C4000892B51F4F5018081918122813381820FAA
:101C5000931F9183808308C0808591852681378179
:101C60003583248397838683F5011382128220E0D3
:101C700030E00C94071CDC0112962D913C911397D7
:101C8000220F331F1E968D919C911F97820F931FD9
:101C90001F969C938E931E9713961C921E921297DA
:101CA00020E030E00C94071CFC0124813581828106
:101CB00093812817390729F481E090E09583848384
:101CC00002C015821482F5011382128220E030E0F6
:101CD0000C94071CDC0114962D913C9115971296DB
:101CE0008D919C911397880F991F1E96ED91FC91F1
:101CF0001F97E80FF91F3183208313961C921E92C1
:101D0000129718968D919C91199716962D913C914A
:101D1000179715963C932E93149717969C938E9332
:101D2000169720E030E00C94071CFC018681978117
:101D30000280F381E02DEE0FFF1FD50114962D9147
:101D40003C911597E20FF31F9183808313961C92A9
:101D50001E92129718968D919C91199715969C93A7
:101D60008E93149720E030E00C94071CFC018281D4
:101D70009381138212828733910509F4CAC70CF04C
:101D8000D4C08A31910509F458C40CF067C08A3078
:101D9000910509F4C2C27CF58430910509F430C282
:101DA0009CF48130910509F4D8C12CF4892B09F4F5
:101DB000C7C10C94051C8230910509F4D9C1039761
:101DC00011F00C94051CE4C18730910509F461C23F
:101DD0004CF48530910509F424C2069711F00C9457
:101DE000051C45C28830910509F465C2099711F0B8
:101DF0000C94051C76C28031910509F42EC3BCF405
:101E00008D30910509F4DDC24CF48B30910509F455
:101E100096C20C9711F00C94051CA7C28E30910548
:101E200009F4EDC20F9711F00C94051CFEC2853128
:101E3000910509F48AC34CF48331910509F417C361
:101E4000449711F00C94051C3BC38631910509F4AD
:101E50008FC3499711F00C94051CB5C387329105C7
:101E600009F495C57CF58132910509F46FC49CF4A1
:101E70008D31910509F411C42CF44B9711F00C9499
:101E8000051CFEC38F31910509F420C4809711F021
:101E90000C94051C45C48432910509F4B7C44CF474
:101EA0008232910509F48FC4839711F00C94051CBC
:101EB0009EC48532910509F4B2C4869711F00C9442
:101EC000051C37C58033910509F47FC6BCF48C32FC
:101ED000910509F4CCC54CF48832910509F477C515
:101EE0008B9711F00C94051C8CC58E32910509F46A
:101EF000F1C58F9711F00C94051C32C68333910500
:101F000009F4A3C64CF48133910509F481C6C29744
:101F100011F00C94051C90C68533910509F4A5C6F3
:101F2000C69711F00C94051CCAC68335910511F4AF
:101F30000C9458190CF074C08634910511F40C946B
:101F4000AE176CF58034910509F470C77CF48933C1
:101F5000910509F429C70CF400C78B33910509F4E6
:101F600046C7CC9711F00C94051C54C783349105D7
:101F700009F49DC754F48134910509F470C7823483
:101F8000910511F00C94051C83C78434910509F464
:101F900099C78534910511F00C94051CC1C78C3488
:101FA000910511F40C944B18ECF48934910511F45B
:101FB0000C9420185CF48734910509F4DFC7883449
:101FC000910511F00C94051C0C94F6178A349105B8
:101FD00011F40C9430188B34910511F00C94051CFD
:101FE0000C943C188F34910511F40C94AC1864F4E3
:101FF0008D34910511F40C946F188E34910511F005
:102000000C94051C0C949A188135910511F40C94CC
:10201000D9188235910511F00C94051C0C944819BF
:10202000853A910511F40C94E31A0CF042C08937FB
:10203000910511F40C94331AF4F48A35910511F4D6
:102040000C94B51964F48535910511F40C946C1950
:102050008635910511F00C94051C0C948619803678
:10206000910511F40C94C1198136910511F00C946D
:10207000051C0C94FA198C37910511F40C948F1AE5
:1020800064F48A37910511F40C943F1A8B3791054B
:1020900011F00C94051C0C944B1A8138910511F425
:1020A0000C94C21A823A910511F00C94051C0C9400
:1020B000D61A8C3E910511F40C948B1BF4F4803EDF
:1020C000910511F40C94FE1A64F48D3A910511F403
:1020D0000C94EF1A8E3A910511F00C94051C0C9497
:1020E000F61A883E910511F40C940E1B893E910559
:1020F00011F00C94051C0C94401B8533F2E09F07F3
:1021000011F40C94C61B5CF48D3F910511F40C94F2
:10211000B81B8E3F910511F00C94051C0DC0863341
:1021200042E0940711F40C94DE1B8733924011F0C7
:102130000C94051C0C94EA1B23E530E00C94071C5E
:10214000F5018481958126813781358324839783A6
:10215000868320E030E00C94071C848195810E94E6
:102160004A1FF5018483158220E030E00C94071C9F
:10217000208531858481958146815781840F951F03
:10218000958384833783268320E030E00C94071CFA
:10219000F5018481958102960E943B1FD50114961A
:1021A0000D911C9115970197C9F4F80113821282C1
:1021B00014968D919C9115970E943B1FD501119605
:1021C0009C938E9314968D919C9115971F969C933A
:1021D0008E931E9720E030E00C94071CC8010296F5
:1021E0000E943B1F0197F80193838283D501969645
:1021F000ED91FC919797C50119959C010C94071CD2
:10220000F501208531858681978144815581841B24
:10221000950B958384833783268320E030E00C94EC
:10222000071C26813781848195818901080F191F38
:1022300080279127202731278223932397FD0BC0E6
:10224000F50180859185158304839783868320E03B
:1022500030E00C94071C02A4F3A5E02D64E070E0CC
:10226000C50119959C01009759F30C94071CF501C1
:10227000248135818081918195838483318320837A
:102280000684F785E02D9183808320E030E00C9474
:10229000071C2481358140855185668177819AEAC2
:1022A000E92E9BE0F92E0BE91CE0C5010E944723B3
:1022B0009C010C94071CF5018085918564817581D2
:1022C00046815781649F9001659F300D749F300D4A
:1022D0001124358324839783868320E030E00C9497
:1022E000071C46815781248135818085918524177B
:1022F000350754F421E030E03583248397838683C7
:1023000020E030E00C94071CF501158214829783BD
:10231000868320E030E00C94071C4085518526819F
:102320003781220F331F84819581820F931F9583FC
:1023300084835783468320E030E00C94071CF5012A
:1023400024813581319521953109408551856681FA
:10235000778106EBE02E0BE0F02E09EB1CE0C501C7
:102360000E9447239C010C94071C268137814481DD
:102370005581C901841B950B822793272427352774
:102380008223932397FD11C0F50120853185868135
:10239000978144815581841B950B95838483378372
:1023A000268320E030E00C94071C02A4F3A5E02D66
:1023B00064E070E0C50119959C01009729F30C9425
:1023C000071CD5010480F581E02D32978D919C91F9
:1023D000119716962D913C911797820F931F918319
:1023E000808314966D917C9115975E96ED91FC918A
:1023F0005F97C501199520E030E00C94071CF501AA
:1024000046855785668177818481DA018C9316EB46
:10241000E12E1BE0F12E09EB1CE02FEF3FEFC50191
:102420000E9447239C010C94071CF50146855785A3
:102430006681778184819581DA018D939C93B6EBD7
:10244000EB2EBBE0FB2E09EB1CE02EEF3FEFC501AE
:102450000E9447239C010C94071C02A4F3A5E02DC5
:1024600061E070E0C50119959C010C94071CF50111
:10247000268137818481958128173907A8F4D501F1
:1024800018968D919C91199716962D913C911797BE
:1024900015963C932E93149717969C938E931697AC
:1024A00020E030E00C94071C02A4F3A5E02D62E0CC
:1024B00070E0C50119959C01009709F30C94071C65
:1024C000F501448155818681978196958795E65AD5
:1024D000FF4F208131812115310541F0F501E45A8A
:1024E000FF4F608171818617970760F0D5019A963A
:1024F000ED91FC919B9760E870E0C50119959C01F6
:102500000C94071C6AE0689FF001699FF00D11248C
:10251000E20FF31F80819181009779F0841795076E
:1025200081F0D5019A96ED91FC919B9760E870E05F
:10253000C50119959C010C94071C20E030E00C9417
:10254000071C20E030E00C94071CD5010684F785B9
:10255000E02D32978D919C9111979183808396966F
:10256000ED91FC919797C50119959C010C94071C5E
:10257000F50146815781848195818A01080F191FD1
:102580002085318521703327020F131F8027912763
:10259000402751278423952397FD09C0D50115961F
:1025A0001C930E93149720E030E00C94071C02A4B7
:1025B000F3A5E02D64E070E0C50119959C0100973A
:1025C00069F30C94071CF5011186108684819581AE
:1025D000892B41F586819781892B21F580E290E056
:1025E0009187808720E030E00C94071C880F991FAA
:1025F000D50117969C938E93169714962D913C9126
:10260000159737FF05C0816017969C938E93169798
:10261000220F331FF5013583248380859185019630
:1026200091878087D50116968D919C91179797FF7A
:10263000DDCF20E030E00C94071CF501608571854A
:10264000CB01A0E0B0E0772766270681178120E064
:1026500030E0602B712B822B932B2481358140E05D
:1026600050E00E941C24D50117967C936E93169718
:1026700015963C932E93149720E030E00C94071CA1
:10268000F5018081918124813581820F931F95838B
:10269000848320E030E00C94071C248135818681FE
:1026A000978137FF0AC02FEF3FEF3783268391874B
:1026B000808720E030E00C94071CF5011782168219
:1026C0009187808720E030E00C94071C84819581FD
:1026D0000097C1F0019689F0F5012085318586814A
:1026E0009781648175810E94082495838483378350
:1026F000268320E030E00C94071C868197818115A9
:10270000904851F7D5019A96ED91FC919B9764E022
:1027100070E0C50119959C010097F1F20C94071C1B
:10272000F501868597850E943B1FD50111969C93E4
:102730008E931E968D919C911F9708961F969C9341
:102740008E931E9720E030E00C94071CF5018681E3
:10275000978102960E943B1FD50116960D911C9100
:102760001797029724F1C8010E943B1F0196F801B8
:1027700091838083D50116960D911C911797C801FE
:1027800002960E943B1F0197F80193838283D50133
:102790008D919C91119714962D913C911597821BC8
:1027A000930B8D939C9320E030E00C94071CC801A0
:1027B00002960E943B1F0197F8019383828320E0D9
:1027C00030E00C94071C04A8F5A9E02DC50119956B
:1027D000F501448155812681378195838483578310
:1027E00046833187208720E030E00C94071C81E08D
:1027F00090E024813581232B11F080E090E0F501F9
:102800009583848320E030E00C94071C8481992711
:1028100087FD90959583848320E030E0F8C7F5012B
:10282000668577856E5F7F4F8481958197FD2CC08B
:10283000EE5AFF4F2081318121153105B9F0F501A4
:10284000EC5AFF4F408151818417950778F4FC01C1
:10285000EE0FFF1FEE0FFF1FE20FF31F0190F0813D
:10286000E02D309719F0CB0119954EC0D5019A96FD
:10287000ED91FC919B9760E270E0C50119959C0178
:10288000009709F441C0C3C7F501EA5AFF4F208100
:1028900031812115310509F180959095F501E85AAE
:1028A000FF4F4081518184179507B8F4FC01EE0F6A
:1028B000FF1FE20FF31F0190F081E02D309769F0C8
:1028C000C50119959C018236910521F08237910549
:1028D00091F00DC020E030E09AC7D5019A96ED91B5
:1028E000FC919B9760E270E0C50119959C01211550
:1028F000310551F08CC7D5019696ED91FC919797D3
:10290000C50119959C0183C7F501868597850E94AD
:102910003B1FD50111969C938E931E968D919C9191
:102920001F9708961F969C938E931E9720E030E089
:102930006EC7F50106811781C80102960E943B1FF0
:102940000197D80113969C938E931297892B09F4C3
:1029500070CEF501E680F780F4E0EF0EF11CC801BF
:102960000E943B1F4C01C7010E943B1F880D991D0F
:10297000D8018D939C93F5018081918124813581CB
:10298000821B930B9183808320E030E040C7068157
:102990001781C80102960E943B1F0197F80193839B
:1029A0008283892B09F445CEC8010E943B1F019701
:1029B000D8018D939C93F50180819181248135818B
:1029C000821B930B9183808320E030E020C7D501E8
:1029D00066857785FB0132978D919C911197918344
:1029E00080835E96ED91FC915F97C5011995F50185
:1029F0001786168606A0F7A1E02DC50119959C0142
:102A000006C704A8F5A9E02DC5011995F501248193
:102A10003581AC01421B530B141615062CF166854B
:102A20007785FB013C9731832083FB013297D501E9
:102A30004D915C911197518340839E96ED91FC914D
:102A40009F97AC01C5011995D5011E96ED91FC919A
:102A50001F973897118210829696ED91FC91979767
:102A6000C50119959C01D3C620E030E0D0C6F50120
:102A700084819581009709F10196B9F0D5011896E6
:102A80002D913C91199716968D919C9117971496BC
:102A90006D917C9115970E940824F50175836483DC
:102AA0003783268320E030E0B2C6D50116968D919B
:102AB0009C9117978115904809F7D5019A96ED9149
:102AC000FC919B9764E070E0C50119959C0100970B
:102AD000A9F29DC6F50104811581E084F184868107
:102AE0009781892B09F432C0868597850A970E94C1
:102AF0003B1F8130B0E89B07F1F4F501868597858F
:102B00000C970E943B1FE81AF90A1E141F04F4F0E8
:102B1000D5011E968D919C911F970E943B1F019697
:102B2000A9F4D5011E96ED91FC911F9711830083A6
:102B300081E090E00DC08230904841F0F50166855B
:102B4000778500A8F1A9E02DC501199580E090E0F6
:102B5000D50115969C938E93149720E030E057C6CC
:102B6000F50130852185E480F58086819781892B68
:102B700009F413C0032F122FC8010E943B1F9C01B0
:102B8000D5011E968D919C911F97AC014160241731
:102B9000350731F4F8011182108280E090E00FC017
:102BA000232BD9F30E943B1F0196B9F7D5011E963E
:102BB000ED91FC911F97F182E08281E090E0F501B8
:102BC0009583848320E030E022C6048115818681CC
:102BD0009781892B19F480E090E010C0F50186857B
:102BE00097850E943B1F0196B1F7D5011E96ED9186
:102BF000FC911F971183008381E090E0F50120850F
:102C00003185958384833783268320E030E0FFC5B8
:102C1000F501A681B781248135810E94FC2320859E
:102C20003185620F731F811D911D758364839783A6
:102C3000868320E030E0EBC5848195818095909576
:102C40009583848320E030E0E2C5F501208531855D
:102C50008481958146815781842795279583848334
:102C60003783268320E030E0D2C580859185468178
:102C700057812481358120323105D0F4A0E0B0E0C5
:102C8000DC019927882760E070E0842B952BA62B28
:102C9000B72B04C0B695A795979587952A95D2F737
:102CA000F50195838483B783A68320E030E0AFC528
:102CB000158214821782168220E030E0A8C5F50143
:102CC0004085518586819781248135812032310567
:102CD000C8F460E070E0BA0155274427A0E0B0E0F6
:102CE000482B592B6A2B7B2B04C0440F551F661FA2
:102CF000771F2A95D2F7558344837783668320E034
:102D000030E085C5158214821782168220E030E0FB
:102D10007EC5F5014681578164817581CA01860FA0
:102D2000971F2085318521703327280F391F358360
:102D30002483809590959B01242B352B822393230C
:102D400046235723842B952B892F881F8827881F7C
:102D50008683178220E030E05AC52681378144817E
:102D600055818901041B150B8085918581709927F8
:102D7000081B190BC8018227932724273527822394
:102D8000932397FD06C0F5011583048320E030E00E
:102D90003EC502A4F3A5E02D64E070E0C5011995DD
:102DA0009C01009781F333C5F501848195810697D5
:102DB0000E943B1FDC018A159B0559F0F5014481F7
:102DC00055819096ED91FC919197B50119959C01D3
:102DD0001EC5D50114966D917C9115975E96ED9167
:102DE000FC915F97C501199520E030E010C5D50131
:102DF0000480F581E02D16968C91169780831896A5
:102E00008D919C91199715969C938E93149720E021
:102E100030E0FDC4F50186859785248135813787AB
:102E200026879583848320E030E0F1C424813581B6
:102E30002031310540F48681978102C096958795AF
:102E40002A95E2F702C080E090E0F5012085318507
:102E5000958384833783268320E030E0D8C424819F
:102E600035812031310540F48681978102C0880F79
:102E7000991F2A95E2F702C080E090E0F5012085D5
:102E80003185958384833783268320E030E0BFC477
:102E9000248135818681978140E050E855834483C1
:102EA000378326839187808720E030E0B0C4068492
:102EB000F785E02D389781E090E89183808320E0CA
:102EC00030E0A5C4F501868597852FEF3FEFDC0143
:102ED0002D933C9308970E943B1F83309048E9F064
:102EE000F50186859785FC01389722E030E831832B
:102EF0002083FC013697B182A082FC013297D50174
:102F00002D913C911197318320839696ED91FC9100
:102F10009797C50119959C017AC420E030E077C4E9
:102F2000F501868597850E943B1FD5018F3FFFEFF6
:102F30009F0751F02D913C911197280F391F2D9328
:102F40003C9320E030E063C49A96ED91FC919B970E
:102F500060E170E0C50119959C0159C4F501208517
:102F6000318584819581468157818423952395837A
:102F700084833783268320E030E049C4E480F580F1
:102F800006811781E114F10439F1F50186859785F1
:102F90000A970E943B1FD5011E962D913C911F97C9
:102FA0008230904841F4F9013A9781E090E89183AA
:102FB0008083F9010EC0C9010C970E943B1F801B42
:102FC000910B1816190644F4D5011E96ED91FC914B
:102FD0001F973C9711830083F50180859185F582C9
:102FE000E4829783868320E030E011C49681878154
:102FF000E480F580E114F104C9F0092F182FC8010D
:103000000E943B1FF50126853785A9014160009785
:1030100021F4D8014D935C9309C08417950731F0D2
:10302000F901389783E090E891838083F5018085EA
:103030009185F582E4829783868320E030E0E7C3C0
:1030400084819581892B09F4F4CA0684F785E02DE3
:10305000389783E090E89183808320E030E0D7C305
:10306000F5014481558160857185868197810E9433
:10307000550C20E030E0CBC32085318584819581DB
:1030800046815781842B952B9583848337832683B0
:1030900020E030E0BCC3F501248135818681978131
:1030A00037FF0EC0019671F4D50118968D919C9151
:1030B000199717969C938E93169720E030E0A7C33C
:1030C000892B91F3D5019A96ED91FC919B9762E043
:1030D00070E0C50119959C01009731F398C3F50183
:1030E000868197810097C9F0248135812817390797
:1030F000A0F0D50118968D919C91199716962D9157
:103100003C91179715963C932E93149717969C9382
:103110008E93169720E030E07AC3D5019A96ED9110
:10312000FC919B9762E070E0C50119959C010097A6
:1031300001F36DC3F50186859785FC01389721E081
:1031400030E831832083FC013A9722E030E8318374
:10315000208320E030E05BC3D50146815781248184
:103160003581BA01621B730B808591858170992727
:10317000681B790B75836483C90184239523F90146
:10318000E42BF52B8E1B9F0B0197862397234095ED
:10319000509542235323842B952B892F881F8827F2
:1031A000881F16968C93169717961C9220E030E095
:1031B0002EC304A8F5A9E02DC50119958C01F501D0
:1031C000868597852FEF3FEFDC012D933C93089781
:1031D0000E943B1FF501268537858330904839F4DE
:1031E000F9013C971183008320E030E010C3C9014E
:1031F0000A970E943B1F8230904869F1D5011E96C4
:103200008D919C911F970C970E943B1F9801281B42
:10321000390BF50166857785121613066CF4FB01F0
:10322000389783E090E891838083FB013C9711837A
:10323000008320E030E0EBC29C012F5F3F4FFB0199
:103240003C9731832083D5019E96ED91FC919F9709
:10325000A801C5011995F50186859785FC01389768
:1032600022E030E831832083FC013697B182A082CE
:10327000FC013297D5012D913C9111973183208328
:103280009696ED91FC919797C50119959C01BFC247
:10329000F501208531858481958146815781840F90
:1032A000951F958384833783268320E030E0AFC267
:1032B000808591856481758146815781649F9001E5
:1032C000659F300D749F300D1124358324839783BF
:1032D000868320E030E09BC2F501808D918D892BA3
:1032E00091F00684F785E02D3297D5018D919C9160
:1032F0001197918380839696ED91FC919797C501E4
:1033000019959C0184C220E030E081C2F5018681DC
:1033100097812481358182179307D4F431952195C3
:10332000310982179307A4F0D50118968D919C91CD
:10333000199716962D913C91179715963C932E93BD
:10334000149717969C938E93169720E030E05FC2F7
:10335000D5019A96ED91FC919B9762E070E0C501D2
:1033600019959C01009701F352C2F501868197815E
:1033700024813581378326839187808720E030E060
:1033800046C2D5018681978196958795F501E65AC3
:10339000FF4F208131812115310509F1F501E45AF2
:1033A000FF4F4081518184179507C8F44AE0489F38
:1033B000F001499FF00D1124E20FF31F0280F38109
:1033C000E02D309761F018964D915C911997149605
:1033D0006D917C911597C50119959C0118C2D50175
:1033E0009A96ED91FC919B9760E870E0C501199564
:1033F0009C010DC2F5018681978196958795E65AC5
:10340000FF4F208131812115310511F1F501E45A79
:10341000FF4F4081518184179507D0F44AE0489FBF
:10342000F001499FF00D1124E20FF31F0480F58194
:10343000E02D309769F0D50118964D915C91199760
:1034400014966D917C911597C50119959C01DFC16A
:10345000D5019A96ED91FC919B9760E870E0C501CB
:1034600019959C01D4C1F50180859185268137810C
:10347000358324839783868320E030E0C8C10480AD
:10348000F581E02D81E090E09183808313821282A8
:1034900020E030E0BCC1F50104811581C8010E9423
:1034A0003B1F8130910531F4D8011D921C9220E020
:1034B00030E0ADC1F50126853785F90134971182D9
:1034C0001082F9013697B182A082F9013297D501B5
:1034D0004D915C9151834083892B31F4F801208315
:1034E00031832283338312C0C80102960E943B1F9E
:1034F000D5011E962D913C911F970497FC013183B5
:103500002083D80113963C932E931297D50196965B
:10351000ED91FC919797C50119959C0178C1F50132
:10352000E480F580C7010E943B1F8C01009741F4A5
:1035300081E090E0D7018D939C9320E030E067C15B
:1035400004970E943B1FF70191838083C80106976F
:103550000E943B1FDC018A159B0549F09096ED9176
:10356000FC919197A801B50119959C0150C1D50115
:103570005E96ED91FC915F97B801C501199520E029
:1035800030E045C1F5014085518526813781220F04
:10359000331F220F331F84819581820F931F9583E0
:1035A00084835783468320E030E031C12481358114
:1035B000868197811582148237832683918780873D
:1035C00020E030E024C1F501808591852681378196
:1035D000358324839783868320E030E018C180857B
:1035E00091859387828720E030E011C1F5018285C3
:1035F00093859187808720E030E009C1848195819F
:10360000892B49F402A4F3A5E02D61E070E0C50127
:1036100019959C01FCC020E030E0F9C0F501E48080
:10362000F5808701C8010E943B1F892B31F5D50128
:103630001E962D913C911F97F901389782E090E8F2
:1036400091838083F9013697B182A082F901349782
:10365000E082F182F90132978D919C9111979183CB
:1036600080832160F801318320839696ED91FC914F
:103670009797C50119959C01CAC020E030E0C7C0EA
:103680008680978024813581408551856AEAC62EDF
:103690006BE0D62E7BE9E72E7CE0F72E8E010F5FE4
:1036A0001F4FB401C5010E9496229C0118161906ED
:1036B0000CF4ADC0009759F0D5019A96ED91FC91AC
:1036C0009B9760E470E0C50119959C01A0C08981B9
:1036D0009A8181309105D9F4F50166857785FB01E2
:1036E0003297D5018D919C911197918380835E963D
:1036F000ED91FC915F97C5011995F5011786168626
:1037000006A0F7A1E02DC50119959C0180C0D40148
:103710008D939C937CC0F501E480F580C7010E94E5
:103720003B1F8130910509F1D7011D921C928C013C
:103730000E7FC80106970E943B1FDC018A159B057E
:1037400049F09096ED91FC919197A801B5011995DA
:103750009C015DC0D5015E96ED91FC915F97B8012B
:10376000C501199520E030E052C020E030E04FC0A4
:10377000F5012481358186819781158214823783F2
:1037800026839187808720E030E041C0D5011496E0
:103790002D913C91159716968D919C9117971596A2
:1037A0001C921E92149717963C932E931697199677
:1037B0009C938E93189720E030E029C0F501808516
:1037C000918526813781358324839783868320E002
:1037D00030E01DC0D50114962D913C911597169699
:1037E0008D919C91179715961C921E92149717967F
:1037F0003C932E93169719969C938E93189720E0DE
:1038000030E005C029E430E002C029E430E0C9011D
:103810000F900F90DF91CF911F910F91FF90EF903C
:10382000DF90CF90BF90AF909F908F900895FC0154
:10383000842B952B80FF03C04E0F5F1F18C0CA0159
:1038400033E0969587953A95E1F7892BA9F3772789
:10385000962F8827862B972B56954795DF0102C018
:103860008D939D9341505109D8F704C06193E4179B
:10387000F507E1F7CF010895FC0111821082138250
:10388000128280E090E00895FC01E25AFF4F01901F
:10389000F081E02D208131818217930709F408C05F
:1038A000F901E05AFF4F2081318128173907C1F70C
:1038B000DC01A05ABF4F2D913C9131832083FC0144
:1038C000E25AFF4F11821082FC01E05AFF4F118231
:1038D00010820895FC0189E690E0938F828F118E0B
:1038E000108E158E148E1382128215821482178206
:1038F00016821186108617861686118A108A138AF8
:10390000128A158A148A08950F931F93CF93DF9319
:103910008C01EB01CB010E946A1C1D861C861DAA2E
:103920001CAA19A618A61FAA1EAAFE01EE5AFF4F2E
:1039300011821082FE01EC5AFF4F11821082FE01AB
:10394000EA5AFF4F11821082FE01E85AFF4F11829E
:103950001082FE01E65AFF4F11821082FE01E45AE6
:10396000FF4F11821082FE01E25AFF4F1183008344
:10397000D8018D919C911197892B19F4CD93DC93EB
:1039800009C0D8011296ED91FC911397E05AFF4FB0
:10399000D183C083F801D383C283FE01E05AFF4F75
:1039A00011821082CE01DF91CF911F910F910C9463
:1039B0009D210F931F934F5F5F4F81E090E00115B2
:1039C000110511F480E090E0480F591F4430510573
:1039D00014F444E050E04F5F5F4F420F531F400F1D
:1039E000511F4B5F5F4FCA011F910F910895AF9216
:1039F000BF92CF92DF92EF92FF920F931F93F60147
:103A000081E0E114F10409F480E02F5F3F4F280FBB
:103A1000311D2430310514F424E030E0020F131F6F
:103A20000B5F1F4F000F111F060F171F118300831D
:103A3000811102C000E010E0D5010D931C9320819C
:103A40003181261B370B359527952E0D3F1DC9015A
:103A50001F910F91FF90EF90DF90CF90BF90AF90AC
:103A600008958F929F92AF92BF92CF92DF92EF9282
:103A7000FF920F931F93CF93DF93FC0189E0E81629
:103A8000F1040CF093C0DF01A05CBF4FED92FC92FB
:103A900046016F01E80180E090E019C0B9908F0104
:103AA000080F191FD801D896BC92B2E0CB0ED11CDA
:103AB000A6E4BA1609F47DC0D401AD90BD904D01C5
:103AC0008601005C1F4FD801AD92BC9201968E1505
:103AD0009F0524F371836083DA011297B787A68765
:103AE0008FE28C93A685B7858EEF11968C93BFEFEE
:103AF000EB1AFB0A81E090E02115310511F480E01A
:103B000090E0A701480F591F4430510574F484E038
:103B100090E0841B950B880F991F46855785481B9D
:103B2000590B5787468744E050E02115310539F09D
:103B3000A685B7851297B787A6872D933C93DF019B
:103B4000A05CBF4F6D917C91CB010197660F771FF1
:103B50006E0F7F1F20E030E019C0DF01A80FB91FF2
:103B6000D896AC91A63479F0A685B7851297B78719
:103B7000A687EB01C20FD31FC05CDF4F0990D8812D
:103B8000C02DCD93DC9301972250310997FFE5CFEB
:103B9000A685B7851297B787A687440F551F4A0F8A
:103BA0005B1F4D935C9320E030E005C02FEF3FEFAB
:103BB00002C02EEF3FEFC901DF91CF911F910F910E
:103BC000FF90EF90DF90CF90BF90AF909F908F903D
:103BD00008952F923F924F925F926F927F928F92B1
:103BE0009F92AF92BF92CF92DF92EF92FF920F938C
:103BF0001F93CF93DF9300D01F92CDB7DEB75C0148
:103C00006C01E12CF12C1C0120E4220E311C442417
:103C10004394512C6CC0F501EE0DFF1D80AD813237
:103C200019F08F3309F05DC0F601EE5BFF4F808025
:103C30009180C4010E943B1F3C018E7F9C838B833B
:103C4000009709F44BC006970E943B1F8C018B81A3
:103C50009C81089760FE1CC00E943B1F8130A0E839
:103C60009A0771F082309048C9F5D8019096ED918D
:103C7000FC9191974B815C8160E070E0C8011995DF
:103C8000EB81FC81389783E090E89183808326C0A4
:103C90000E943B1F382F292F8B819C8104972A83F8
:103CA00039830E943B1F2A8139811816190664F056
:103CB000D8019096ED91FC9191974B815C8160E0E9
:103CC00070E0C80119950AC0E32FF22F8E0F9F1FD5
:103CD00001C01192E817F907E1F7EACFF401518228
:103CE0004082FFEFEF1AFF0A22E0C20ED11CD10181
:103CF0008D919C91E816F9060CF48DCF0F900F90E2
:103D00000F900F90DF91CF911F910F91FF90EF9047
:103D1000DF90CF90BF90AF909F908F907F906F90EB
:103D20005F904F903F902F9008958F929F92AF9207
:103D3000BF92CF92DF92EF92FF920F931F93CF9398
:103D4000DF936C018B01EA01CC0FDD1FC60FD71F7B
:103D5000C617D70720F4812F8E01C62FD82F460112
:103D6000E12CF12C560180E4A80EB11C1BC0F60119
:103D7000EE0DFF1D80AD813211F08F3369F4F40137
:103D8000EE5BFF4F808191810E943B1F801791075E
:103D900018F0C817D90778F4EFEFEE1AFE0AF2E030
:103DA0008F0E911CF50180819181E816F906FCF2D5
:103DB00020E030E002C021E030E0C901DF91CF9186
:103DC0001F910F91FF90EF90DF90CF90BF90AF9039
:103DD0009F908F9008950C94B90B0C94D90C0F936D
:103DE0001F93CF93DF93EC018B01CE010E94B90B9F
:103DF000682FCE010E94D90C9C010250110911F0CC
:103E0000009799F33B8F2A8FC901DF91CF911F91C2
:103E10000F910895CF93DF93EC010E94300C00972F
:103E200039F461E070E0CE01DF91CF910C94EF1E88
:103E3000DF91CF9108950F931F93CF93DF93EC0100
:103E40008B010E94300C9C01009759F4B801660F59
:103E5000771FCE010E94EF1E9C01009711F424E70A
:103E600030E0C901DF91CF911F910F9108959C011E
:103E70003058C9010895FC01E11580E8F80728F0E1
:103E8000F05825913491C901089580819181089558
:103E90000C943B1FFC018115904818F0F058849158
:103EA000089580810895811520E8920750F0905878
:103EB000FC014591559165917491342F252FCB01CB
:103EC0000BC0FC0160817181882777FD8095982F58
:103ED0000E94C123362F272FF9016F2F722F0895CB
:103EE000811520E8920748F09058FC0145915591C2
:103EF000659174919A01CB010AC0FC0160817181C6
:103F0000882777FD8095982F0E94C1239B01622FFF
:103F1000732F0895FC01DB0114971D921C92808978
:103F20009189892B19F4718B608B05C0A289B389A3
:103F300014976D937C93738B628B08950F931F93EB
:103F4000CF93DF93EC018B01EE8DFF8DBA011995B4
:103F50000115110559F02C853D85F801848595855D
:103F6000281739071CF420E730E002C020E030E0D9
:103F7000C901DF91CF911F910F910895FC01DA01E2
:103F800014971D921C9280899189892B19F4718B49
:103F9000608B05C0A289B38914976D937C93538B72
:103FA000428B0895DC019496ED91FC91959740E049
:103FB00050E061E070E01994FC01248D358D40954E
:103FC000509542235323462B572B558F448F0895EA
:103FD000FC01208D318D262B372B318F208F85E4EE
:103FE00090E008956F927F928F929F92AF92BF92CE
:103FF000CF92DF92EF92FF920F931F93CF93DF93B5
:10400000EC016B01EC88FD888E899F89E114F10435
:1040100009F456C0861B970B181619060CF450C0ED
:10402000AA24A39480E8B82E93E0892E90E8992ED4
:1040300037012AE0621A7108C3010E943B1F8C01FC
:10404000F301B182A082F7013C97D182C08237018F
:10405000F8E06F1A7108C3010E943B1F833090483B
:1040600041F0F30191828082EE8DFF8DB701CE0188
:1040700019950115110519F41D8A1C8A21C0C80162
:104080000C970E943B1F78019C012C193D091216C8
:10409000130674F61D8B0C8B9F8B8E8BE8A5F9A5F0
:1040A000CE01DF91CF911F910F91FF90EF90DF90A4
:1040B000CF90BF90AF909F908F907F906F9019940A
:1040C000DF91CF911F910F91FF90EF90DF90CF90F4
:1040D000BF90AF909F908F907F906F900895EF92D8
:1040E000FF920F931F93CF93DF93EC018B01EC882A
:1040F000FD88E616F70691F4CB010A970E943B1F54
:104100009D8B8C8B009731F10C970E943B1F9F8BEE
:104110008E8BE8A5F9A5CE0119951CC0E114F10418
:10412000C9F0C7010A970E943B1F11C0C017D107F1
:1041300049F4C8010A970E943B1FF7013A979183FF
:10414000808308C0CE010A970E943B1F7E01EC01CC
:10415000009761F7F8013A9782E090E891838083B5
:10416000DF91CF911F910F91FF90EF900895CF9223
:10417000DF92EF92FF920F931F93CF93DF93DC01B7
:104180008B0169015496ED90FC905597E114F10470
:10419000A1F455967C936E93549757963C932E9327
:1041A0005697FB0132978D919C9111979183808353
:1041B000FB013A971182108215C056968D919C9101
:1041C0005797821B930B18161906D4F4FB013A97E4
:1041D000F182E08255967C936E93549757963C9368
:1041E0002E9356979896ED91FC919997CD01DF917A
:1041F000CF911F910F91FF90EF90DF90CF90199486
:10420000C7010A970E943B1FEC01009749F4F70190
:104210003A9711830083F8013A971182108217C0F0
:104220000C970E943B1F8C199D09181619064CF417
:10423000F8013A97D183C083F7013A97118300833D
:1042400006C0CE010A970E943B1F7E01DDCFDF91A1
:10425000CF911F910F91FF90EF90DF90CF90089535
:10426000CF93DF93EC018C8D9D8D81FD1AC08C8DD9
:104270009D8D80FF19C0ECA9FDA9CE011995EAA971
:10428000FBA9BC01CE0119958C899D89892B79F4F4
:10429000ECA1FDA141E050E060E070E0CE01199595
:1042A00006C028E730E005C025E430E002C020E089
:1042B00030E0C901DF91CF910895CF93DF93EC01F6
:1042C0008C8D9D8D892B51F0ECA5FDA5CE01199506
:1042D0009C01009719F01F861E862BC0888999893A
:1042E000009741F09F878E872A893B898217930721
:1042F00091F40CC01F861E868C899D89892B19F02C
:1043000023E730E016C025E630E013C0198A188A8A
:104310001B8A1A8A05C004970E943B1F998B888BC1
:104320008E859F8502970E943B1F9983888320E09A
:1043300030E0C901DF91CF910895FC018AE89FE147
:10434000978F868F8EE99FE191A380A38EEB9FE1EB
:1043500093A382A38CED9FE195A384A38DE591E2C5
:1043600097A386A388EE9FE193A782A780E391E2BB
:1043700095A784A787EB90E297A786A78FE690E2A0
:1043800091AB80AB82EF9FE193AB82AB82ED9FE17B
:1043900091A780A70895CF93DF931F921F92CDB767
:1043A000DEB70E94570A0E947401789460E071EEB3
:1043B00080E090E00E94DF068BEA91E09F938F936C
:1043C0000E94E724E5EDFCE0EE7FF093D20CE09351
:1043D000D10CCF0188589A4F0F900F9020E030E811
:1043E00021933193E817F907D9F78DE492E10E9400
:1043F0003C1C63E572E18DE492E10E94841C4091D3
:10440000D10C5091D20C2CEB32E060E075E583E5E5
:1044100092E10E94F508892B29F060E070E084ECBD
:1044200091E077C080915312909154129093D00CE8
:104430008093CF0C8EE69AE0909388128093871237
:1044400080E69AE0909378128093771280E092E071
:104450009093AA128093A912809108029091090268
:104460009093AC128093AB120E94720A7BEDE72E00
:1044700071E0F72EEBEECE2EE1E0DE2EFF92EF9212
:104480000E94E7240E94720A61E070E083E592E1F5
:104490000E941B1F8C019A8389831F938F931F9304
:1044A0008F93DF92CF920E94E7240E94720A0FB688
:1044B000F894DEBF0FBECDBF00371105F9F23CF412
:1044C0000335110541F10536110551F519C00437C1
:1044D0001105A1F20837110581F00337110501F527
:1044E0000091691210916A120E94160AC801861B77
:1044F000970B18161906C4F3C1CF0E941806BECF39
:104500000E945206892B09F0B9CF60E070E084E088
:1045100092E00E94780B60E070E08DE092E0F9CFCD
:10452000BE016F5F7F4F8CE192E0F3CF4F925F92BD
:104530006F927F928F929F92AF92BF92CF92DF92B3
:10454000EF92FF920F931F93CF93DF93EC015B01E8
:104550004A013901CB010E943B1F2C01E89440F82D
:10456000F80191838083009709F467C080FD19C02A
:10457000F501118210829201A301B401CE01F7016D
:10458000DF91CF911F910F91FF90EF90DF90CF902F
:10459000BF90AF909F908F907F906F905F904F9063
:1045A000199441145104A1F1C20108970E943B1FC4
:1045B0008230F0E89F0779F0F80111821082813093
:1045C000F0E89F077CF0833020E8920724F08330E6
:1045D000904841F432C0F201389783E090E891832B
:1045E00080832BC0EAA5FBA560E470E0CE01DF91DB
:1045F000CF911F910F91FF90EF90DF90CF90BF90E0
:10460000AF909F908F907F906F905F904F90199494
:10461000A301B401CE01F601DF91CF911F910F915B
:10462000FF90EF90DF90CF90BF90AF909F908F90D2
:104630007F906F905F904F9019948E859F85FC01BD
:10464000389791828082FC013697D183C083FC0128
:10465000349771826082FC013297288139813183DD
:104660002083F501918380838FEF9FEFDF91CF91BE
:104670001F910F91FF90EF90DF90CF90BF90AF9080
:104680009F908F907F906F905F904F900895AF9222
:10469000BF92CF92DF92EF92FF920F931F93CF932F
:1046A000DF931F921F92CDB7DEB75C0167017801DF
:1046B0008E010F5F1F4F0E9496229C010097D1F43C
:1046C00089819A81892BE9F0D5011E966D917C91A3
:1046D0001F97FB0132978D919C9111979183808355
:1046E0005E96ED91FC915F97C5011995F5011786CE
:1046F000168607C018161906A4F18E3FFFEF9F0714
:1047000071F189819A818E7F9A8389830097F1F074
:1047100006970E943B1FDC0149815A818A159B053F
:1047200051F09096ED91FC919197B50119959C01EE
:104730000097B9F40BC0F50157874687CA01029765
:104740000E943B1FD5018D939C9309C0D50196967D
:10475000ED91FC919797C50119959C0102C020E04D
:1047600030E0C9010F900F90DF91CF911F910F9111
:10477000FF90EF90DF90CF90BF90AF900895E894B6
:1047800009C097FB3EF490958095709561957F4F99
:104790008F4F9F4F9923A9F0F92F96E9BB27939547
:1047A000F695879577956795B795F111F8CFFAF457
:1047B000BB0F11F460FF1BC06F5F7F4F8F4F9F4F88
:1047C00016C0882311F096E911C0772321F09EE8E6
:1047D000872F762F05C0662371F096E8862F70E04C
:1047E00060E02AF09A95660F771F881FDAF7880F26
:1047F0009695879597F90895A29FB001B39FC00140
:10480000A39F01D0B29F700D811D1124911D0895A9
:1048100097FB072E16F4009407D077FD09D00E946D
:104820005A2407FC05D03EF4909581959F4F08953A
:10483000709561957F4F0895A1E21A2EAA1BBB1BAC
:10484000FD010DC0AA1FBB1FEE1FFF1FA217B3075C
:10485000E407F50720F0A21BB30BE40BF50B661F72
:10486000771F881F991F1A9469F760957095809536
:1048700090959B01AC01BD01CF010895052E97FBDA
:1048800016F4009407D057FD0DD00E941C2407FC9D
:1048900009D07EF490958095709561957F4F8F4FEC
:1048A0009F4F089550954095309521953F4F4F4F1C
:1048B0005F4F0895AA1BBB1B51E107C0AA1FBB1F76
:1048C000A617B70710F0A61BB70B881F991F5A959C
:1048D000A9F780959095BC01CD010895FB01DC01FD
:1048E00004C08D910590801921F441505040C8F7C3
:1048F000881B990B0895FB01DC0102C005900D9205
:1049000041505040D8F708950F931F93CF93DF93F2
:10491000EC018B01009731F46115710519F4E0E0A9
:10492000F0E037C06EE070E081E090E00E94172771
:10493000FC010097A1F380E883830115110571F054
:104940001387028781E883838091B7129091B81210
:10495000892B21F4F093B812E093B7122097C9F095
:10496000D187C0878381826083838091B9129091BF
:10497000BA12892B71F4F093BA12E093B9128091B4
:10498000BB129091BC12892B21F4F093BC12E093DE
:10499000BB12CF01DF91CF911F910F910895CF935B
:1049A000DF931F921F92CDB7DEB7FE01389661915B
:1049B0007191FA83E983AF018091B9129091BA1293
:1049C0000E9411250F900F90DF91CF9108950F93C2
:1049D0001F93CF93DF931F921F92CDB7DEB7FE01D7
:1049E0003A9661917191FA83E98309EB12E1D8015A
:1049F0008D919C91DC0113962C911397286013964E
:104A00002C93AF010E941125D801ED91FC912381D7
:104A1000277F23830F900F90DF91CF911F910F91EC
:104A200008952F923F924F925F926F927F928F9252
:104A30009F92AF92BF92CF92DF92EF92FF920F932D
:104A40001F93CF93DF93CDB7DEB72C970FB6F894B3
:104A5000DEBF0FBECDBF7C016B018A01FC01178256
:104A60001682838181FFC7C188248394912C8C0E88
:104A70009D1EF7019381F60193FD859193FF81912E
:104A80006F01882309F4B3C1853239F493FD859110
:104A900093FF81916F01853229F4B70190E00E9464
:104AA0008B28E7CF712C312C20E02032A8F48B32F8
:104AB00061F028F4803251F0833271F40BC08D32F2
:104AC00039F0803349F4216028C02260246025C079
:104AD000286023C0206121C027FD27C0382F305314
:104AE0003A3078F426FF06C0FAE07F9E300D11249C
:104AF000732E13C08AE0389E300D1124332E2062AD
:104B00000CC08E3221F426FD72C1206406C08C36A2
:104B100011F4206802C0883641F4F60193FD8591B6
:104B200093FF81916F018111C0CF982F95549330DD
:104B300018F09052933028F40C5F1F4FFFE3F98375
:104B40000DC0833631F0833771F0833509F05EC0D4
:104B500023C0F801808189830E5F1F4F6624639410
:104B6000712C540115C02801F2E04F0E511CF801C0
:104B7000A080B18026FF03C0672D70E002C06FEFF8
:104B80007FEFC5012C870E9480283C0182012C8583
:104B90006FE7262E222218C02801F2E04F0E511C8A
:104BA000F801A080B18026FF03C0672D70E002C02D
:104BB0006FEF7FEFC5012C870E946E283C012C858A
:104BC00050E8252E222A820123FC1CC006C0B70112
:104BD00080E290E00E948B283A94832D90E0681642
:104BE0007906A8F30FC0F50127FC859127FE819176
:104BF0005F01B70190E00E948B2831103A94F1E0F8
:104C00006F1A71086114710471F7EEC0843611F0E7
:104C1000893641F5F80127FF07C0608171818281E3
:104C200093810C5F1F4F08C060817181882777FDD9
:104C30008095982F0E5F1F4F4FE6642E622297FFDC
:104C400009C090958095709561957F4F8F4F9F4FCC
:104C5000F0E86F2A2AE030E0A4010E94B728A82ECD
:104C6000A81844C0853731F43FEEB32EB2222AE0B3
:104C700030E024C099EFB92EB2228F36B9F020F47B
:104C8000883509F0B4C00DC0803721F0883709F0AD
:104C9000AEC002C020E1B22AB4FE0BC084E0B82A44
:104CA00008C024FF09C0E6E0BE2A06C028E030E0C4
:104CB00005C020E130E002C020E132E0F801B7FE9B
:104CC00007C060817181828193810C5F1F4F06C094
:104CD0006081718180E090E00E5F1F4FA4010E940F
:104CE000B728A82EA8188FE7682E6B2066FE0BC089
:104CF000362D3E7FA71450F464FE0AC062FC08C043
:104D0000362D3E7E05C0BA2C362D03C0BA2C01C00C
:104D1000B72C34FF0DC0FE01EA0DF11D80818033F8
:104D200011F4397E09C032FF06C0B394B39404C0B5
:104D3000832F867809F0B39433FD14C030FF0FC081
:104D40007A2CB31460F4730C7B18B32C08C0B70131
:104D500080E290E03C870E948B28B3943C85B3149A
:104D6000B0F304C0B31410F43B1801C0312C34FF6D
:104D700012C0B70180E390E03C870E948B283C85FD
:104D800032FF1EC031FF03C088E590E002C088E713
:104D900090E0B7010CC0832F867891F031FD02C0FE
:104DA00080E201C08BE237FD8DE2B70190E00E9406
:104DB0008B2806C0B70180E390E00E948B287A948C
:104DC000A714C0F3AA94F401EA0DF11DB701808184
:104DD00090E00E948B28A110F5CF06C0B70180E2B9
:104DE00090E00E948B283A943110F8CF42CEF70120
:104DF0002681378102C02FEF3FEFC9012C960FB6F5
:104E0000F894DEBF0FBECDBFDF91CF911F910F9100
:104E1000FF90EF90DF90CF90BF90AF909F908F90DA
:104E20007F906F905F904F903F902F9008950F93D9
:104E30001F93CF93DF93689F8001699F100D789F28
:104E4000100D1124C8010E943527C82FD92F209793
:104E500031F0A80160E070E08C2F0E947928CE012B
:104E6000DF91CF911F910F9108950F931F93CF93CF
:104E7000DF938230910510F482E090E0E091BF1260
:104E8000F091C01220E030E0C0E0D0E023C04081CB
:104E9000518148175907A8F04817590761F48281D2
:104EA0009381209719F09B838A832EC09093C01220
:104EB0008093BF1229C02115310529F042175307ED
:104EC00010F0A90102C0BE01DF0102811381EF01D0
:104ED0009A01F8013097D9F62115310509F1281BFF
:104EE000390B2430310590F412968D919C911397D3
:104EF0006115710521F0FB019383828304C09093B7
:104F0000C0128093BF12FD01329644C0FD01E20F32
:104F1000F31F81939193225031092D933C933AC012
:104F20002091BD123091BE12232B41F42091040236
:104F3000309105023093BE122093BD1220910202DF
:104F4000309103022115310541F42DB73EB7409150
:104F5000060250910702241B350BE091BD12F0911F
:104F6000BE12E217F307A0F42E1B3F0B28173907D8
:104F700078F0AC014E5F5F4F2417350748F04E0FB5
:104F80005F1F5093BE124093BD128193919302C054
:104F9000E0E0F0E0CF01DF91CF911F910F910895F4
:104FA000EF92FF920F931F93CF93DF93009709F433
:104FB0008EC0DC01129713961C921E921297E090FD
:104FC000BF12F090C012E114F10489F42D913C91CC
:104FD0001197280F391F8091BD129091BE12821730
:104FE000930789F5B093BE12A093BD1270C0E7017C
:104FF00020E030E001C0EA01CA17DB0738F44A813B
:105000005B819E0141155105B1F722C0AC014250B0
:105010005109FA01D383C28300811181BC01600F61
:10502000711F6C177D0761F468817981600F711FB2
:105030006E5F7F4F718360836A817B81738362833C
:105040002115310529F4B093C012A093BF123FC0BF
:10505000F901B383A283E90149915991C40FD51F86
:10506000AC17BD0771F4DC019E918E91840F951FE2
:1050700002969183808312968D919C9113979383CE
:105080008283A0E0B0E002C0D7017C01F7018281F9
:1050900093810097C9F7C701029620813181820F61
:1050A000931F2091BD123091BE122817390779F451
:1050B000109729F41092C0121092BF1204C01396D8
:1050C0001C921E921297F092BE12E092BD12DF91D6
:1050D000CF911F910F91FF90EF900895FC010590E3
:1050E000615070400110D8F7809590958E0F9F1FEA
:1050F0000895DC0101C06D9341505040E0F70895E0
:10510000FC016150704001900110D8F78095909596
:105110008E0F9F1F08950F931F93CF93DF938C01E2
:10512000EB018B8181FD03C00FEF1FEF1AC082FFDF
:105130000DC02E813F818C819D812817390764F431
:10514000E881F9810193F983E88306C0E885F98550
:10515000802F1995892B41F78E819F8101969F831E
:105160008E83C801DF91CF911F910F910895FA01AD
:10517000AA27283051F1203181F1E8946F936E7F96
:105180006E5F7F4F8F4F9F4FAF4FB1E03ED0B4E087
:105190003CD0670F781F891F9A1FA11D680F791FC8
:1051A0008A1F911DA11D6A0F711D811D911DA11DD9
:1051B00020D009F468943F912AE0269F11243019E9
:1051C000305D3193DEF6CF010895462F4770405D84
:1051D0004193B3E00FD0C9F7F6CF462F4F70405D33
:1051E0004A3318F0495D31FD4052419302D0A9F78E
:1051F000EACFB4E0A6959795879577956795BA9588
:10520000C9F700976105710508959B01AC010A2E4D
:1052100006945795479537952795BA95C9F7620F24
:0E522000731F841F951FA01D0895F894FFCFE3
:10522E005F060000C11220000100C306CA06D106A7
:10523E00D806A907820787078C07910795079B0752
:10524E00A007A407CA07A807AE08AB07AF07B307A6
:10525E00B8070000390ABC07BF07C407E3081608E1
:10526E00C9070009CF07D209D4070609C007D90715
:10527E00E007E807F007F7070000010807080F0826
:10528E001508000000001A081F082408000029084D
:10529E000000AE0A2F083308380840084B0856089D
:1052AE005E0864086A0800000000FF08200800007D
:1052BE0075087A087F08840889088D08000091080F
:1052CE0096089B08A008A5080000AA08AD080000D3
:1052DE000000000092089708B208DE08E908B70837
:1052EE00BE08C208C708CC08760B8E08D108D708AE
:1052FE00DD08E2080000E8089C082D090000EF0810
:10530E00F708000000000000330A00000000000053
:10531E0000000000FD08030900000A09000000005B
:10532E0000000000000000000000000013091E092C
:10533E0000000000000026092C09000000000000FB
:10534E00000000000000310935093E09480900003F
:10535E0000000000000054095B0965096E09000099
:10536E00770981098709900996099F09A509000007
:10537E00AB0900000000B409BA09C409D009D50967
:10538E00DA090000E5090000F00900000000FB0941
:10539E00040A0E0A190A240A2A0A310A370A3D0A91
:1053AE00440A0000500A00005C0A0000680A740AF1
:1053BE007D0A000000000000000000000000000058
:1053CE0000000000890A900A940A970A0000000063
:1053DE000000000000009B0A00000000000000001A
:1053EE000000A00A81080000A40A0000A70A00001D
:1053FE000000AC0AB20ABC0AC50ACE0A00000000C0
:10540E00D50ADA0AE40AEE0A0000F90A00000000E2
:10541E000000FF0A080B0000150B1C0B000000001B
:10542E0000000000250BFA0B000000002B0B000003
:10543E00000000000000000000000000000000005E
:10544E0000000000300B370B3B0B3E0B0000100B27
:10545E00420B0000000000000000000000000000F1
:10546E00000000000000000000000000000000002E
:10547E00000000000000000000000000000000001E
:10548E00000000000000000000000000000000000E
:10549E0000000000000000000000000000000000FE
:1056BE0000004B0B560B610B6E0B7B0B860B8F0B8F
:1056CE00960B9D0BA40BAD0BB80B2D0C370CC10B11
:1056DE00C90BD10BDB0BE50BEF0BF70BFE0B060C1F
:1056EE000F0C190C220C210C250C290C330C3E0C22
:1056FE00000074656E63007462634C006462674CF4
:10570E0000666E204C006C6E644200666E20530084
:10571E007773205500767320550062632042006C2B
:10572E006F616465642070726F6772616D20776956
:10573E0074682077735F73697A653D25642C2076D3
:10574E00735F73697A653D25642C206D656D6F728C
:10575E00795F73697A653D25642C20757365643DA8
:10576E0025640A006E6F7420656E6F75676820522F
:10577E00414D20666F722070726F6772616D0025E9
:10578E0070202530327820002538730020253038DF
:10579E007820253038782025303878202530387814
:1057AE000A004C444C500050464958004C444E4C54
:1057BE00004C4443004C444E4C50004E4649580059
:1057CE004C444C0041444300434A0045514300536E
:1057DE00544C0053544E4C004F5052004C42004219
:1057EE0053554200454E4450004743414C4C0050E7
:1057FE00524F440057535542005354415254500097
:10580E004F555442595445004F5554574F5244002A
:10581E00534554455252004D52454C454153455007
:10582E000043535542300045585456524659005382
:10583E00544F5050004C414444004E4F524D004C7A
:10584E00444956004C445049005844424C4500527D
:10585E004554004C454E44004C4454494D4552006D
:10586E00424F4F4C494E5645525400574944454EAF
:10587E0053484F52540046464943414C4C004C4508
:10588E004E4433004C454E44420052455343484526
:10589E0044554C4500444953540044495343004435
:1058AE00495353004C4D554C004E4F5400584F52D7
:1058BE00004C534852004C53484C004C53554D002D
:1058CE004C5355420052554E500053420047414AE8
:1058DE0057004D494E5400414C54454E4400414EE4
:1058EE004400454E425400454E424300454E4253FD
:1058FE000043534E474C0043434E54310054414CE9
:10590E0054004C444946460054414C54575400539D
:10591E00544F504552520043574F5244004558542D
:10592E00494E004558544F555400554E5041434B27
:10593E00534E00504F53544E4F524D534E00524FF4
:10594E00554E44534E004C44494E4600464D554C20
:10595E0000504F500053454D5F494E49540053453A
:10596E004D5F434C41494D0053454D5F52454C45AB
:10597E00415345005753554244420046504C444E05
:10598E004C44424900465043484B45525200465003
:10599E0053544E4C44420046504C444E4C534E4988
:1059AE0000465041444400465053544E4C534E0012
:1059BE0046505355420046504C444E4C44420046CD
:1059CE00504D554C0046504449560046504C444E9E
:1059DE004C534E0046504E414E0046504F52444599
:1059EE005245440046504E4F5446494E4954450088
:1059FE0046504754004650455100465049333254A4
:105A0E004F523332004650493332544F52363400DF
:105A1E004650423332544F52363400465052544F51
:105A2E0049333200465053544E4C4933320046509F
:105A3E004C445A45524F534E0046504C445A4552D0
:105A4E004F4442004650494E540047455450524927
:105A5E00004650445550004650524556005345544A
:105A6E005052490046504C444E4C4144444442002E
:105A7E0046504C444E4C4D554C44420046504C44BE
:105A8E004E4C414444534E0046504C444E4C4D55A2
:105A9E004C534E00534156454352454700524553D1
:105AAE00544F524543524547005842574F524400B7
:105ABE004C42580043420043425500535355420056
:105ACE00434952004C5300434952550046505245EB
:105ADE004D00493634544F5245414C0046504449CE
:105AEE00564259320046504D554C4259320046509E
:105AFE0053515254004650525A004650523332546B
:105B0E004F3634004650523634544F3332004650DE
:105B1E0045585044454333320046504142530046A7
:105B2E005043484B49363400434845434B4E4F543F
:105B3E004E554C4C004D414C4C4F43004D52454C34
:105B4E0045415345005841424C450058454E44008E
:105B5E005853574F5244004C53580043530043532D
:105B6E00550053485554444F574E0050524F435FC3
:105B7E00414C4C4F430050524F435F504152414DA8
:105B8E000050524F435F4D545F434F505900505297
:105B9E004F435F4D545F4D4F56450050524F435F3C
:105BAE0053544152540050524F435F454E440047A8
:105BBE0045544146460053455441464600474554D8
:105BCE00504153004D545F414C4C4F43004D545F78
:105BDE0052454C45415345004D545F434C4F4E4545
:105BEE00004D545F58434847004D545F4C4F434B54
:105BFE00004D545F554E4C4F434B004D545F454E38
:105C0E00524F4C4C004D545F52455349474E004D38
:105C1E00545F53594E43004D545F58494E004D54F6
:105C2E005F584F5554004D545F5858434847004DE8
:105C3E00545F44434C4F4E45004D545F42494E44D1
:105C4E0000524D4200574D42004558545F4D545F2F
:105C5E00494E004558545F4D545F4F5554004D54B6
:085C6E005F524553495A4500FD
:00000001FF
